:020000040800F2
:10000000801C00204501000801340008C3260008B8
:10001000E1330008E90A0008253700080000000065
:10002000000000000000000000000000053400088F
:100030001D0C00080000000003340008073400080D
:100040005F0100085F0100085F0100085F01000810
:100050005F0100085F0100085F0100085F01000800
:100060005F0100085F0100085F010008ED0A000859
:100070005F0100085F0100085F0100085F010008E0
:100080005F0100085F010008550900085F010008D2
:100090005F0100085F0100085F0100085F010008C0
:1000A0005F0100085F0100085F0100085F010008B0
:1000B000893400085F0100085F0100085F01000843
:1000C0005F0100085F0100085F0100085F01000890
:1000D0005F0100085F0100085F0100085F01000880
:1000E0005F0100085F0100085F0100085F01000870
:1000F0005F0100085F0100085F0100085F01000860
:100100005F0100085F0100085F0100085F0100084F
:100110005F0100085F0100085F0100085F0100083F
:100120005F0100085F0100085F0100085F0100082F
:10013000DFF80CD000F0DAFB004800476D43000800
:10014000801C00200648804706480047FEE7FEE77F
:10015000FEE7FEE7FEE7FEE7FEE7FEE7FEE7FEE777
:100160008534000831010008202A04DB203A21FAF6
:1001700002F00021704721FA02F3D040C2F12002C0
:100180009140084319467047D2B201E000F8012BB4
:10019000491EFBD270470022F6E710B513460A4607
:1001A00004461946FFF7F0FF204610BDF0B480EA80
:1001B0000102D40F4200B2EB410F02D202460846C0
:1001C00011464A0042D0C30DDDB2C1F3C752AD1A89
:1001D000202D35DAC1F3160141F4000204B1524278
:1001E000C5F1200602FA06F12A411044B3EBD05FB4
:1001F00023D0C4B1012DA0EBC35009DCF0BC4FF0FB
:10020000004202EAC352DBB200F5000000F00CBA73
:10021000400000F1807000EBC350A0F1807040EA14
:10022000D170490009E0490841EAC071A0EBC35010
:1002300000F50000400800EBC350F0BC00F0EBB943
:100240006142012202EB4101001BF6E7F0BC70475E
:1002500081F00041AAE780F00040A7E730B480EACF
:10026000010202F0004530F0004221F0004013D0BE
:1002700090B1C30DD40DC2F31601C0F31600E41AF9
:1002800041F4000140F400027D34914201D3641C2A
:1002900000E04900002C02DA30BC002070474FF427
:1002A00000000023914201D3891A034340084FEA1A
:1002B0004101F7D151B1914202D14FF0004105E027
:1002C00002D24FF0010101E06FF0010103EBC450D5
:1002D000284430BC00F09FB92DE9FE4F81EA0304A9
:1002E00004F0004421F0004100944FF0000B23F093
:1002F000004350EA01045ED052EA03045BD0C3F32A
:100300000A54C1F30A552C44A4F2F3340194A0FB1F
:100310000254C1F3130141F48011C3F3130343F4F6
:10032000801301FB024400FB034E840A970A44EA4F
:10033000815447EA8357A4FB076802958D0A05FBA1
:1003400007854FEA932C04FB0C542705029D4FEAC6
:10035000065847EA1637B5EB08056EEB070C870E13
:10036000920E47EA811742EA8312A7FB0201B6EB1D
:100370000B0164EB00042B0D43EA0C335E1844EBD5
:100380001C50DA465146E7FB0201C5F313044FEA5D
:100390000B3343EA14534FEA0432019C43EA060349
:1003A000A4F10C040294009CCDE900B400F079F9AA
:1003B00003B0BDE8F08F00200146F9E72DE9F04DCC
:1003C00081EA030404F0004B21F0004514464FF08D
:1003D000000A23F0004150EA050220D054EA01024D
:1003E0001DD0C5F30A570246C5F31303C1F313002A
:1003F000C1F30A5640F4801543F48013A7EB0608B6
:10040000101BD64608F2FD3873EB050002D308F145
:10041000010801E092185B41B8F1000F03DA0020F7
:100420000146BDE8F08D00204FF480110646844659
:100430000EE0171B73EB050705D3121B63EB0503D7
:1004400006434CEA010C49084FEA300092185B4120
:1004500050EA0107EDD152EA030012D082EA04000B
:1004600083EA0501084305D0101BAB4106D20122E7
:10047000002306E000224FF0004302E06FF001028B
:1004800053101AEB06004CEB085110EB0A0041EB3D
:100490000B01BDE8F04D00F0F5B870B521F0004358
:1004A00003430CD0C1F30A550024D5EB040564EBDB
:1004B0000403D617AD1AB34102DB0020014670BD1C
:1004C000201841EB025170BD96230022114600F026
:1004D000ABB80EB540F2334102910021CDE90011D5
:1004E0000A460B4600F0DDF803B000BD20F00040E6
:1004F000C10DC0F3160040F400007F2901DA00208E
:100500007047962903DCC1F19601C84070479639BF
:100510008840704700F0004230F000400AD0C10D22
:1005200001F56071C0F3160042EA0151C2084007AC
:100530001143704700200146704701F0004330B47A
:1005400021F0004150EA010206D00A0DA2F56072C6
:10055000C1F31301002A02DC30BC00207047440FB5
:1005600044EAC104C100E01830BC00EBC25000F006
:1005700052B80000002801DBC0F10040002901DB77
:10058000C1F100418142704730B50B460146002061
:100590002022012409E021FA02F59D4205D303FA45
:1005A00002F5491B04FA02F52844151EA2F10102C6
:1005B000F1DC30BD2DE9F05F0546002092469B46F8
:1005C00088460646814640241BE028464146474669
:1005D0002246FFF7C9FD53465A46C01A914110D32F
:1005E00011461846224600F093F92D1A67EB0108D0
:1005F0004F4622460120002100F08AF917EB00093E
:100600004E41201EA4F10104DFDC484631462A4653
:100610004346BDE8F09F0029A8BF7047401C490031
:1006200008BF20F00100704710B4B0FA80FC00FA57
:100630000CF050EA010404BF10BC704749B1CCF182
:10064000200421FA04F411FA0CF118BF012121430E
:100650000843A3EB0C01CB1D4FEA00614FEA1020C9
:1006600042BF002010BC704700EBC350104400296B
:10067000A4BF10BC7047401C490008BF20F0010017
:1006800010BC704710B5141E73F1000408DA401C4A
:1006900041F1000192185B411A4301D120F00100A1
:1006A00010BD2DE9F04D92469B4611B1B1FA81F291
:1006B00002E0B0FA80F22032904600F029F90446B8
:1006C0000F4640EA0A0041EA0B0153465A460843E6
:1006D00013D0114653EA010019D0C8F14002504628
:1006E000FFF742FD05460E4650465946424600F089
:1006F0000FF9084305D0012004E020463946BDE843
:10070000F08D0020054346EAE0762C4337430A98F3
:100710006305E40AA0EB08000022FD0A44EA4754FE
:100720000A3002D500200146E9E7010510196941A8
:10073000DDE9084500196941BDE8F04DA2E72DE962
:10074000FE4F804681EA0300C00F0C46009021F066
:10075000004123F00045B8EB0200A94105D2404614
:10076000214690461C460B46024623F000401043AB
:1007700047D0270DC7F30A00C3F30A510290401A6D
:10078000019040286BDAC3F3130040F4801B0098FB
:10079000924620B10023D2EB030A63EB0B0B0198C6
:1007A0005946C0F14002504600F0B2F806460D46E8
:1007B00050465946019A00F0BAF810EB0800614122
:1007C000002487EA115284EAE7731A4340D0009A62
:1007D00062B3019A012A4FEA075215DC001B61EB54
:1007E00002014FF0004202EA0752CDE90042001C2C
:1007F00041F5801132462B46FFF753FF03B0BDE8A9
:10080000F08F40462146F9E7001B61EB0201001C16
:1008100041F5801300185B412018A2F5001747EB43
:10082000030140EAD570B6196D4111E06D084FEA39
:10083000360645EAC0754FEA0752001B61EB02011C
:10084000001C41F5801149084FEA30000019514160
:1008500032462B4603B0BDE8F04FFFF713BF0098B8
:10086000012240000023D0EB020263EBE07300980A
:1008700021464FEAE074B8EB000061EB0401E9E7C0
:1008800083F000435BE781F0004158E7C1F30A526F
:10089000C1F3130140F2FF3341F480119A4202DAAE
:1008A00000200146704740F233439A42A2F233429D
:1008B00002DC5242FFF758BC00F02AB830B5041EE3
:1008C00071F1000404DB4FF00044404264EB01018D
:1008D000141E73F1000405DB1C464FF00043524226
:1008E00063EB0403994208BF904230BD064C074DAC
:1008F00006E0E06840F0010394E8070098471034F0
:10090000AC42F6D3FFF718FC745C0008945C000856
:10091000202A04DB203A00FA02F1002070479140BF
:10092000C2F1200320FA03F3194390407047202AB4
:1009300006DBCB17203A41FA02F043EAE07306E007
:1009400041FA02F3D040C2F1200291400843194617
:1009500070470000014800F035BB00007000002027
:1009600070B5044600688168C943C90717D181681A
:1009700021F00101816001F06BF805460AE000BF3B
:1009800001F066F8401B022804D920688068C04343
:10099000C00706D020688068C043C007F0D00020A0
:1009A00070BDA06A40F01000A062E06A40F0010053
:1009B000E062012070BD10B50146406A826A12F003
:1009C000500F05D0006A026BBDE810400846104782
:1009D000816A41F40071816201688968C1F3424112
:1009E00007290CD1017B51B9816A21F480718162A0
:1009F000816AC90403D4816A41F00101816200F077
:100A0000CFFA10BD10B5406A816A41F040018162A1
:100A1000C16A41F00401C16200F0D3FA10BD10B503
:100A2000406A00F0CDFA10BDF8B5002604460096E5
:100A300000688168C943C9072DD0816841F0010170
:100A40008160164816490068B0FBF1F000E0401ED6
:100A500000900028FBD100F0FBFF054616E000BF28
:100A600000F0F6FF401B022810D920688068C043C0
:100A7000C0070BD0A06A40F01000A062E06A40F00E
:100A80000100E06284F824600120F8BD20688068DD
:100A9000C043C007E4D10020F8BD000014000020CE
:100AA00040420F0010B50D4800F062FC40F24E22AB
:100AB0000B490A4800F0D6FB0A48C168491CC160CE
:100AC000B1F5937F01D90122428040F22712B1FB98
:100AD000F2F302FB1311C16010BD00007000002092
:100AE0007401002038000020FEE70000014800F0FB
:100AF00013BD0000A000002030B590F84050012444
:100B0000AC40C56B6C60046863604368102B03687D
:100B100003D099600068C26030BD9A600068C1600F
:100B200030BD00002DE9F05F364D0020686028617F
:100B3000E860686103F09AFA334FDFF8D0A0DFF87D
:100B4000D0B000246FF00B084FF0663937F824005E
:100B5000FFF7BFFC4246FFF7A0FC4A465346FFF7AB
:100B6000BBFB00225B46FFF7B7FBFFF7E6FC294E15
:100B7000014646F82400E868FFF7FCFC02D256F86C
:100B8000240000E0E868E86056F824106868FFF781
:100B90000DFB686007EB84004088FFF79AFC424633
:100BA000FFF77BFC4A465346FFF796FB00225B4665
:100BB000FFF792FBFFF7C1FC06EB84060146C6F87F
:100BC0009C046869FFF7D6FC02D2D6F89C0400E0CA
:100BD00068696861D6F89C142869FFF7E7FA641C15
:100BE000A4B22861B4F5937FB0D90B4C6868214654
:100BF000FFF734FB686021462869FFF72FFB286167
:100C0000BDE8F09F480000207401002066660A409D
:100C10000080414010060020008093437047000090
:100C20002DE9F84F9A4D4FF6FF76E87801280ED15E
:100C30000020E8703046314602F042FA0120009070
:100C4000A6234FF499724421072001F0F9FDAC78F6
:100C5000002C5DD0012C7DD001248D4E30780719F9
:100C6000781E1FFA80FA7078FFF72EFC89498346B8
:100C700001EB8405D5F89814FFF7EAFAFFF736FC84
:100C80001FFA80F81FFA87F95846D5F89C14FFF729
:100C9000DFFAFFF72BFC4FF6FF7B87B25946084679
:100CA00002F00EFA3B464A464146504601F07AFDB4
:100CB000794800EB840757F8040C45F8040CD7F882
:100CC0009804C5F8980480467078FFF7FDFB054648
:100CD0004146FFF7BDFAFFF709FC86B22846D7F870
:100CE0009C14FFF7B5FAFFF701FC85B259464FF4A3
:100CF000784002F0E5F92B464A463146504601F06D
:100D000051FD641CA4B2B4F5937FA6D9BDE8F88F59
:100D100001245F4D287820441FFA80FA1FFA80FBD7
:100D20006878FFF7D1FB5B4E804656F82410FFF73A
:100D30008FFAFFF7DBFB06EB840987B24046D9F850
:100D40009C14FFF785FAFFF7D1FB1FFA80F84FF6E6
:100D5000FF7100E044E0084602F0B2F9394650461F
:100D600002F076F94FF6FF71084602F0A9F9414604
:100D7000584602F06DF9484850F8247000EB8400A2
:100D800046F82470D0F89C64C9F89C646878FFF732
:100D90009BFB05463946FFF75BFAFFF7A7FB87B2D7
:100DA00028463146FFF754FAFFF7A0FB85B24FF60D
:100DB000FF711F2002F084F93946504602F048F9CD
:100DC0004FF6FF714FF4784002F07AF92946584601
:100DD00002F03EF9641CA4B2B4F5937F99D995E76B
:100DE0002B4E30780719781E1FFA80FA7078FFF7BB
:100DF0006BFB2849834601EB840555F8041DFFF77A
:100E000027FAFFF773FB1FFA80F81FFA87F9584695
:100E1000D5F8A014FFF71CFAFFF768FB4FF6FF7B2D
:100E200087B25946084602F04BF93B464A464146CE
:100E3000504601F0B7FCDFF8608008EB840050F802
:100E4000047C2F60D0F89804C5F89C047078FFF7F4
:100E50003BFB054658F82410FFF7FAF9FFF746FB6D
:100E600086B228463946FFF7F3F9FFF73FFB85B214
:100E700059461F2002F024F933464A462946504677
:100E800001F090FC641CA4B2B4F5937FA8D93DE7AF
:100E900048000020480F00201006002072B6FEE730
:100EA00070470000F8B50024009490F824202546EF
:100EB000012A12D0012280F824204A681F23072A21
:100EC0000DD20668776B521E02EB820293409F435D
:100ED0000B6893401F43776319E00220F8BD066852
:100EE0000D2A0AD2376BD21F02EB820293409F4336
:100EF0000B6893401F43376309E0F76A0D3A02EB32
:100F0000820293409F430B6893401F43F7620A6835
:100F1000072306680A2A0AD3F7680A3A02EB420254
:100F200093409F438B6893401F43F76008E0376905
:100F300002EB420293409F438B6893401F4337610B
:100F40000A68102A01D0112A20D1124B02689A4255
:100F500017D193681B0219D4936843F4000393607C
:100F60000968102912D10C490C4A0968B1FBF2F149
:100F700001EB8101490000E0491E00910029FBD1ED
:100F800004E0816A41F020018162012480F824504C
:100F90002046F8BD002401401400002040420F000C
:100FA000054910B501204880044800F072FABDE8F8
:100FB0001040024800F042BA3800002070000020C3
:100FC0007047704770B50446006806684568A90612
:100FD00025D5B10723D5A16AC90603D4A16A41F476
:100FE0000071A1628168C1F34241072910D1217BC0
:100FF00071B9416821F020014160A06A20F480703D
:10100000A062A06AC00403D4A06A40F00100A062FC
:101010002046FFF7C5FF21686FF012000860280620
:101020002ED570072CD5A06AC00603D4A06A40F460
:101030000050A06220688168C1F30231072909D0FD
:101040004168490515D48168C1F34241072910D18F
:10105000217B71B9416821F080014160A06A20F4D0
:101060008050A062A06AC00503D4A06A40F00100CD
:10107000A0622046FFF714FF21686FF00C000860A3
:1010800068060CD5F0070AD0A06A40F48030A06250
:10109000204600F095F821686FF00100086070BDEF
:1010A0002DE9F04104004FF000057FD0A06A002632
:1010B00028B9E66284F82460204600F083F82046D0
:1010C000FFF74EFCA16AC90600D420B1A06A40F027
:1010D0001000A0626AE0A16A21F4885141F0020187
:1010E000A162334923688B42E16904D1B1F5402FF5
:1010F00001D14FF40021277B4FF4807C41EA470265
:1011000061680A43A168614508D0012906D0002121
:1011100094F814E0BEF1010F02D00AE06146F7E74F
:10112000C7B1A76A47F02007A762E76A47F001073F
:10113000E7625F6827F469470F435F602368996837
:101140001C4F394011439960A16861450BD00129BA
:1011500009D00CE0DFF860E0A7690EEB47370F43DA
:1011600047F40061E5E7218A0D05A5F580152168A2
:10117000CB6A23F470032B43CB62216889680F4B41
:101180001940914208D1E662A16A21F0020141F0C2
:101190000101A162BDE8F081A06A20F0020040F0E8
:1011A0001000A062E06A40F00100E0620120F1E777
:1011B000003C0140FDF7E1FF00E0FFFFFE0E1FFFD6
:1011C0007047000070B586B0002506460095019571
:1011D0000295039500681E49884236D11D498869E9
:1011E00040F400708861886900F400700490886998
:1011F00040F0040088618869694600F004000490AA
:101200000C20009003200190134800F01FFB144CA9
:101210001248C4E900058020C4E902504000206162
:10122000800060612020C4E90605204600F098FA9D
:1012300008B1FFF733FE34620022114612206662C5
:1012400000F06AFC122000F059FC06B070BD0000EE
:101250000024014000100240000801400800024044
:10126000A00000202DE9F047894604463B4900686C
:101270003B4F0E1D9046884201D0B84207D13068DE
:1012800010F4702F03D001252846BDE8F08794F8AC
:10129000240001280CD0012084F824002046FFF708
:1012A000C3FB05004FF0000004D084F82400EBE7F6
:1012B0000220EAE7A16A40F60162914341F480719D
:1012C000A1622168B94218D1326812F4702F14D08B
:1012D000A16A41F48011A1623168490505D5A16A6E
:1012E00021F4005141F48051A162A16AC9040AD5D8
:1012F000E16A21F00601E16206E0A26A22F48012AE
:10130000A2624968E9E7E06284F82400216A15488E
:101310008862216A1448C862216A144808632168F7
:101320006FF0020008602068816841F4807181607C
:10133000216843464A464C31206A00F04FFA206843
:101340008168C1F342410729816803D041F48011CB
:10135000816099E741F4A001FAE700000024014010
:1013600000280140B70900081F0A0008050A000804
:1013700070B5044690F8240001280DD0012084F8AF
:1013800024002046FFF750FB02004FF0000005D07C
:1013900084F82400104670BD022070BDA16A40F69A
:1013A0000163994341F48071A162224D236822496F
:1013B000AB4218D10E6816F4702F14D0A66A46F40A
:1013C0008016A6620E68760505D5A66A26F4005634
:1013D00046F48056A662A66AF6040AD5E66A26F0A6
:1013E0000606E66206E0A66A26F48016A6625E6835
:1013F000E9E7E06284F824006FF0020018602068DA
:10140000436843F02003436020688368C3F342438A
:10141000072B05D1A84208D1096811F4702F04D018
:10142000816841F480118160B4E7816841F4A001D2
:10143000F9E70000002801400424014010B50446EB
:1014400090F82400012807D0012084F824002046C9
:10145000FFF786FA10B113E0022010BD21688A68F8
:1014600022F480728A60216A91F82120022A07D131
:10147000084600F02DF8A16A30B141F04001A162A8
:10148000002184F8241010BD21F4885141F001019D
:10149000F5E710B5044690F82400012807D0012094
:1014A00084F824002046FFF75BFA10B10CE002201C
:1014B00010BD21684A6822F020024A60A16A21F426
:1014C000885141F00101A162002184F8241010BD6F
:1014D00010B590F821100022022905D00421816363
:1014E00080F82020012010BD01680B6823F00E0356
:1014F0000B6001680B6823F001030B6090F840302B
:10150000C46B012101FA03F3636080F8211080F8B5
:101510002020104610BD00002DE9F05FC16B0A6865
:1015200001680B68046C4FF0040808FA04F8844D55
:10153000844E854FDFF814C2DFF81492DFF814A24E
:10154000DFF814B2DFF814E218EA020F65D05FEAA0
:10155000437862D50A68920603D40A6822F004022E
:101560000A60DFF8F0814FF48062016808F1140826
:1015700013011402414524D9A9420DD0B1420FD024
:10158000B9421AD0614515D0494515D0514501D110
:10159000120312E0594501D104220EE0714501D138
:1015A00040220AE06D4D1435A94206D06B4A28321C
:1015B000914201D11A4600E022466749091F0A609C
:1015C00029E0A94213D0B14215D0B94220D06145DB
:1015D0001BD049451BD0514502D14FF4800217E082
:1015E000414502D14FF0806212E0594501D10422F9
:1015F0000EE0714501D140220AE0584D1435A94250
:1016000006D0564A2832914201D11A4600E02246BD
:101610004B4908394A60C16A71E04FF0020808FA84
:1016200004F818EA020F70D05FEA83786DD50A6873
:10163000920606D40A6822F00A020A60012180F8A4
:101640002110DFF810814FF40072016808F11408CE
:1016500013011402414524D9A9420DD0B1420FD043
:10166000B9421AD0614515D0494515D0514501D12F
:10167000120312E0594501D102220EE0714501D159
:1016800020220AE0354D1435A94206D0334A2832CB
:10169000914201D11A4600E022462F49091F0A60F3
:1016A00029E0A94213D0B14215D0B94220D06145FA
:1016B0001BD049451BD0514502D14FF4001217E011
:1016C000414502D14FF0007212E0594501D102228A
:1016D0000EE0714501D120220AE0204D1435A942C7
:1016E00006D01E4A2832914201D11A4600E0224615
:1016F000134908394A60002180F82010816A0029C6
:101700001CD0BDE8F05F0847FFE70825A54015425B
:1017100014D01A0712D50A6822F00E020A6090F857
:101720004020C36B012101FA02F25A60816380F804
:101730002110002180F82010016BE0E7BDE8F09F48
:10174000080002401C0002403000024044000240F9
:10175000580002406C000240080402401C04024091
:1017600030B560B11A4B026814219A4209D2194B64
:101770001344B3FBF1F18900016417490AE0012029
:1017800030BD134B5B421344B3FBF1F1890001649C
:101790000F490839C163022180F82110136843F60C
:1017A000F0718B43F0E901142143D0E902452C4349
:1017B0002143046921434469214384692143194336
:1017C000116000214163012242770177084630BD54
:1017D00008040240F8FFFDBF0000024070B5044657
:1017E00090F82000002501280CD0012084F820006A
:1017F00094F821600020012E06D084F820000225F4
:10180000284670BD022070BD022684F82160A063C6
:101810002068066826F0010606602046FFF76CF98E
:10182000E06A00282068016802D041F00E0106E05D
:1018300021F0040101602068016841F00A010160A3
:101840002068016841F001010160D9E72DE9F84FF6
:10185000DFF8C8910024A9F1040B23460F2709F1F2
:10186000040AABF1040ED1E00125A54006EA050209
:10187000AA4276D1DFF8A8C14E68A6EB0C086645EF
:101880002BD00DDC032E34D005DC36B3012E19D05D
:10189000022E2FD11BE0112E16D0122E2AD119E0C4
:1018A000B8F5881F19D006DCB8F5803F15D0B8F51B
:1018B000801F1FD111E0B8F5001F0ED0B8F5041F2E
:1018C00018D10AE0CB6815E0CB681B1D12E0CB688D
:1018D00008330FE0CB680C330CE08B682BB1012B85
:1018E0004FF0080303D0456104E0042302E00561E2
:1018F00000E00023FF2A01D8064601E000F10406BB
:101900004FEA840501D9A5F12005D6F8008007FA31
:1019100005FC28EA0C0803FA05F548EA0508C6F8AC
:1019200000804D68ED0070D53E4DAE6946F0010671
:10193000AE61AD6924F0030605F0010500953A4D4E
:1019400006EB050CDCF80850A607360F07FA06F878
:1019500025EA0805DFF8D480404503D14FF00008A0
:1019600025E052E0DFF8C880404502D14FF0010881
:101970001DE0DFF8C080404502D14FF0020816E0BC
:10198000DFF8B480404502D14FF003080FE0DFF8E4
:10199000AC80404502D14FF0040808E0DFF8A08099
:1019A000404502D14FF0050801E04FF0060808FA63
:1019B00006F848EA0508CCF808804D68D9F80060B8
:1019C000ED024D4601D5164300E096432E604D686A
:1019D000DAF80060AD02554601D5164300E09643A3
:1019E0002E604D68DBF80060AD035D4601D51643FF
:1019F00000E096432E604D68DEF80060ED0375460A
:101A000001D5164300E096432E60641C0A68164612
:101A1000E2407FF429AFBDE8F88F000008040140E0
:101A200000001110001002400000014000080140B9
:101A3000000C01400010014000140140001801405A
:101A4000001C01408068084000D001207047000061
:101A50000148806870470000080000200248816843
:101A6000027811448160704708000020074810B5D3
:101A7000016841F010010160032000F06DF80F20B3
:101A800000F006F800F024F8002010BD002002400D
:101A900070B50D4D04464FF47A712878B1FBF0F023
:101AA0000A490968B1FBF0F000F050FB48B9102C6E
:101AB00007D200222146501E00F02EF800206C6054
:101AC00070BD012070BD000008000020140000203F
:101AD000094808B5816941F001018161816901F01E
:101AE00001010091C16941F08051C161C06900F0FC
:101AF0008050009008BD000000100240002809DB63
:101B000000F01F02012191404009800000F1E02017
:101B1000C0F8001170470000F0B40E4B1B680C4673
:101B2000C3F30223C3F10705042D00D90425191DB1
:101B3000072901D2002300E0DB1E012606FA05F189
:101B4000491E214099409E40761E16403143F0BC0C
:101B500001F00EBE0CED00E0064900F00702086837
:101B60004FF6FF03184040EA0220034A1043086082
:101B7000704700000CED00E00000FA052DE9F84385
:101B800005460078354CC00754D0E0690026C000F7
:101B900008D4E06940F08050E061E069012600F07F
:101BA000805000902E480168C90512D40168804613
:101BB00041F480710160FFF74BFF074605E000BF6D
:101BC000FFF746FFC01B642823D8D8F80000C005E3
:101BD000F6D5206A10F4407021D0A98801F4407134
:101BE00081421CD0206A1F49012220F440700A6003
:101BF00000220A602062C00711D0FFF729FF0746C4
:101C000041F2883808E000BFFFF722FFC11B4145C1
:101C100002D90320BDE8F883206A8007F4D5206A42
:101C2000696820F44070084320621EB1E06920F02A
:101C30008050E0612878800705D56068A96820F4A5
:101C40004040084360602878C00605D5606869692F
:101C500020F48000084360600020DBE700100240B1
:101C600000700040400442422DE9F0470F46050055
:101C700061D0434E306800F00700B84209D23068A6
:101C800020F0070038433060306800F00700B842A9
:101C900051D128683B4C810712D5400703D56068B5
:101CA00040F4E06060602878000703D5606840F485
:101CB000605060606068A96820F0F00008436060D0
:101CC0002878C00728D06868012810D02168022829
:101CD00010D0890700292EDA616821F00301014341
:101CE0006160FFF7B5FE804641F288390DE021685A
:101CF0008903EFE78901EDE7FFF7AAFEA0EB0801F2
:101D0000494502D90320BDE8F0876068696800F0A2
:101D10000C00B0EB810FEFD1306800F00700B84243
:101D20000BD9306820F0070038433060306800F08D
:101D30000700B84201D00120E5E72878400705D523
:101D40006068E96820F4E060084360602878000774
:101D500006D56068296920F4605040EAC1006060DF
:101D600000F03EF86168084AC1F30311515CC840B5
:101D70000649086006480068FFF78AFE0020C2E7AF
:101D800000200240001002409A4400081400002085
:101D90000C0000200148006870470000140000207B
:101DA0000448054900684968044AC1F30221515CAE
:101DB000C84070471400002000100240AA440008E8
:101DC0000448054900684968044AC1F3C221515CCE
:101DD000C84070471400002000100240AA440008C8
:101DE0000E4A51680E4801F00C03042B11D0082B49
:101DF0000FD10C48C1F38343C903C05C0AD55168B5
:101E0000084AC1F34041921E515C054A5043B0FB61
:101E1000F1F0704704494843704700000010024049
:101E200000127A008A44000800093D002DE9F84FAD
:101E3000040070D02078C04DC00749D06868C0F356
:101E40008100012807D06868C0F38100022809D109
:101E50006868C00306D52868800339D56068002803
:101E6000E7D035E06068B0F5803F0BD010B1B0F539
:101E7000A02F11D0286820F480302860286820F432
:101E8000802002E0286840F480302860606890B1CB
:101E9000FFF7DEFD06460AE0286840F4802028604F
:101EA000F0E700BFFFF7D4FD801B642873D82868D3
:101EB0008003F7D50CE0FFF7CBFD064605E000BF39
:101EC000FFF7C6FD801B6428F0D828688003F7D48C
:101ED00020789A4E80074FF001094FF0000839D55D
:101EE000686810F00C0F07D06868C0F38100022802
:101EF00009D16868C00306D42868800714D5206912
:101F0000012808D110E02069B0B1C6F80090FFF7B1
:101F10009FFD074605E00AE1FFF79AFDC01B022876
:101F2000C4D828688007F7D52868616920F0F800D0
:101F300040EAC10028600DE0C6F80080FFF788FD88
:101F4000074604E0FFF784FDC01B022823D8286859
:101F50008007F7D4207800072CD57948A169D9B13A
:101F6000C0F80090FFF774FD074604E0FFF770FD2E
:101F7000C01B02280FD8686A8007F7D571484FF454
:101F8000FA510068B0FBF1F0009000BF0098411ECC
:101F90000091FAD20EE080E0C0F80080FFF758FD13
:101FA000074604E0FFF754FDC01B022875D8686A95
:101FB0008007F7D42078400760D5E8690027C00083
:101FC00008D4E86940F08050E861E869012700F032
:101FD000805000905C480168C90513D401688346AD
:101FE00041F480710160FFF733FD824606E000BFD7
:101FF000FFF72EFDA0EB0A0064284ED8DBF80000A6
:10200000C005F5D5E06801280AD008B1052813D02D
:10201000286A20F001002862286A20F0040002E00B
:10202000286A40F001002862E06841F2883B98B1DC
:10203000FFF70EFD82460BE0286A40F0040028629C
:10204000EEE700BFFFF704FDA0EB0A0159455AD89F
:10205000286A8007F6D50CE0FFF7FAFC824605E017
:10206000FFF7F6FCA0EB0A0159454CD8286A800717
:10207000F6D41FB1E86920F08050E861E06988B3C8
:102080006968C1F38101022944D00228C6F8608042
:1020900004D0FFF7DDFC044638E034E0FFF7D8FC5D
:1020A000074604E0FFF7D4FCC01B02282BD82868A1
:1020B0008001F7D4206AB0F5803F05D16868A16837
:1020C00020F4003008436860D4E9080108436968D7
:1020D00021F4741108436860C6F86090FFF7B8FCFB
:1020E000044606E025E000BFFFF7B2FC001B022813
:1020F00009D828688001F7D51BE000BFFFF7A8FCCE
:10210000001B022802D90320BDE8F88F286880014F
:10211000F4D40EE00128F7D06868226A00F4803118
:10212000914204D1616A00F47010884201D001200C
:10213000EAE70020E8E70000001002400000424209
:1021400080044242140000200070004010B5401E80
:10215000B0F1807F01D3012010BD4FF0E024606119
:102160000F21601701F004FB0020A061072020610F
:10217000002010BD7047704770B590F83C20012AD0
:102180002CD0012480F83C40022280F83D200368D6
:102190005A689D6822F070060A6832435A60104BF4
:1021A00002689A420ED00F4B9A420BD0B2F1804F88
:1021B00008D00D4B9A4205D00C4B9A4202D00C4BE2
:1021C0009A4204D1496825F080031943916080F850
:1021D0003D40002180F83C10084670BD022070BDD3
:1021E000002C014000340140000400400008004081
:1021F000000C004010B5040003D094F83D0010B16D
:1022000007E0012010BD002084F83C00204600F0CB
:102210001FF8022084F83D00211D206801F03AF9E2
:10222000012084F8460084F83E0084F83F0084F8DA
:10223000400084F8410084F8420084F8430084F8A8
:10224000440084F8450084F83D00002010BD0000E3
:1022500008B50068B0F1804F12D10A48C16941F059
:102260000101C161C069002200F001000090114627
:102270001C20FFF751FCBDE808401C20FFF73EBCC6
:1022800008BD00000010024090F83D10012901D067
:1022900001207047022180F83D100168CA6842F0B1
:1022A0000102CA6000680E4988420ED00D4988427A
:1022B0000BD0B0F1804F08D00B49884205D00B49B4
:1022C000884202D00A49884204D1816801F007019E
:1022D000062903D0016841F0010101600020704728
:1022E000002C014000340140000400400008004080
:1022F000000C004070B5044690F83C000025012811
:1023000017D0012684F83C60022084F83D00206844
:10231000826822F0770222F47F42826008685028A7
:1023200038D00DDC20284FD005DC90B3102811D117
:102330004AE0022070BD302846D040280AD13BE058
:1023400060282FD070280DD0B0F5805F03D0B0F595
:10235000005F12D0012584F83D60002084F83C0025
:10236000284670BDCB68D1E90121206801F0D8F87A
:102370002068816841F0770109E0CB68D1E901214B
:10238000206801F0CDF82068816841F480418160C7
:10239000E1E719E0CA684968206801F0D3F85021E4
:1023A000206806E0CA684968206801F0DCF860210E
:1023B000206801F0BFF8CEE7CA684968206801F0DC
:1023C000C1F840212068F4E7226801461046F0E792
:1023D000704770B50446006801694FF00005C943B5
:1023E000890715D4C168C943890711D4E91E016161
:1023F00001202077206880698007204602D0FFF7FF
:10240000E7FF04E000F098F8204600F096F8257702
:1024100020680169C943490717D4C168C9434907FE
:1024200013D46FF0040101610220207720688069D5
:1024300010F4407F204602D0FFF7CAFF04E000F00E
:102440007BF8204600F079F8257720680169C943B8
:10245000090716D4C168C943090712D46FF00801EF
:102460000161042020772068C0698007204602D0DF
:10247000FFF7AEFF04E000F05FF8204600F05DF8E3
:10248000257720680169C943C90617D4C168C943C3
:10249000C90613D46FF0100101610820207720686D
:1024A000C06910F4407F204602D0FFF791FF04E09E
:1024B00000F042F8204600F040F8257720680169D6
:1024C000C943C90708D1C168C943C90704D1891ED6
:1024D0000161204600F032F820680169C94309060D
:1024E00009D4C168C943090605D46FF080010161B0
:1024F0002046FFF73FFE20680169C943490609D419
:10250000C168C943490605D46FF040010161204606
:1025100000F01EF820680169C94389060BD4C16820
:10252000C943890607D46FF0200101612046BDE848
:102530007040FFF720BE70BD704770470068B0F173
:10254000804F02D10149012008707047040000202B
:10255000704770B5040004D094F84100002510B114
:1025600006E0012070BD84F84050204600F024F8B9
:10257000242084F841002068C16821F40051C16022
:10258000204601F037F82068016921F4904101618B
:102590002068416921F02A0141612068C16841F445
:1025A0000051C1606564202084F8410084F8420035
:1025B0006563002070BD000030B585B00024009434
:1025C00001940294039400681449884224D1144869
:1025D000816941F480418161816901F48041049104
:1025E000816941F00401816180690E4D00F00400B1
:1025F00004904FF40070009002200190032003909B
:1026000069462846FFF722F92815CDE900046946F6
:1026100028460294FFF71AF905B030BD0038014092
:1026200000100240000801402DE9F843044690F8EC
:1026300041001F4616460D46202802D00220BDE864
:10264000F8837DB176B100206064212084F84100D8
:10265000FFF7FEF9A6848046E684A068B0F5805FA7
:1026600002D003E00120EAE7206910B12E460025E0
:102670000EE000260CE08021204601F017F8A0B9FA
:10268000AEB116F8010B21684860E08C401EE08472
:10269000E08C43464FF0000200970028EBD14FF04A
:1026A0004001204601F002F830B10320C7E735F8B9
:1026B000020BC0F30800E6E7202084F84100002068
:1026C000BDE7FEE7034910B14FF4802000E004208D
:1026D000086070471014014001B5009801E0401EE9
:1026E00000900028FBD108BD2DE9F047184C203A96
:1026F0001FFA82FCE768BA88FB8802FB03F5EE1735
:1027000005EB5675C5F3C7063D680CFB065700F090
:10271000A1F92C2000F0B0FC00254FF08008A14664
:1027200012E00024795D28FA04F0014202D0B9F8E1
:10273000080001E0B9F80A0000F0B0FC641CE4B243
:10274000082CEFD36D1CEDB2B542EAD3BDE8F0879B
:10275000280000202DE9F04117460E460546104C92
:1027600019E0E068638881882944994203D9C188C7
:10277000002531448EB2C088A1883044884201D9F6
:1027800000252E4631462846FFF7AEFFE0687F1C45
:102790008088284485B23A78002AE2D1BDE8F081E9
:1027A000280000202DE9FE4F161ACDE900104FF049
:1027B00000085D1A47464FF0FF30002E02DD4FF053
:1027C000010102E003D14FF000018B4602E0834695
:1027D000C6F10006002D02DD4FF0010002E003D13A
:1027E0004FF00000824602E08246C5F10005AE428D
:1027F00001DD344600E02C46601C4FF000090290D9
:1028000019E000BFDDE9001000F022FCB0442F44C5
:10281000A04505DD0198A8EB0408584480B201905A
:10282000A74204DD00983F1B504480B2009009F19C
:1028300001001FFA80F902998945E3DDBDE8FE8FAA
:102840002DE9F041064606981F4614460D4650B144
:10285000304600F0FFF8124904FB07F00989BDE893
:10286000F04100F01FB8B418641EA2B20B46304607
:10287000FFF798FF2F447F1EBBB2A2B2B9B2304619
:10288000FFF790FF3246BBB229461046FFF78AFF9A
:10289000BBB2A2B2A0B22946BDE8F041FFF782BFA9
:1028A0002800002070B505460E4600242C2000F0BC
:1028B000E3FB03E0304600F0F1FB641CAC42F9D3CB
:1028C00070BD00002B4810B5816986B041F0100141
:1028D0008161816901F010010491816941F0200159
:1028E0008161816901F020010491816941F0080151
:1028F0008161816901F008010491816941F0010160
:102900008161806900F0010004901B48416821F05A
:10291000E06141F0007141600120019002900320CC
:1029200003904FF6FF70009069461448FEF78EFF43
:102930002020134C009069462046FEF787FF402078
:10294000009069462046FEF781FF102000906946FE
:102950002046FEF77BFF8020009069462046FEF768
:1029600075FF0420009069460648FEF76FFF06B029
:1029700010BD00000010024000000140000C0140AA
:10298000001001400014014070B5054607284DD8DD
:10299000274CEA074FF0F00025704FF4A07112D0D9
:1029A0006180A080362000F067FBE088A0F513412D
:1029B000413904D0A0F50541523907D009E008207B
:1029C00040EA451003E06080A180EBE7680100F079
:1029D00065FB2A2000F050FB002000F05FFB002088
:1029E00000F05CFB6088401EC0F3072000F056FB3F
:1029F000A078401EC0B200F051FB2B2000F03CFB41
:102A0000002000F04BFB002000F048FBA088401E97
:102A1000C0F3072000F042FB2079401EC0B200F056
:102A20003DFBBDE870402C2000F026BB70BD0000CF
:102A30002800002010B5FFF745FF0120FFF742FEF8
:102A400000F034F802480078BDE81040FFF79CBF62
:102A5000280000202DE9F04105461E4617460C4689
:102A60002A2000F009FB280A00F018FBE8B200F069
:102A700015FB3D446D1EC5F30F2000F00FFBE8B2BF
:102A800000F00CFB2B2000F0F7FA200A00F006FB08
:102A9000E0B200F003FB3444641EC4F30F2000F0E6
:102AA000FDFAE0B2BDE8F04100F0F8BA70B500F010
:102AB0007BFAFE49FE4D4FF6FF74C880A0F5134126
:102AC00041397DD0A0F5054152397AD12046FFF732
:102AD00003FECF2000F0D0FA002000F0DFFAC12082
:102AE00000F0DCFA302000F0D9FA2046FFF7F4FDC0
:102AF000ED2000F0C1FA642000F0D0FA032000F0CD
:102B0000CDFA122000F0CAFA812000F0C7FA204660
:102B1000FFF7E2FDE82000F0AFFA852000F0BEFAF2
:102B2000102000F0BBFA782000F0B8FA2046FFF73A
:102B3000D3FDCB2000F0A0FA392000F0AFFA2C2012
:102B400000F0ACFA002000F0A9FA342000F0A6FA58
:102B5000022000F0A3FA2046FFF7BEFDF72000F0A8
:102B60008BFA202000F09AFA2046FFF7B5FDEA2004
:102B700000F082FA002000F091FA002000F08EFAB6
:102B80002046FFF7A9FDC02000F076FA212000F0D2
:102B900085FA2046FFF7A0FDC12000F06DFA112054
:102BA00000F07CFAC52000F067FA2D2000F076FADC
:102BB000332000F073FA2046FFF78EFD362001E047
:102BC000A9E0F0E100F058FA002000F067FA204692
:102BD000FFF782FD3A2000F04FFA552000F05EFA30
:102BE0002046FFF779FDB12000F046FA002000F002
:102BF00055FA172000F052FA2046FFF76DFDB62077
:102C000000F03AFA0A2000F049FAA22000F046FA51
:102C1000F62000F031FA012000F040FA302000F0F8
:102C20003DFAF22000F028FA002000F037FA2620C2
:102C300000F022FA012000F031FA2046FFF74CFDA7
:102C4000E02000F019FAD02000F028FA002000F06F
:102C500025FA022000F022FA072000F01FFA0B20CC
:102C600000F01CFA1A2000F019FA312000F016FAD0
:102C7000542000F013FA402000F010FA292000F050
:102C80000DFA122000F00AFA122000F007FA1220C2
:102C900000F004FA172000F001FAE12000F0ECF94E
:102CA000D02000F0FBF9002000F0F8F9022000F03D
:102CB000F5F9072000F0F2F9052000F0EFF92520E2
:102CC00000F0ECF92D2000F0E9F9442000F0E6F9DD
:102CD000452000F0E3F91C2000F0E0F9182000F096
:102CE000DDF9162000F0DAF91C2000F0D7F91D20DC
:102CF00000F0D4F9112000F0BFF92846FFF7ECFCF2
:102D00002046FFF7E9FC292000F0B6F92C20BDE8A9
:102D1000704000F0B1B92046FFF7DEFCCF2000F094
:102D2000ABF9002000F0BAF9812000F0B7F93020AB
:102D300000F0B4F92046FFF7CFFCED2000F09CF93D
:102D4000642000F0ABF9032000F0A8F9122000F095
:102D5000A5F9812000F0A2F92046FFF7BDFCE8208C
:102D600000F08AF9852000F099F9102000F096F91A
:102D7000782000F093F92046FFF7AEFCCB2000F05E
:102D80007BF9392000F08AF92C2000F087F9002027
:102D900000F084F9342000F081F9062000F07EF97B
:102DA0002046FFF799FCF72000F066F9202000F09C
:102DB00075F92046FFF790FCEA2000F05DF900204D
:102DC00000F06CF9002000F069F92046FFF784FC60
:102DD000B12000F051F9002000F060F91B2000F054
:102DE0005DF92046FFF778FCB62000F045F90A208F
:102DF00000F054F9A22000F051F92046FFF76CFCD6
:102E0000C02000F039F9352000F048F92046FFF7DE
:102E100063FCC12000F030F9112000F03FF9C5201B
:102E200000F02AF9452000F039F9452000F036F984
:102E3000C72000F021F9A22000F030F9F22000F0C4
:102E40001BF9002000F02AF9262000F015F90120D6
:102E500000F024F92046FFF73FFCE02000F00CF9D9
:102E60000F2000F01BF9262000F018F9242000F0B4
:102E700015F90B2000F012F90E2000F00FF90920CF
:102E800000F00CF9542000F009F9A82000F006F930
:102E9000462000F003F90C2000F000F9172000F0A4
:102EA000FDF8092000F0FAF80F2003E028000020C8
:102EB000FCBF020000F0F2F8072000F0EFF800205D
:102EC00000F0ECF8E12000F0D7F8002000F0E6F880
:102ED000192000F0E3F81B2000F0E0F8042000F0D7
:102EE000DDF8102000F0DAF8072000F0D7F82A20EB
:102EF00000F0D4F8472000F0D1F8392000F0CEF8E7
:102F0000032000F0CBF8062000F0C8F8062000F0FF
:102F1000C5F8302000F0C2F8382000F0BFF80F20CC
:102F200000F0BCF82046FFF7D7FB362000F0A4F8ED
:102F3000C82000F0B3F82046FFF7CEFB2A2000F0AF
:102F40009BF8002000F0AAF8002000F0A7F800206D
:102F500000F0A4F8EF2000F0A1F82046FFF7BCFB3A
:102F60002B2000F089F8002000F098F8002000F0F5
:102F700095F8012000F092F83F2000F08FF82046ED
:102F8000FFF7AAFB3A2000F077F8552000F086F80A
:102F9000112000F071F82846FFF79EFB2046FFF74E
:102FA0009BFB2920B3E670BD70B5042000F064F8E7
:102FB00000F024F800F022F800F020F84FF6FF743B
:102FC00004EA002500F01AF82843A0F5054152391B
:102FD00012D0D32000F050F800F010F800F00EF8F6
:102FE00000F00CF804EA002400F008F82043A0F5F3
:102FF0001341413900D0002070BD000070B5104A67
:103000004FF088301060131D18600D4C00200C34F8
:1030100020600C49802008614020086110254D6126
:1030200020264E61181D00680E6180B20D614FF0C0
:103030003331116019604FF6FF71216070BD0000DF
:10304000000C01400010014001231A46FFF702BDA9
:1030500010B5084C628890420AD2A288914207D2E9
:10306000FFF7F2FF2189BDE810400120FFF71ABCED
:1030700010BD000028000020064910224A6180236C
:103080004B6120230B61044B1860402048610861AC
:103090000A617047001001400C0C014006491022E3
:1030A0004A6180230B6120230B61044B1860402090
:1030B000486108610A617047001001400C0C014032
:1030C000014A108151817047280000200149C860E1
:1030D0007047000028000020014908817047000067
:1030E0002800002038B50120FFF7ECFA4FF6FF74F6
:1030F0002046FFF7F1FF012000210090F0234FF45C
:10310000A0720846FFF79CFB21461F20FFF7D8FF5F
:103110004848FFF7DBFF00250521E6234FF49B72AB
:1031200008460095FFF78CFB0621E4234FF49A72C2
:1031300008460095FFF784FB42234FF49D752A460D
:1031400019460620FFF72EFB24232A46194606209F
:10315000FFF728FB24232A4619460620FFF722FB07
:103160006C22422306211046FFF71CFBD322422388
:1031700006211046FFF716FB1F212046FFF7A0FF90
:1031800021461F20FFF79CFF0B212BA20846FFF7CB
:10319000E1FA2AA20B215F20FFF7DCFA28A20B211B
:1031A0007120FFF7D7FA1423C82219469620FFF79B
:1031B000F9FA21464FF47840FFF782FF22A20B2153
:1031C000D820FFF7C7FA142340F22F121946FD202A
:1031D000FFF7E8FA21461F20FFF772FF1CA2292102
:1031E0000B20FFF7B7FA15A229215F20FFF7B2FAEB
:1031F00018A229217120FFF7ADFA17A22921BE20BC
:10320000FFF7A8FA15A22921D820FFF7A3FA14A2E4
:10321000292140F22510FFF79DFA21461F20FFF7D4
:103220004FFF21461F20FFF74BFFBDE838400D48F8
:10323000FFF74CBF18000020553A00005600000070
:103240004348313A000000004348323A0000000091
:10325000556D3A00543A00006D730000663A000064
:10326000487A0000200000203EB500211848009157
:103270000191164A02910260921582600125057340
:10328000017502244FF460220461C2614160FDF7C0
:1032900007FF08B1FDF702FE05200094CDE90150BB
:1032A00069460B48FDF7FEFD08B1FDF7F7FD032069
:1032B000CDE900040720029069460548FDF7F2FDBC
:1032C000002801D0FDF7EAFD3EBD000000240140CA
:1032D00070000020094808B5416941F001014161D1
:1032E0004069002200F00100009011460B20FEF71B
:1032F00013FCBDE808400B20FEF700BC00100240A4
:103300000D4808B5816941F010018161816901F0C2
:1033100010010091816941F020018161816901F012
:1033200020010091816941F004018161806900F010
:103330000400009008BD00000010024010B586B0E7
:1033400000241848009401940294039404944FF0CC
:103350008041059401604721C0E9011440F2E73142
:10336000C0E9031480218161FEF744FF08B1FDF735
:1033700095FD4FF48050009069460A48FEF7BAFF69
:1033800008B1FDF78BFD049404A906480594FEF7E7
:10339000F3FE08B1FDF782FD0248FEF775FF06B0A7
:1033A00010BD0000E40000200C4810B50A4901607F
:1033B0004FF4E1314160002181600C22C160C0E91D
:1033C00004128161C161FFF7C4F8002803D0BDE891
:1033D0001040FDF763BD10BD003801402C010020F6
:1033E000FEE70000054801228178022902D2491C2B
:1033F000817000E08270C2707047000048000020B9
:10340000FEE770477047FEF729BB30B595B028211D
:103410006846FCF7C0FE14210AA8FCF7BCFE182180
:103420000FA8FCF7B8FE01210804CDE90010002523
:10343000029502240491CDE907404FF4E010099071
:103440006846FEF7F3FC08B172B6FEE70AA90F2042
:1034500081E831004FF48060CDE90D0502210AA812
:10346000FEF702FC08B172B6FEE74FF4004011907F
:103470000F940FA8FEF782FB002801D072B6FEE77A
:1034800015B030BD704700000148FEF7A2BF000034
:10349000E4000020F0B502681C4B1D4D1D4E1E4F70
:1034A0001E4C4FF0804C984209D0A04207D0604596
:1034B00005D0A84203D0B04201D0B84204D122F0D6
:1034C000700E4A6842EA0E02984209D0A04207D024
:1034D000604505D0A84203D0B04201D0B84203D124
:1034E00022F44075CA682A434D6922F080022A43BB
:1034F00002608A68C2620A688262984201D0A04271
:1035000001D10969016301214161F0BD002C014035
:103510000004004000080040000C0040003401405E
:1035200010B5846842EA032224F47F440A4322430C
:10353000826010BD826822F070020A4342F00701E7
:103540008160704710B5036A046A24F001040462C4
:10355000846924F0F00444EA021423F00A020A43C6
:103560008461026210BD10B5036A046A24F010047D
:103570000462846923F0A00324F4704444EA023214
:1035800043EA01118261016210BD00002DE9F041A2
:10359000164C41F28831A068401CB0FBF1F201FBEF
:1035A0001200C821B0FBF1F2A06001FB120008B9C3
:1035B000012020800E4F4FF4005631463846FEF76A
:1035C00041FA002501280DD1A088401C80B2A080BE
:1035D000052808D331463846FEF734FA0128F9D0D9
:1035E000FFF700FFA580BDE8F08100003800002053
:1035F0000010014070B5044600680169E26821F4DA
:103600004051114301612169A06808436169084381
:103610002168CA6841F20C639A430243CA60206879
:103620004169A26921F44071114341611E4920683A
:10363000884202D1FEF7C4FB01E0FEF7B1FB00EBCC
:10364000C00101EB0012606864218000B2FBF0F35E
:10365000B3FBF1F36FF018067343B2FBF0F5B2FB66
:10366000F0F605EB8305322303EB0515B5FBF1F509
:10367000B6FBF1F605F0F00505EB0615B2FBF0F62A
:10368000B2FBF0F0B0FBF1F06FF01802504306EB24
:10369000800003EB0010B0FBF1F0216800F00F0098
:1036A0002844886070BD0000003801402DE9F041D9
:1036B000984617460E460446069D27E0681C25D00E
:1036C0002DB1FEF7C5F9A0EB0800A8421ED920686D
:1036D0000C3050E8001F21F4D07140E80012002A9D
:1036E000F5D12068143050E8001F21F0010140E8B6
:1036F0000012002AF5D1202084F8410084F842000D
:10370000002084F840000320BDE8F08120680068B4
:1037100036EA000004D00020B842CFD00020F3E702
:103720000120F9E7FEE700000FB4054B10B503A92F
:10373000044A029800F0FEF810BC5DF814FB00008B
:103740001D4300086C0000200FB4084B10B504A9FD
:1037500002AA039800F0EEF8044602A9002000F047
:1037600080FC204610BC5DF814FB0000634000089C
:103770000907090E002804DB00F1E02080F800149E
:10378000704700F00F0000F1E02080F8141D704732
:1037900002E008C8121F08C1002AFAD1704770471A
:1037A000002001E001C1121F002AFBD17047000078
:1037B0002DE9FF5F82B00021DDE90430020DDDF864
:1037C00040B0034318D044F61050A2F2FF324243F7
:1037D0001514119801281FD0A5EB0B00401C5FEABF
:1037E000000A4FF000064E4FDFF83891B0465046C1
:1037F00015D5CAF1000413E0119801244AA3012849
:1038000001D16FEA0B010298119AC0E90031C0E9B9
:10381000024206B0BDE8F09FCBF10000DFE70446AE
:103820000021404A491842EB0450CDE9001012E053
:10383000E00707D032463B4640464946FCF74CFD80
:103840008046894632463B4610461946FCF744FD01
:1038500006460F466410002CEAD1DDE90401DDE9DB
:103860000023BAF1000F06DAFCF736FD42464B465C
:10387000FCF732FD05E0FCF7A1FD42464B46FCF7A4
:103880009DFD04460E460022284BFDF717F803D88D
:103890004FF0FF30014607E00022254B204631461D
:1038A000FCF74DFFFCF7F2FF102409E0002C0ADBC7
:1038B0000A220023FCF77EFE039B30321A55641E59
:1038C00050EA0102F2D1641C039AC4F111031444BA
:1038D000119A012A03D0012208430DD10AE00843BE
:1038E00004D000204FF0110B119072E7A3EB0B05F1
:1038F0006D1E0DE05B4504DD4FF0000205F1010592
:1039000004E003DA4FF00002A5F10105002AECD033
:1039100002981199C0E90231C0E9004579E7000039
:10392000000014400000F03F300000000000F043B1
:103930000000E03F2DE9FF4F95B09B4689460646C3
:1039400000250FE2252877D100242746F84A0121D7
:10395000059400E0044316F8013F203B01FA03F010
:103960001042F7D130782A2811D06FF02F03307829
:10397000A0F13002092A16D8059A44F0020402EB9D
:10398000820203EB42021044761C0590EFE759F8DF
:10399000042B0592002A03DA504244F400540590A7
:1039A00044F00204761C30782E2816D116F8010F48
:1039B00044F004042A280DD06FF02F023078A0F1D3
:1039C0003003092B09D807EB870302EB4303C71821
:1039D000761CF3E759F8047B761C30786C280FD0FE
:1039E00006DC4C2817D068280DD06A2814D104E0D2
:1039F000742810D07A280FD10DE044F400140AE0A6
:103A000044F4801401E044F440147278824202D1FC
:103A100004F58014761C761C307866280BD013DCF5
:103A2000582877D009DC002875D04528F6D04628DC
:103A3000F4D047281AD19DE118E0632835D06428D6
:103A400079D0652812D195E1702873D008DC6728F9
:103A5000F1D069286FD06E280DD06F2806D1B5E05F
:103A600073282CD0752875D0782874D05A461799A9
:103A700090476D1C75E1C4F30250022809D0032859
:103A80000DD0D9F8001004280DD00D6009F10409FB
:103A900067E1D9F80010EA17C1E90052F6E7D9F852
:103AA00000100D80F2E70D70F0E719F8041B8DF897
:103AB000001000208DF80100EA46012003E059F8CB
:103AC00004AB4FF0FF3061074FF0000102D40DE06E
:103AD00008F101018846B9420FDA8045F8DB1AF88F
:103AE00008100029F4D108E008F10101884681425C
:103AF000FADB1AF808100029F6D105985B46A0EB0E
:103B0000080721463846179A00F094FA284400EB3B
:103B1000080507E04DE029E10DE01AF8010B5A46CF
:103B200017999047B8F10108F7D25B46214638460D
:103B3000179A13E142E00A220092C4F302524FF0B6
:103B4000000A022A08D059F804CB032A4FEAEC7184
:103B50000AD00DE029E02AE009F1070121F007026F
:103B6000F2E802C1914609E00FFA8CFC4FEAEC71D1
:103B7000042A03D14FFA8CFC4FEAEC71002907DAD2
:103B80000A460021DCF1000C61EB02012D2202E06B
:103B9000220504D52B228DF80420012203E0E20740
:103BA00001D02022F7E7904659E00A2102E01022D6
:103BB0000DE010214FF0000A00910BE010224FF0B1
:103BC000000A44F004040827009203E008224FF0A2
:103BD000000A0092C4F30252022A05D059F804CB1D
:103BE0000021032A08D009E009F1070121F00702AA
:103BF000F2E802C1914605E01FFA8CFC042A01D1CB
:103C00000CF0FF0C4FF00008220728D5702806D0D2
:103C1000009B83F0100353EA0A0305D00EE0402214
:103C20008DF80420012208E05CEA010206D030226F
:103C30008DF804208DF8050002229046009B83F049
:103C4000080353EA0A030AD15CEA010201D16207C0
:103C500005D530228DF804204FF001087F1E58282A
:103C600004D034A003900EA802900DE036A0F9E72E
:103C700053466046009AFCF79DFC84460398825C9C
:103C80000298401E029002705CEA0100F0D1029896
:103C900006A9081A00F1200A600702D524F480342E
:103CA00000E00127574502DDA7EB0A0000E00020F5
:103CB00000EB0A01009005984144401A0590E0038A
:103CC00006D45B462146179A059800F0B3F90544DF
:103CD000002706E001A85A46C05D179990476D1C61
:103CE0007F1C4745F6DBE0030CD55B462146179A5F
:103CF000059800F09FF9054404E030205A461799D2
:103D000090476D1C0099481E00900029F5DC08E0E2
:103D1000029802995A460078491C029117999047D7
:103D20006D1CBAF10001AAF1010AF1DC65E10000A5
:103D30000928010030313233343536373839616281
:103D40006364656600000000303132333435363745
:103D500038394142434445460000000000F058F91C
:103D60000544761C307800287FF4ECAD19B0284665
:103D7000BDE8F08F620700D4062709F1070222F0A0
:103D8000070CFCE80223E14603F000485FEA080C58
:103D900002D00FF2702C0DE05FEA045C02D50FF246
:103DA000682C07E05FEAC47C02D00FF2602C01E0CF
:103DB000AFF2700C4FF0FF3823F00043CDF850C045
:103DC00065280CD006DC452809D046281DD0472898
:103DD0003DD13DE0662818D067287ED138E000212B
:103DE000112F01DB112000E0781CCDE9000106A9AC
:103DF0000EA8FFF7DDFCDDE90F010E9A039100210B
:103E0000009207F1010A04914DE04FF00040009745
:103E1000CDE9011006A90EA8FFF7CAFCDDE90F02E3
:103E200003920E9B11990022DDF80CA000930492DE
:103E300011B9791C00EB010AB7EB0A0004D4C0F1F8
:103E4000FF3007F1010A0490AAEB0700019044E05B
:103E5000012F00DA01270021112F01DD112000E0E0
:103E60003846CDE9000106A90EA8FFF7A1FCDDE95F
:103E70000F010E9A0391002104910092BA46210786
:103E80000CD40399514500DA8A46BAF1010F05DDD9
:103E9000009AAAF10101515C302908D0B84202DA37
:103EA00010F1040F06DA0121CDE9011015E0AAF1A5
:103EB0000101E9E7002805DC049901440491AAEB1B
:103EC000000102E0411C514500DD8A460499401A78
:103ED000401C01904FF000400290200704D401984C
:103EE000504501DBCDF8048000208DF84F0002988A
:103EF0000DF14F07B0F1004F25D02B200E90029806
:103F00004FF0020800280CDA404202902D200E905B
:103F100007E00A210298FCF737FB3031029007F8DE
:103F2000011DB8F10001A8F10108F2DC0298002897
:103F3000EFD1791E0E980870307800F0200040F024
:103F4000450007F8020D12A8C01B00F107081498DD
:103F5000007800B1012000EB0A01019801EBE0714B
:103F600005984144401A401E0590E00306D45B4684
:103F70002146179A059800F05DF8054414980078DA
:103F800018B15A46179990476D1CE00324D55B463B
:103F90002146179A059800F04DF805441CE0049856
:103FA000002807DBDDE90301884203DD0098405C5F
:103FB000179901E0179930205A469047049805F167
:103FC0000105401C04900198401E019004D12E2050
:103FD0005A46179990476D1CBAF10001AAF1010ADF
:103FE000DDDC05E017F8010B5A46179990476D1C68
:103FF000B8F10001A8F10108F4DC5B462146179AEC
:104000000598ABE62D0000002B000000200000000A
:104010002DE9F041044600251E461746880404D4C5
:1040200005E039462020B0476D1C641EF9D52846AE
:10403000BDE8F0812DE9F041044600251E4690467A
:10404000C80301D5302700E02027880404D505E007
:1040500041463846B0476D1C641EF9D52846BDE878
:10406000F0810A68531C0B60107070472DE9F04115
:1040700000232B4A2B4918461E461C4601254FF4A7
:10408000937800BF52F835708F4207DD02EBC50709
:1040900057F8087C8F4201DCABB20FE002EBC5079A
:1040A000D7F804C08C4505DD57F8047C8F4201DC4D
:1040B000A8B202E06D1C4545E4DD5B1C5B1C43457A
:1040C000FCDD431C11E000BF02EBC3056F688F42AB
:1040D0000ADD55F8045C8D4206DC761C9DB2281A78
:1040E000204484B2B6B228465B1C4345ECDD0E4D3D
:1040F0000E4FDFF83C803046FCF7E6F906462046D6
:10410000FCF7E2F93146FCF7A9F82946FCF7A6F8D6
:104110003946FCF7A3F8C8F80800BDE8F0810000B4
:10412000100600203333733F00007A440000C8417A
:10413000480000202DE9F843DFF8B88100246E4ED6
:1041400098F80200DFF8B4914FF6FF754FF4FC6762
:10415000012870D002287CD129460846FEF7B0FF1E
:104160001B23642208216E200094FEF769FB294678
:104170003846FEF7A5FF1B2364220821D4200094B3
:10418000FEF75EFB5E48FEF7A1FF29461F20FEF703
:1041900097FF4446D8F81000FCF7BCF900223346DC
:1041A000FCF70CF902460B4656A108F11800FFF780
:1041B000CBFA08F118020B212820FEF7CBFA606930
:1041C000FCF7A8F900223346FCF7F8F802460B4644
:1041D0004CA108F11800FFF7B7FA08F118022921DD
:1041E0002820FEF7B7FAA068FCF794F902460B46C0
:1041F00046A108F11800FFF7A7FA08F118022921D3
:104200008C20FEF7A7FAA068FCF784F902460B465B
:1042100000204946FCF7D2F8024636480B463DA13D
:104220001830FFF791FABDE8F843324A29211832D5
:10423000F020FEF78FBA29463846FEF741FF1B23D0
:10424000642208216E200094FEF7FAFA29460846F7
:1042500000E04DE0FEF734FF1B2364220821D42048
:104260000094FEF7EDFA2648FEF730FF29461F209E
:10427000FEF726FFD8F80400FCF74CF9002233467D
:10428000FCF79CF802461B480B461EA11830FFF7AE
:104290005BFA184A0B2118322820FEF75BFAD8F88F
:1042A0000C00FCF737F900223346FCF787F802468A
:1042B00010480B4613A11830FFF746FA0D4A292182
:1042C00018322820FEF746FAD8F80800FCF722F941
:1042D000024608480B460DA11830FFF735FA054A8B
:1042E000292118328C20FEF735FAD8F808008BE720
:1042F000BDE8F88348000020008041400000F03F06
:1043000018000020252E346600000000252E33669C
:1043100000000000252E32660000000013B54FF6A5
:10432000FF73012269460248FEF77EF900981CBD22
:104330002C01002000B585B0002001900290039070
:104340000848816941F0100181618069694600F087
:10435000100004904FF4005000900348FDF776FAE7
:1043600005B000BD0010024000100140FDF77EFBCB
:10437000FFF74BF8FEF7C4FFFEF7ACFFFEF7DEFFDA
:10438000FFF712F8FEF770FFFEF754FBFFF7D2FFBE
:1043900017480088A0F51341413904D0A0F5054124
:1043A000523902D004E0052000E00020FEF7ECFACC
:1043B000FEF798FE0FA0FFF7B7F94FF47A7000F000
:1043C00023F80F4D0F4C00262878012802D12E70BB
:1043D000FFF7DCF820880128F6D12680FCF7A2FB45
:1043E000FCF71EFCFFF7A6FEFCF75CFBECE7000009
:1043F0002E000020696E6974206F6B0D0A000000AA
:10440000040000203A0000203EB51B4C2060FDF760
:10441000C1FC2168B0FBF1F41848FDF73AF81748E1
:10442000FDF70CF802250120641E0095CDE901047A
:1044300069461248FCF736FD08B1FCF72FFD032052
:10444000CDE90005694602940C48FCF72BFD08B144
:10445000FCF724FD0A48016821F03F010160016872
:10446000214301600548FCF783FF40F24E220549D5
:104470000248FCF7F7FE3EBD00000020700000205F
:104480001024014074010020010202030405060704
:1044900008090A0B0C0D0E0F1010000000000000A0
:1044A00000000102030406070809000000000102E1
:1044B00003040000000000000000000000000000F5
:1044C0000000000000181818181818080008180034
:1044D000000000000034242424000000000000003C
:1044E00000000000000016247F2424247E242400E1
:1044F0000000000000083E6848681C1612127C107C
:10450000100000000061D296740810162949C600F8
:104510000000000000003C646438724ACE467F0010
:10452000000000000018181818000000000000002B
:10453000000000000004081810303030301010184F
:104540000C04000000201008080C0404040C0818D7
:104550001020000000080A341C6A08000000000057
:1045600000000000000000001818187F181818003C
:104570000000000000000000000000000018180803
:1045800030000000000000000000003C00000000BF
:1045900000000000000000000000000000181800EB
:1045A00000000000000206040C0808101020204043
:1045B0000000000000003C6642475B7342663C001E
:1045C00000000000000018784808080808087E006D
:1045D0000000000000003C460606040810207E0093
:1045E0000000000000007C0606043C0202067C007D
:1045F0000000000000000C1C14246444FF040400AC
:104600000000000000007E6060607E0202067C0008
:104610000000000000001E306048764242623C000C
:104620000000000000007E0206040C081810300094
:104630000000000000003C6242361C6642423C0022
:104640000000000000003C664242661A0204780046
:1046500000000000000000001818000000181800FA
:1046600000000000000000001818000000181808E2
:10467000300000000000000004183060100C06003C
:10468000000000000000000000007E007E0000002E
:104690000000000000000000301804060C1020008C
:1046A0000000000000301C06060618100010100064
:1046B00000000000001C224141DDB5A5A5AF94C05B
:1046C000403C00000000181C342426627E43C100D8
:1046D0000000000000007C4642467C4242427C00D2
:1046E0000000000000001E204040404040603E00AE
:1046F0000000000000007C464243434342467800ED
:104700000000000000007E6060607E6060607E00EF
:104710000000000000007E6060607E6060606000FD
:104720000000000000001E604040CE4242623E0099
:10473000000000000000424242427E4242424200EB
:104740000000000000007E181818181818187E00C5
:104750000000000000007C04040404040444780009
:104760000000000000004244485070584C44420091
:1047700000000000000020202020202020203E00FB
:104780000000000000006266675F5B5BC1C1C100A2
:10479000000000000000626272525A4A4E46460013
:1047A0000000000000003C6243C3C3C343623C00FE
:1047B0000000000000007C46424246784040400035
:1047C0000000000000003C6243C3C3C343623C18C6
:1047D0000F00000000007C6662667C6C646662000C
:1047E0000000000000003E6040601C0602027C00E9
:1047F0000000000000007F1818181818181818007A
:1048000000000000000042424242424242623C003C
:10481000000000000000C14342622624341C18003E
:10482000000000000000C1C141495B5B7666660084
:1048300000000000000043663418181C2466C30002
:10484000000000000000C14266341C18181818004F
:104850000000000000007E02040C181020607E00A2
:1048600000000000001C101010101010101010108C
:10487000101C000000402020101008080C04060244
:1048800000000000003C0C0C0C0C0C0C0C0C0C0C74
:104890000C3C00000000181C246200000000000016
:1048A0000000000000000000000000000000000008
:1048B00000FF0000002010000000000000000000C9
:1048C00000000000000000003C06023E42467A0064
:1048D00000000000004040405C62424242427C00D6
:1048E00000000000000000001E20604060203E002C
:1048F00000000000000202023E62424242663A00AC
:1049000000000000000000003C62427E40603E006B
:1049100000000000000F1810107E10101010100082
:1049200000000000000000003F66426658403E4321
:10493000423C0000004040405C6242424242420031
:1049400000000000001818007808080808087E0019
:104950000000000000040C007C04040404040404AF
:104960000C78000000606060626C787068646200BF
:1049700000000000007808080808080808087E0001
:104980000000000000000000764B4B4B4B4B4B00EF
:1049900000000000000000005C624242424242000F
:1049A00000000000000000003C62424342623C0004
:1049B00000000000000000005C62424242427C4075
:1049C00040400000000000003E62424242663A025F
:1049D00002020000000000006E7263606060600010
:1049E00000000000000000003E20203C06027C0089
:1049F0000000000000001010FE10101010101E002B
:104A000000000000000000004242424242663A00BC
:104A10000000000000000000434266243418180023
:104A20000000000000000000C1C15B5A5E66660025
:104A3000000000000000000062261C181C26620016
:104A4000000000000000000043426624341C1818D7
:104A500030E00000000000007E060C1810207E00F0
:104A600000000000000E1810101030701010101010
:104A7000180E0000080808080808080808080808B0
:104A8000080800000030180808080C0E080808087C
:104A900018300000000000000000714B060000000C
:104AA0000000000000000000000000000000000006
:104AB00000000000000000000000000000000000F6
:104AC00000000000000000000000000000000000E6
:104AD00000000000000000000000000003800180D2
:104AE00001800180018001800180018001800180BE
:104AF0000000000003C003C0000000000000000030
:104B00000000000000000000000000000E700E70A9
:104B10000E700C30000000000000000000000000DB
:104B20000000000000000000000000000000000085
:104B30000000000000000000000000000000061857
:104B4000063806307FFE0C300C300C300C307FFE07
:104B50000C601C601860186000000000000000007D
:104B60000000000000000000000000C000C00FF8BE
:104B70003CC831C031803D801F8003F001F8031C28
:104B8000030C031C3FF83FE0070006000000000094
:104B9000000000000000000000001C007E0E630CFE
:104BA000631863307E6000C001800300077C0EE65E
:104BB0001CC618C630C6607C000000000000000063
:104BC0000000000000000000000000000FE01CF0EA
:104BD000387038701C601FC00F003F8C71CC60ECC7
:104BE000607C70383CFC1FCE00000000000000001C
:104BF00000000000000000000000000003C0018071
:104C000001800180000000000000000000000000A2
:104C10000000000000000000000000000000000094
:104C200000000000000000000000003000E001C0B3
:104C3000018003000700060006000E000E000E00B3
:104C40000E00060007000300038001C000E00030F2
:104C5000000000000000000000000C0006000380BF
:104C6000018001C000E00060006000700070007012
:104C70000060006000E000C00180038006000C00BE
:104C8000000000000000000000000000018011880A
:104C90001DB803C007E03DBC018801800000000092
:104CA0000000000000000000000000000000000004
:104CB00000000000000000000000000000000000F4
:104CC0000000018001800180018001807FFE018061
:104CD0000180018001800000000000000000000051
:104CE00000000000000000000000000000000000C4
:104CF00000000000000000000000000000000000B4
:104D0000000003C003C001C001C003801F000000F9
:104D10000000000000000000000000000000000093
:104D20000000000000000000000000000FF0000084
:104D30000000000000000000000000000000000073
:104D40000000000000000000000000000000000063
:104D50000000000000000000000000000000000053
:104D6000000003C003C003C00000000000000000FA
:104D700000000000000000000000000000180038E3
:104D80000030006000E000C001C0018003000300AB
:104D900006000E000C001C0018003000000000008F
:104DA00000000000000000000000000001800FF083
:104DB0001C38381C301C707E70EE738E7E0E7C0C9E
:104DC000300C381C1E780FE00000000000000000CE
:104DD000000000000000000000000000000007C00C
:104DE0001FC039C001C001C001C001C001C001C065
:104DF00001C001C03FFC3FFC0000000000000000BB
:104E000000000000000000000000000003801FF010
:104E100018380038001800380038007001E00380AE
:104E200007001C003FFC3FFC0000000000000000E9
:104E300000000000000000000000000007801FF0DC
:104E4000003800380038003007E007F00038001C58
:104E5000001C001820F83FE00000000000000000E7
:104E6000000000000000000000000000000000F052
:104E700001B0033007300E301C30383070307FFE08
:104E80007FFE003000300030000000000000000015
:104E900000000000000000000000000000001FF8FB
:104EA00018001800180018001FE000F8001C001C73
:104EB000001C003800F01FC00000000000000000CF
:104EC000000000000000000000000000000003F8E7
:104ED0000F001C001800300037F83C3C300C300C40
:104EE000380C381C1E380FF00000000000000000D5
:104EF00000000000000000000000000000003FFC77
:104F0000001C001800380070006000E001C0018043
:104F10000380070006000E000000000000000000F3
:104F200000000000000000000000000003C01FF8A7
:104F3000381C381C381C1C380FF007F01C78381C43
:104F4000300C381C3C380FF000000000000000005E
:104F500000000000000000000000000003801FF0BF
:104F60003838301C701C700C380C1FFC0FCC001C27
:104F7000001800701FE01F8000000000000000000B
:104F80000000000000000000000000000000000021
:104F90000000000003C003C001800000000000000A
:104FA000000003C003C003C00000000000000000B8
:104FB00000000000000000000000000000000000F1
:104FC0000000000003C003C00180000000000000DA
:104FD000000003C003C001C001C003800F00000037
:104FE00000000000000000000000000000000000C1
:104FF0000000003800F001C007001E0038000E005D
:10500000078001C0007000300000000000000000B8
:105010000000000000000000000000000000000090
:1050200000000000000000003FFC000000003FFC0A
:105030003FFC000000000000000000000000000035
:105040000000000000000000000000000000000060
:1050500000001C000F00038001E00078001C0070BD
:1050600001E003800E000C000000000000000000C2
:105070000000000000000000000000000FC000F071
:10508000003800380038003803F0038003000300C4
:105090000000000007800780000000000000000002
:1050A0000000000000000000000000E007F80C0C09
:1050B00018063006700363F36633C673CC63CC62A4
:1050C000CC66CCE6C7FCE0006000700038101FF032
:1050D000000000000000000000000000000003C00D
:1050E00007E006E00E700E700C301C3818183FFCFC
:1050F0003FFC700E600EE0070000000000000000A2
:1051000000000000000000000000000000003FF070
:105110003838381C381C38383FF03FF8381C380C09
:10512000380C381C3FF83FE0000000000000000091
:1051300000000000000000000000000000E007FC8C
:105140001E0438003800300070007000700030001D
:1051500038003C001F9C07FC00000000000000001D
:1051600000000000000000000000000000003FF010
:105170003078301C300C300E300E300E300E300EC9
:10518000301C30383FF03FC000000000000000003D
:1051900000000000000000000000000000001FF8F8
:1051A00018001800180018001FF81FF81800180041
:1051B000180018001FF81FF8000000000000000091
:1051C00000000000000000000000000000001FF8C8
:1051D00018001800180018001FF81FF81800180011
:1051E000180018001800180000000000000000005F
:1051F00000000000000000000000000000F007FCBC
:105200001E04380030007000700070FC700C700CD0
:10521000300C380C1F1C07FC0000000000000000D0
:105220000000000000000000000000000000300C42
:10523000300C300C300C300C3FFC3FFC300C300C90
:10524000300C300C300C300C00000000000000006E
:1052500000000000000000000000000000003FFC13
:105260000180018001800180018001800180018036
:10527000018001803FFC3FFC0000000000000000B6
:1052800000000000000000000000000000001FF00F
:10529000003000300030003000300030003000308E
:1052A000003000701DE01FC0000000000000000082
:1052B0000000000000000000000000000000381C9A
:1052C000387038E039C03B803F003F003B8039C038
:1052D00038E038703838381C00000000000000004A
:1052E00000000000000000000000000000001C00A2
:1052F0001C001C001C001C001C001C001C001C00CE
:105300001C001C001FFC1FFC00000000000000002F
:105310000000000000000000000000000000381C39
:105320007C3C6C3E6E6E666E66CE63C6638661863E
:1053300060066006600660060000000000000000D5
:1053400000000000000000000000000000003C0C15
:105350003C0C3E0C360C330C338C318C31CC30ECA5
:10536000306C307C303C301C00000000000000003D
:1053700000000000000000000000000001C00FF865
:105380001C3C381C700E700E60066006700E700EAD
:10539000700C381C1E780FE00000000000000000B8
:1053A00000000000000000000000000000003FF0CE
:1053B000383C381C380C380C381C38783FE0380042
:1053C00038003800380038000000000000000000FD
:1053D00000000000000000000000000001C00FF805
:1053E0001C3C381C700E700E60066006700E700E4D
:1053F000700C381C1E780FE0018001C000FF003CDB
:1054000000000000000000000000000000003FF06D
:10541000383838183818383838F03FC038E0387025
:1054200038383838381C380E000000000000000002
:1054300000000000000000000000000001E00FF884
:105440003800380038003C001F8003F00078001C52
:10545000001C001C38783FE0000000000000000045
:1054600000000000000000000000000000007FFEBF
:105470000180018001800180018001800180018024
:105480000180018001800180000000000000000018
:105490000000000000000000000000000000300CD0
:1054A000300C300C300C300C300C300C300C300C1C
:1054B000300C381C1C380FF0000000000000000009
:1054C0000000000000000000000000000000E006F6
:1054D000700E700E381C381C1C181C380C300E70E6
:1054E000066007E003C003C00000000000000000E9
:1054F0000000000000000000000000000000600646
:105500006006600660066186638673C673CE766C3D
:10551000366C3C3C3C3C381C0000000000000000A5
:105520000000000000000000000000000000301C2F
:1055300038181C380E7007E003C003C007E00E7077
:105540001C381838381C700E0000000000000000E5
:105550000000000000000000000000000000700ECD
:10556000700C381C1C380E70066007E003C0018008
:105570000180018001800180000000000000000027
:1055800000000000000000000000000000003FFCE0
:10559000001C0038007000E001C0038007000E000E
:1055A0000C0018003FFC3FFC000000000000000061
:1055B0000000000000000000000007F007F00600F7
:1055C00006000600060006000600060006000600AB
:1055D000060006000600060006000600060007F0AA
:1055E00000000000000000000000000018001C0087
:1055F0000C000600070003000380018001C000C00A
:1056000000600070003000380018000C000000003E
:10561000000000000000000000000FE00FE000604C
:10562000006000600060006000600060006000607A
:1056300000600060006000600060006000600FE0DB
:10564000000000000000000000000000000003C097
:1056500006C006600C301818301C00000000000066
:10566000000000000000000000000000000000003A
:10567000000000000000000000000000000000002A
:10568000000000000000000000000000000000001A
:105690000000000000000000000000000000FFFF0C
:1056A0000000000000000000000000001E00038059
:1056B00000000000000000000000000000000000EA
:1056C00000000000000000000000000000000000DA
:1056D00000000000000000000000000000000000CA
:1056E000000000001FF01038001C001C0FFC1C1CE8
:1056F000381C381C3CFC1FDC0000000000000000CF
:105700000000000000000000000000003800380029
:10571000380038003BF83E1C3C1C380C380C380C68
:10572000380C381C3C781FE000000000000000002E
:105730000000000000000000000000000000000069
:105740000000000007F80E001C0038003800380088
:1057500038001C000F1807F80000000000000000CF
:10576000000000000000000000000000001C001C01
:10577000001C001C0FFC1C1C381C301C301C301C76
:10578000301C383C1CFC0F9C000000000000000096
:105790000000000000000000000000000000000009
:1057A000000000000FF01C38381C300C3FFC3000AB
:1057B000300038001E0C07FC000000000000000054
:1057C00000000000000000000000003C01FE03801B
:1057D0000300030003007FFC7FFC030003000300C1
:1057E00003000300030003000000000000000000AD
:1057F00000000000000000000000000000000000A9
:10580000000000000FFE1C383818381818381FF038
:105810003B8030003FF01FFC300E700E381C1FF82C
:105820000000000000000000000000003800380008
:10583000380038003BF83E383C1C381C381C381CFB
:10584000381C381C381C381C000000000000000008
:1058500000000000000000000000018003C003C041
:10586000000000001FC001C001C001C001C001C094
:1058700001C001C001C03FFC0000000000000000AA
:105880000000000000000000000000200070007018
:10589000000000003FF000700070007000700070A9
:1058A00000700070007000700070007020E03FC059
:1058B00000000000000000000000000018001800B8
:1058C00018001800183C187018E01B801F001B807F
:1058D00019E018701838181C0000000000000000C3
:1058E0000000000000000000000000001FC001C018
:1058F00001C001C001C001C001C001C001C001C0A0
:1059000001C001C001C03FFC000000000000000019
:105910000000000000000000000000000000000087
:10592000000000006F3C79EE71CE718E718E718E29
:10593000718E718E718E718E00000000000000006B
:105940000000000000000000000000000000000057
:10595000000000003BF83E383C1C381C381C381C4A
:10596000381C381C381C381C0000000000000000E7
:105970000000000000000000000000000000000027
:10598000000000000FF01C3C381C700E700E700EF2
:10599000700C381C1E780FE00000000000000000B2
:1059A00000000000000000000000000000000000F7
:1059B000000000003BF83E1C3C1C380C380C380C36
:1059C000380C381C3C783FE038003800380038008C
:1059D00000000000000000000000000000000000C7
:1059E000000000000FFC1C1C381C301C301C301C3C
:1059F000301C383C1CFC0F9C001C001C001C001CB4
:105A00000000000000000000000000000000000096
:105A10000000000019F81F1C1C0C180E18001800BC
:105A20001800180018001800000000000000000016
:105A30000000000000000000000000000000000066
:105A4000000000000FF81C0018001E000FC001F835
:105A50000018001818381FF00000000000000000B7
:105A60000000000000000000000000000000060030
:105A7000060006007FFC0600060006000600060081
:105A800006000700078401FC000000000000000081
:105A90000000000000000000000000000000000006
:105AA00000000000381C381C381C381C381C381CFE
:105AB000381C383C1CFC0FDC00000000000000001B
:105AC00000000000000000000000000000000000D6
:105AD00000000000700C381C38181C380C300E7098
