:020000040800F2
:1000000048060020010100083B2900087320000871
:1000100039290008BD020008253200080000000050
:10002000000000000000000000000000C1290008DE
:1000300007030008000000003D2900085D2A0008B1
:100040001B0100081B0100081B0100081B01000820
:100050001B0100081B0100081B0100081B01000810
:100060001B0100081B0100081B010008C102000859
:100070001B0100081B0100081B0100081B010008F0
:100080001B0100081B0100086D0100081B0100088E
:100090001B0100081B0100081B0100081B010008D0
:1000A0001B0100081B0100081B0100081B010008C0
:1000B000DD2A0008E92A00081B0100081B010008CE
:1000C0001B0100081B0100081B0100081B010008A0
:1000D0001B0100081B0100081B0100081B01000890
:1000E0001B0100081B0100081B010008DFF80CD0F1
:1000F00000F02AF800480047CD33000848060020E9
:100100000648804706480047FEE7FEE7FEE7FEE7B1
:10011000FEE7FEE7FEE7FEE7FEE7FEE7DB2A000874
:10012000ED000008D2B201E000F8012B491EFBD21D
:1001300070470022F6E710B513460A4604461946F2
:10014000FFF7F0FF204610BD064C074D06E0E068C3
:1001500040F0010394E8070098471034AC42F6D30E
:10016000FFF7C8FF644B0008844B0008014800F00B
:1001700036BB0000EC00002070B5044600688168C2
:10018000C943C90717D1816821F00101816001F0DD
:1001900009F805460AE000BF01F004F8401B0228F8
:1001A00004D920688068C043C00706D020688068F2
:1001B000C043C007F0D0002070BDA06A40F010001E
:1001C000A062E06A40F00100E062012070BD10B55D
:1001D0000146406A826A12F0500F05D0006A026B35
:1001E000BDE8104008461047816A41F40071816201
:1001F00001688968C1F3424107290CD1017B51B9DB
:10020000816A21F480718162816AC90403D4816AA0
:1002100041F00101816200F0DFFA10BD10B5406AC3
:10022000816A41F040018162C16A41F00401C1620A
:1002300000F0D4FA10BD10B5406A00F0CEFA10BD3F
:10024000F8B500260446009600688168C943C907CE
:100250002DD0816841F0010181601648164900687F
:10026000B0FBF1F000E0401E00900028FBD100F050
:1002700099FF054616E000BF00F094FF401B0228DE
:1002800010D920688068C043C0070BD0A06A40F036
:100290001000A062E06A40F00100E06284F824608F
:1002A0000120F8BD20688068C043C007E4D1002069
:1002B000F8BD00000C00002040420F00FEE70000E7
:1002C000014800F0C1BC00001C01002001A002F0A8
:1002D000ABBF00006F6B200A0000000030B590F843
:1002E00040500124AC40C56B6C6004686360436897
:1002F000102B036803D099600068C26030BD9A601B
:100300000068C16030BD70472DE9F0439846DDE9D3
:10031000075491460E46074601F0E4FE23462A465E
:100320004146484601F0DEFE33463A46214628461D
:10033000BDE8F04301F0D6BEFEB50C2522A0CDE904
:10034000000500244FF6E0773B461F221621029459
:100350000A2002F037FB012621A08DE861003B4610
:100360001F2222210A2002F02DFB23A0CDE9000547
:100370003B461F222F2102940A2002F023FB102566
:1003800023A0CDE900053B461F223C2102940A2010
:1003900002F018FB22A08DE861003B461F224C2191
:1003A0000A2002F00FFB22A0CDE900053B461F22E8
:1003B0005C2102940A2002F005FBBDE8FE404FF4E8
:1003C000966000F0DBBD0000365831323A6162635E
:1003D0006465666768303132333435363700000083
:1003E000365831323A41424344454647483031322B
:1003F0003334353637000000365831323A7E2140EA
:100400002324255E262A28295F2B7B7D3A000000C5
:10041000385831363A6162636465303132333400C2
:10042000385831363A414243444530313233340052
:10043000385831363A7E21402324255E262A282941
:100440000000000072B6FEE72DE9F04F88B01D46AF
:100450001446DDE911324FF0000BCDF804B0A9428B
:1004600005D90E462946354606462046344696B2FC
:10047000B54204D92A4635469EB223463446A9429F
:1004800005D90E46294635460646204634461FFA0B
:1004900082F80E46414518D10246844201D22046D8
:1004A00001E000D9224699B2814201D2084602E019
:1004B000914200D90A4637493346098800911946C6
:1004C00001F086FE08B0BDE8F08F211A0791A91B44
:1004D0000691814699B2A1EB09000290A8EB0600B3
:1004E0000390081B0490A8EB05000590454501D139
:1004F000AA4602E0681E1FFA80FA374620E00698F6
:10050000039A9BFBF0F101EB09000199079B91FB1A
:10051000F2F202EB09018AB29B44DDE9011380B2D9
:1005200019440191904202D9014610460A461949E0
:100530003B4609880091194601F04AFE7F1CBFB274
:100540005745DCD90499781B00FB01FA0298BD1BC2
:1005500045431CE00599049B9AFBF1F00399204464
:1005600095FBF1F202EB09018AB2029980B29A443A
:100570000D44904202D9014610460A4605493B46C1
:1005800009880091194601F023FE7F1CBFB2474540
:10059000E0D997E71000002010B5144601F0AAFF3B
:1005A0002046BDE8104002F0ADB8000070B5154619
:1005B00001F1270293B200F1270292B201F09EFFEF
:1005C00000244FF4C86600BF05EB440115F8140081
:1005D000497840EA012002F095F8641CB442F3DB4C
:1005E000064841880088491E401EBDE870408BB215
:1005F00082B20021084601F081BF000038020020CD
:10060000F8B500250446009590F8240001280BD089
:10061000012084F824002046FFF7AEFD2046FFF7B6
:100620000FFE060002D050E00220F8BDA06A20F4C0
:10063000885040F00200A062022000F049FE2549E7
:100640000968B1FBF0F0400000E0401E0090002877
:10065000FBD12068816841F00801816000F0A2FDB3
:10066000074608E000F09EFDC01B0A2803D9206859
:100670008068000715D4206880680007F2D42068DD
:10068000816841F00401816000F08CFD074612E0B2
:1006900000F088FDC01B0A280DD92068806840073B
:1006A00009D5A06A20F0020040F01000A06284F892
:1006B00024500120F8BD206880684007E8D4A06A73
:1006C00020F0020040F00100A06284F8245030467F
:1006D000F8BD00000C00002070470000F8B50024B1
:1006E000009490F824202546012A12D0012280F897
:1006F00024204A681F23072A0DD20668776B521EF2
:1007000002EB820293409F430B6893401F43776341
:1007100019E00220F8BD06680D2A0AD2376BD21FF5
:1007200002EB820293409F430B6893401F43376361
:1007300009E0F76A0D3A02EB820293409F430B688F
:1007400093401F43F7620A68072306680A2A0AD300
:10075000F7680A3A02EB420293409F438B6893404A
:100760001F43F76008E0376902EB420293409F4362
:100770008B6893401F4337610A68102A01D0112A01
:1007800020D1124B02689A4217D193681B0219D4E8
:10079000936843F4000393600968102912D10C494F
:1007A0000C4A0968B1FBF2F101EB8101490000E05C
:1007B000491E00910029FBD104E0816A41F020012B
:1007C0008162012480F824502046F8BD00240140B5
:1007D0000C00002040420F0070477047704770B512
:1007E0000446006806684568A90625D5B10723D5E3
:1007F000A16AC90603D4A16A41F40071A1628168AB
:10080000C1F34241072910D1217B71B9416821F020
:1008100020014160A06A20F48070A062A06AC00438
:1008200003D4A06A40F00100A0622046FFF7D4FF85
:1008300021686FF01200086028062ED570072CD5AD
:10084000A06AC00603D4A06A40F40050A0622068E9
:100850008168C1F30231072909D04168490515D4DF
:100860008168C1F34241072910D1217B71B94168E8
:1008700021F080014160A06A20F48050A062A06A4B
:10088000C00503D4A06A40F00100A0622046FFF733
:1008900023FF21686FF00C00086068060CD5F00794
:1008A0000AD0A06A40F48030A062204600F096F89A
:1008B00021686FF00100086070BD00002DE9F04173
:1008C00004004FF000057FD0A06A002628B9E66238
:1008D00084F82460204600F083F82046FFF74CFCA3
:1008E000A16AC90600D420B1A06A40F01000A0623D
:1008F0006AE0A16A21F4885141F00201A162334902
:1009000023688B42E16904D1B1F5402F01D14FF446
:100910000021277B4FF4807C41EA470261680A434B
:10092000A168614508D0012906D0002194F814E09F
:10093000BEF1010F02D00AE06146F7E7C7B1A76A2E
:1009400047F02007A762E76A47F00107E7625F68A0
:1009500027F469470F435F60236899681C4F39404B
:1009600011439960A16861450BD0012909D00CE0C1
:10097000DFF860E0A7690EEB47370F4347F40061EB
:10098000E5E7218A0D05A5F580152168CB6A23F4DA
:1009900070032B43CB62216889680F4B1940914249
:1009A00008D1E662A16A21F0020141F00101A162D1
:1009B000BDE8F081A06A20F0020040F01000A062C3
:1009C000E06A40F00100E0620120F1E7003C0140F4
:1009D000FDF7E1FF00E0FFFFFE0E1FFF7047000084
:1009E00070B586B0002506460095019502950395E1
:1009F00000681D49884235D11C49886940F400705F
:100A00008861886900F400700490886940F00400EF
:100A100088618869694600F0040004900320009012
:100A20000190134800F0BCFA134C1248C4E90005C9
:100A30008020C4E9025040002061800060612020D5
:100A4000C4E90605204600F023FA08B1FFF7FAFCD6
:100A50003462002211461220666200F007FC122068
:100A600000F0F6FB06B070BD00240140001002400B
:100A700000080140080002401C01002070B5044637
:100A800090F8240001280DD0012084F8240020468D
:100A9000FFF7D6FB02004FF0000005D084F82400D9
:100AA000104670BD022070BDA16A40F20123994337
:100AB00041F48071A1621F4D23681F49AB4218D1D8
:100AC0000E6816F4702F14D0A66A46F48016A6623B
:100AD0000E68760505D5A66A26F4005646F48056BB
:100AE000A662A66AF6040AD5E66A26F00606E6625B
:100AF00006E0A66A26F48016A6625E68E9E7E06270
:100B000084F824006FF00200186020688368C3F343
:100B10004243072B05D1A84208D1096811F4702F70
:100B200004D0816841F480118160B9E7816841F4A3
:100B3000A001F9E700280140042401402DE9F04715
:100B4000894604463B4900683B4F0E1D904688424B
:100B500001D0B84207D1306810F4702F03D00125BE
:100B60002846BDE8F08794F8240001280CD0012025
:100B700084F824002046FFF763FB05004FF00000D7
:100B800004D084F82400EBE70220EAE7A16A40F6EB
:100B90000162914341F48071A1622168B94218D188
:100BA000326812F4702F14D0A16A41F48011A1624E
:100BB0003168490505D5A16A21F4005141F48051FD
:100BC000A162A16AC9040AD5E16A21F00601E162C5
:100BD00006E0A26A22F48012A2624968E9E7E062B4
:100BE00084F82400216A15488862216A1448C86282
:100BF000216A1448086321686FF0020008602068C9
:100C0000816841F480718160216843464A464C31D5
:100C1000206A00F07BF920688168C1F3424107290E
:100C2000816803D041F48011816099E741F4A0010B
:100C3000FAE700000024014000280140CF0100082D
:100C4000370200081D0200082DE9F05FC16B0A6839
:100C500001680B68046C4FF0040808FA04F8844D2E
:100C6000844E854FDFF814C2DFF81492DFF814A227
:100C7000DFF814B2DFF814E218EA020F65D05FEA79
:100C8000437862D50A68920603D40A6822F0040207
:100C90000A60DFF8F0814FF48062016808F11408FF
:100CA00013011402414524D9A9420DD0B1420FD0FD
:100CB000B9421AD0614515D0494515D0514501D1E9
:100CC000120312E0594501D104220EE0714501D111
:100CD00040220AE06D4D1435A94206D06B4A2832F5
:100CE000914201D11A4600E022466749091F0A6075
:100CF00029E0A94213D0B14215D0B94220D06145B4
:100D00001BD049451BD0514502D14FF4800217E05A
:100D1000414502D14FF0806212E0594501D10422D1
:100D20000EE0714501D140220AE0584D1435A94228
:100D300006D0564A2832914201D11A4600E0224696
:100D40004B4908394A60C16A71E04FF0020808FA5D
:100D500004F818EA020F70D05FEA83786DD50A684C
:100D6000920606D40A6822F00A020A60012180F87D
:100D70002110DFF810814FF40072016808F11408A7
:100D800013011402414524D9A9420DD0B1420FD01C
:100D9000B9421AD0614515D0494515D0514501D108
:100DA000120312E0594501D102220EE0714501D132
:100DB00020220AE0354D1435A94206D0334A2832A4
:100DC000914201D11A4600E022462F49091F0A60CC
:100DD00029E0A94213D0B14215D0B94220D06145D3
:100DE0001BD049451BD0514502D14FF4001217E0EA
:100DF000414502D14FF0007212E0594501D1022263
:100E00000EE0714501D120220AE0204D1435A9429F
:100E100006D01E4A2832914201D11A4600E02246ED
:100E2000134908394A60002180F82010816A00299E
:100E30001CD0BDE8F05F0847FFE70825A540154234
:100E400014D01A0712D50A6822F00E020A6090F830
:100E50004020C36B012101FA02F25A60816380F8DD
:100E60002110002180F82010016BE0E7BDE8F09F21
:100E7000080002401C0002403000024044000240D2
:100E8000580002406C000240080402401C0402406A
:100E900030B560B11A4B026814219A4209D2194B3D
:100EA0001344B3FBF1F18900016417490AE0012002
:100EB00030BD134B5B421344B3FBF1F18900016475
:100EC0000F490839C163022180F82110136843F6E5
:100ED000F0718B43F0E901142143D0E902452C4322
:100EE000214304692143446921438469214319430F
:100EF000116000214163012242770177084630BD2D
:100F000008040240F8FFFDBF0000024070B504462F
:100F100090F82000002501280CD0012084F8200042
:100F200094F821600020012E06D084F820000225CC
:100F3000284670BD022070BD022684F82160A0639F
:100F40002068066826F0010606602046FFF7C6F90D
:100F5000E06A00282068016802D041F00E0106E036
:100F600021F0040101602068016841F00A0101607C
:100F70002068016841F001010160D9E770B50446BD
:100F800000F010F90546601C02D0044800780444C3
:100F900000F008F9401BA042FAD370BD0000002009
:100FA0002DE9F84FDFF8C8910024A9F1040B23467E
:100FB0000F2709F1040AABF1040ED1E00125A54089
:100FC00006EA0502AA4276D1DFF8A8C14E68A6EB70
:100FD0000C0866452BD00DDC032E34D005DC36B36F
:100FE000012E19D0022E2FD11BE0112E16D0122E59
:100FF0002AD119E0B8F5881F19D006DCB8F5803F72
:1010000015D0B8F5801F1FD111E0B8F5001F0ED024
:10101000B8F5041F18D10AE0CB6815E0CB681B1D9A
:1010200012E0CB6808330FE0CB680C330CE08B6820
:101030002BB1012B4FF0080303D0456104E00423DA
:1010400002E0056100E00023FF2A01D8064601E026
:1010500000F104064FEA840501D9A5F12005D6F870
:10106000008007FA05FC28EA0C0803FA05F548EAAF
:101070000508C6F800804D68ED0070D53E4DAE699C
:1010800046F00106AE61AD6924F0030605F00105E6
:1010900000953A4D06EB050CDCF80850A607360F14
:1010A00007FA06F825EA0805DFF8D480404503D1A1
:1010B0004FF0000825E052E0DFF8C880404502D13B
:1010C0004FF001081DE0DFF8C080404502D14FF02D
:1010D000020816E0DFF8B480404502D14FF0030863
:1010E0000FE0DFF8AC80404502D14FF0040808E083
:1010F000DFF8A080404502D14FF0050801E04FF035
:10110000060808FA06F848EA0508CCF808804D6891
:10111000D9F80060ED024D4601D5164300E0964334
:101120002E604D68DAF80060AD02554601D51643D1
:1011300000E096432E604D68DBF80060AD035D462D
:1011400001D5164300E096432E604D68DEF800603E
:10115000ED03754601D5164300E096432E60641CEE
:101160000A681646E2407FF429AFBDE8F88F000018
:10117000080401400000111000100240000001406E
:1011800000080140000C0140001001400014014023
:1011900000180140001C01400AB1016170470904B8
:1011A000FBE7000001488068704700000000002055
:1011B0000248816802781144816070470000002075
:1011C000074810B5016841F010010160032000F0EC
:1011D0006DF80F2000F006F800F024F8002010BD94
:1011E0000020024070B50D4D04464FF47A71287806
:1011F000B1FBF0F00A490968B1FBF0F000F0A6FB82
:1012000048B9102C07D200222146501E00F02EF8BB
:1012100000206C6070BD012070BD00000000002047
:101220000C000020094808B5816941F00101816185
:10123000816901F001010091C16941F08051C161F2
:10124000C06900F08050009008BD0000001002400E
:10125000002809DB00F01F020121914040098000B5
:1012600000F1E020C0F8001170470000F0B40E4B10
:101270001B680C46C3F30223C3F10705042D00D9F4
:101280000425191D072901D2002300E0DB1E0126D9
:1012900006FA05F1491E214099409E40761E1640EF
:1012A0003143F0BC01F0C8BF0CED00E0064900F08E
:1012B000070208684FF6FF03184040EA0220034A7D
:1012C00010430860704700000CED00E00000FA05D4
:1012D00010B501460020284C04292FD00BDC012931
:1012E00030D0022929D100F06BF96168C1F3813156
:1012F000491C49001FE0082920D010291DD1616830
:101300002268D20119D51D48C1F38342C903805C0C
:101310000AD56168194AC1F34041921E515C184ACE
:10132000B2FBF1F1484301E01649484361684902C4
:1013300003D440000321B0FBF1F010BDBDE8104024
:1013400000F04EB9226AC2F30121012903D19207AC
:1013500001D5C80310BD022905D1626A920702D5E2
:1013600049F6404010BD0329FCD121688903F9D515
:101370004FF2244010BD0000001002405834000815
:1013800000127A0000093D002DE9F8430546007877
:10139000354CC00754D0E0690026C00008D4E0698D
:1013A00040F08050E061E069012600F0805000903C
:1013B0002E480168C90512D40168804641F4807145
:1013C0000160FFF7EFFE074605E000BFFFF7EAFE0A
:1013D000C01B642823D8D8F80000C005F6D5206AC1
:1013E00010F4407021D0A98801F4407181421CD0D2
:1013F000206A1F49012220F440700A6000220A601E
:101400002062C00711D0FFF7CDFE074641F28838B1
:1014100008E000BFFFF7C6FEC11B414502D903200B
:10142000BDE8F883206A8007F4D5206A696820F453
:101430004070084320621EB1E06920F08050E061F6
:101440002878800705D56068A96820F440400843E3
:1014500060602878C00605D56068696920F480005E
:10146000084360600020DBE700100240007000408D
:10147000400442422DE9F0470F46050061D0434E3B
:10148000306800F00700B84209D2306820F0070049
:1014900038433060306800F00700B84251D1286806
:1014A0003B4C810712D5400703D5606840F4E060EB
:1014B00060602878000703D5606840F46050606081
:1014C0006068A96820F0F000084360602878C007D1
:1014D00028D06868012810D02168022810D0890718
:1014E00000292EDA616821F0030101436160FFF7F2
:1014F00059FE804641F288390DE021688903EFE703
:101500008901EDE7FFF74EFEA0EB0801494502D93E
:101510000320BDE8F0876068696800F00C00B0EB5C
:10152000810FEFD1306800F00700B8420BD9306866
:1015300020F0070038433060306800F00700B84200
:1015400001D00120E5E72878400705D56068E96803
:1015500020F4E060084360602878000706D56068E2
:10156000296920F4605040EAC100606000F038F85A
:101570006168084AC1F30311515CC840064908601C
:1015800006480068FFF72EFE0020C2E70020024058
:1015900000100240683400080C0000200400002005
:1015A0000448054900684968044AC1F30221515CB6
:1015B000C84070470C00002000100240783400083A
:1015C0000448054900684968044AC1F3C221515CD6
:1015D000C84070470C00002000100240783400081A
:1015E0000E4A51680E4801F00C03042B11D0082B51
:1015F0000FD10C48C1F38343C903C05C0AD55168BD
:10160000084AC1F34041921E515C054A5043B0FB69
:10161000F1F0704704494843704700000010024051
:1016200000127A004634000800093D002DE9F84F09
:10163000040070D02078C04DC00749D06868C0F35E
:101640008100012807D06868C0F38100022809D111
:101650006868C00306D52868800339D5606800280B
:10166000E7D035E06068B0F5803F0BD010B1B0F541
:10167000A02F11D0286820F480302860286820F43A
:10168000802002E0286840F480302860606890B1D3
:10169000FFF788FD06460AE0286840F480202860AD
:1016A000F0E700BFFFF77EFD801B642873D8286831
:1016B0008003F7D50CE0FFF775FD064605E000BF97
:1016C000FFF770FD801B6428F0D828688003F7D4EA
:1016D00020789A4E80074FF001094FF0000839D565
:1016E000686810F00C0F07D06868C0F3810002280A
:1016F00009D16868C00306D42868800714D520691A
:10170000012808D110E02069B0B1C6F80090FFF7B9
:1017100049FD074605E00AE1FFF744FDC01B02282A
:10172000C4D828688007F7D52868616920F0F800D8
:1017300040EAC10028600DE0C6F80080FFF732FDE6
:10174000074604E0FFF72EFDC01B022823D82868B7
:101750008007F7D4207800072CD57948A169D9B142
:10176000C0F80090FFF71EFD074604E0FFF71AFDE2
:10177000C01B02280FD8686A8007F7D571484FF45C
:10178000FA510068B0FBF1F0009000BF0098411ED4
:101790000091FAD20EE080E0C0F80080FFF702FD71
:1017A000074604E0FFF7FEFCC01B022875D8686AF4
:1017B0008007F7D42078400760D5E8690027C0008B
:1017C00008D4E86940F08050E861E869012700F03A
:1017D000805000905C480168C90513D401688346B5
:1017E00041F480710160FFF7DDFC824606E000BF36
:1017F000FFF7D8FCA0EB0A0064284ED8DBF8000005
:10180000C005F5D5E06801280AD008B1052813D035
:10181000286A20F001002862286A20F0040002E013
:10182000286A40F001002862E06841F2883B98B1E4
:10183000FFF7B8FC82460BE0286A40F004002862FB
:10184000EEE700BFFFF7AEFCA0EB0A0159455AD8FE
:10185000286A8007F6D50CE0FFF7A4FC824605E075
:10186000FFF7A0FCA0EB0A0159454CD8286A800775
:10187000F6D41FB1E86920F08050E861E06988B3D0
:101880006968C1F38101022944D00228C6F860804A
:1018900004D0FFF787FC044638E034E0FFF782FC11
:1018A000074604E0FFF77EFCC01B02282BD82868FF
:1018B0008001F7D4206AB0F5803F05D16868A1683F
:1018C00020F4003008436860D4E9080108436968DF
:1018D00021F4741108436860C6F86090FFF762FC59
:1018E000044606E025E000BFFFF75CFC001B022871
:1018F00009D828688001F7D51BE000BFFFF752FC2C
:10190000001B022802D90320BDE8F88F2868800157
:10191000F4D40EE00128F7D06868226A00F4803120
:10192000914204D1616A00F47010884201D0012014
:10193000EAE70020E8E70000001002400000424211
:10194000800442420C0000200070004010B5401E90
:10195000B0F1807F01D3012010BD4FF0E024606121
:101960000F21601701F068FC0020A06107202061B2
:10197000002010BD7047704770B590F83C20012AD8
:101980002CD0012480F83C40022280F83D200368DE
:101990005A689D6822F070060A6832435A60104BFC
:1019A00002689A420ED00F4B9A420BD0B2F1804F90
:1019B00008D00D4B9A4205D00C4B9A4202D00C4BEA
:1019C0009A4204D1496825F080031943916080F858
:1019D0003D40002180F83C10084670BD022070BDDB
:1019E000002C014000340140000400400008004089
:1019F000000C004010B5040003D094F83D0010B175
:101A000007E0012010BD002084F83C00204600F0D3
:101A10001FF8022084F83D00211D206801F06AF8BB
:101A2000012084F8460084F83E0084F83F0084F8E2
:101A3000400084F8410084F8420084F8430084F8B0
:101A4000440084F8450084F83D00002010BD0000EB
:101A500008B501681448B1F1804F14D0134A91427F
:101A600020D1C16941F00201C161C069002200F0CA
:101A70000200009011461D20FFF7F8FB1D20BDE875
:101A80000840FFF7E5BBC16941F00101C161C069D0
:101A9000002200F00100009011461C20FFF7E6FB39
:101AA0001C20ECE708BD00000010024000040040CC
:101AB00070B5044690F83C000025012817D0012697
:101AC00084F83C60022084F83D002068826822F09F
:101AD000770222F47F4282600868502838D00DDCFB
:101AE00020284FD005DC90B3102811D14AE0022005
:101AF00070BD302846D040280AD13BE060282FD066
:101B000070280DD0B0F5805F03D0B0F5005F12D023
:101B1000012584F83D60002084F83C00284670BD13
:101B2000CB68D1E90121206801F037F8206881688D
:101B300041F0770109E0CB68D1E90121206801F08B
:101B40002CF82068816841F480418160E1E719E068
:101B5000CA684968206801F0F5F85021206806E05D
:101B6000CA684968206801F0FEF86021206801F029
:101B70001EF8CEE7CA684968206801F0E3F8402102
:101B80002068F4E7226801461046F0E7704770B518
:101B90000446006801694FF00005C943890715D460
:101BA000C168C943890711D4E91E0161012020776A
:101BB000206880698007204602D0FFF7E7FF04E035
:101BC00000F098F8204600F02AF92577206801698E
:101BD000C943490717D4C168C943490713D46FF0F3
:101BE00004010161022020772068806910F4407FA1
:101BF000204602D0FFF7CAFF04E000F07BF8204641
:101C000000F00DF9257720680169C943090716D44A
:101C1000C168C943090712D46FF0080101610420AB
:101C200020772068C0698007204602D0FFF7AEFF0A
:101C300004E000F05FF8204600F0F1F82577206816
:101C40000169C943C90617D4C168C943C90613D479
:101C50006FF010010161082020772068C06910F43E
:101C6000407F204602D0FFF791FF04E000F042F8E9
:101C7000204600F0D4F8257720680169C943C907D8
:101C800008D1C168C943C90704D1891E0161204632
:101C900000F036F920680169C943090609D4C16812
:101CA000C943090605D46FF0800101612046FFF7A2
:101CB00061FE20680169C943490609D4C168C94366
:101CC000490605D46FF040010161204600F019F982
:101CD00020680169C94389060BD4C168C9438906D4
:101CE00007D46FF0200101612046BDE87040FFF786
:101CF00042BE70BD704770B5044690F83C000026A7
:101D00000D4601280FD0012084F83C006AB1042A56
:101D10001DD0082A2FD00C2A3FD00126002084F89D
:101D20003C00304670BD022070BD206800F048FFC6
:101D30002068816941F0080181612068816921F092
:101D400004018161206881692A69114311E02068DA
:101D500000F066FF2068816941F4006181612068BC
:101D6000816921F480618161206881692A6941EA81
:101D700002218161D2E7206800F088FF2068C169F4
:101D800041F00801C1612068C16921F00401C1610D
:101D90002068C1692A69114311E0206800F0AAFF98
:101DA0002068C16941F40061C1612068C16921F402
:101DB0008061C1612068C1692A6941EA0221C1616B
:101DC000ACE710B5040003D094F83D0010B107E073
:101DD000012010BD002084F83C00204600F01EF8D1
:101DE000022084F83D00211D206800F083FE0120C0
:101DF00084F8460084F83E0084F83F0084F84000F0
:101E000084F8410084F8420084F8430084F84400D8
:101E100084F8450084F83D00002010BD70477047ED
:101E200030B500250446022249B1042912D0082900
:101E300046D094F8410001284DD0012030BD94F8DF
:101E40003E000128F9D184F83E202068C26842F0A3
:101E5000020209E094F83F000128EED184F83F2007
:101E60002068C26842F00402C2600122206800F0CB
:101E700087FE1E4920681E4A884201D0904203D145
:101E8000436C43F400434364206888420DD0904281
:101E90000BD0B0F1804F08D01649884205D01649C2
:101EA000884202D01549884204D1816801F00701B7
:101EB000062903D0016841F001010160284630BDC8
:101EC00094F840000128B8D184F840202068C26806
:101ED00042F00802C8E784F841200C2901D001250E
:101EE000ECE72068C26842F01002BDE7002C014018
:101EF000003401400004004000080040000C004095
:101F00007047704770B5040004D094F84100002574
:101F100010B106E0012070BD84F84050204600F06A
:101F200023F8242084F841002068C16821F400517E
:101F3000C160204601F0DEF82068016921F490417B
:101F400001612068416921F02A0141612068C1686E
:101F500041F40051C1606564202084F8410084F898
:101F600042006563002070BD30B585B00024009448
:101F700001940294039400681449884224D11448BF
:101F8000816941F480418161816901F4804104915A
:101F9000816941F00401816180690E4D00F0040007
:101FA00004904FF4007000900220019003200390F1
:101FB00069462846FEF7F4FF2815CDE90004694676
:101FC00028460294FEF7ECFF05B030BD0038014012
:101FD00000100240000801402DE9F843044690F843
:101FE00041001F4616460D46202802D00220BDE8BB
:101FF000F8837DB176B100206064212084F841002F
:10200000FFF7D0F8A6848046E684A068B0F5805F2C
:1020100002D003E00120EAE7206910B12E46002536
:102020000EE000260CE08021204601F0BFF8A0B9A8
:10203000AEB116F8010B21684860E08C401EE084C8
:10204000E08C43464FF0000200970028EBD14FF0A0
:102050004001204601F0AAF830B10320C7E735F867
:10206000020BC0F30800E6E7202084F841000020BE
:10207000BDE7FEE72DE9F043134C8146002160885F
:10208000401E83B22088401E82B2084600F036FA15
:102090000E484FF480570760A0F104082021C8F8CB
:1020A0000010002609E0002503E0484600F02AFB66
:1020B0006D1C2088A842F8D8761C6088B042F2D8FF
:1020C000C8F80070BDE8F08338020020140C01400D
:1020D00018B5034C2488009400F07AF818BD00006D
:1020E000100000202DE9FE4F161ACDE900104FF028
:1020F00000085D1A47464FF0FF30002E02DD4FF01A
:10210000010102E003D14FF000018B4602E083465B
:10211000C6F10006002D02DD4FF0010002E003D100
:102120004FF00000824602E08246C5F10005AE4253
:1021300001DD344600E02C46601C4FF0000902909F
:1021400018E0009881B2019880B200F019F8B0440C
:102150002F44A04504DD0198A8EB040858440190E1
:10216000A74203DD00983F1B5044009009F1010095
:102170001FFA80F902998945E3DDBDE8FE8F000072
:1021800000B500F0B7F9034800885DF804EB00F0F3
:10219000B9BA000010000020F0B51C4615460E46E6
:1021A00007460B46FFF79EFF3A4623463146104648
:1021B000FFF798FF23462A4619463846FFF792FF55
:1021C0002A4623463146BDE8F0401046FFF78ABF55
:1021D0002DE9F041141A641CA6B25C1A641CA7B263
:1021E000DDF8188000F08AF900250AE0002404E0F8
:1021F000404600F087FA641CA4B2B442F8D36D1CC8
:10220000ADB2BD42F2D3064841880088491EBDE800
:10221000F041401E8BB282B20021084600F06EB938
:1022200038020020174810B5816986B041F00801D6
:102230008161816901F008010491816941F0040123
:1022400081618069104C00F0040004904FF220007E
:102250000090032003900120019069462046FEF77C
:102260009FFEA015009069460848FEF799FE0020E1
:1022700001904FF48040009069462046FEF790FEA2
:1022800006B010BD00100240000C014000080140E3
:1022900010B5FFF7C7FF00F01BF9112000F0ECF9B3
:1022A0007820FEF76BFEB12000F0E6F9012000F087
:1022B000D3F92C2000F0D0F92D2000F0CDF9B22078
:1022C00000F0DAF9012000F0C7F92C2000F0C4F981
:1022D0002D2000F0C1F9B32000F0CEF9012000F06C
:1022E000BBF92C2000F0B8F92D2000F0B5F9012041
:1022F00000F0B2F92C2000F0AFF92D2000F0ACF97D
:10230000B42000F0B9F9072000F0A6F9C02000F0D1
:10231000B3F9A22000F0A0F9022000F09DF984207A
:1023200000F09AF9C12000F0A7F9C52000F094F957
:10233000C22000F0A1F90A2000F08EF9002000F080
:102340008BF9C32000F098F98A2000F085F92A2043
:1023500000F082F9C42000F08FF98A2000F07CF9A7
:10236000EE2000F079F9C52000F086F90E2000F08B
:1023700073F9362000F080F9C02000F06DF9E020FC
:1023800000F07AF90F2000F067F91A2000F064F9E4
:102390000F2000F061F9182000F05EF92F2000F006
:1023A0005BF9282000F058F9202000F055F9222090
:1023B00000F052F91F2000F04FF91B2000F04CF9FB
:1023C000232000F049F9372000F046F9002000F002
:1023D00043F9072000F040F9022000F03DF91020F9
:1023E00000F03AF9E12000F047F90F2000F034F94D
:1023F0001B2000F031F90F2000F02EF9172000F01B
:102400002BF9332000F028F92C2000F025F92920A1
:1024100000F022F92E2000F01FF9302000F01CF906
:10242000302000F019F9392000F016F93F2000F0B3
:1024300013F9002000F010F9072000F00DF9032037
:1024400000F00AF9102000F007F92A2000F014F932
:10245000002000F001F9002000F0FEF8002000F05C
:10246000FBF87F2000F0F8F82B2000F005F90020A1
:1024700000F0F2F8002000F0EFF8002000F0ECF897
:102480009F2000F0E9F8F02000F0F6F8012000F0BD
:10249000E3F8F62000F0F0F8002000F0DDF83A2034
:1024A00000F0EAF8052000F0D7F8292000F0E4F861
:1024B000012000F001F9012211020448FEF76CFE30
:1024C000BDE810404FF6FF70FFF7D4BD0008014093
:1024D00010B507484FF4804404606420FEF74EFDB9
:1024E0000348001F0460BDE810403220FEF746BDDF
:1024F000140C01400B460246AFF300802DE9F04179
:10250000134C0746984615460E46A07A00F0B4F8DC
:10251000002000F0A1F8F8B200F09EF8002000F0D2
:102520009BF8E8B200F098F8207B00F0A5F80020B6
:1025300000F092F8F0B200F08FF8002000F08CF874
:1025400008F0FF0000F088F8BDE8F04100F0A4B802
:10255000380200202DE9FF4F81B08A460EA9DFF82E
:10256000E89091E83100203800F0FF080AEB040001
:10257000401E83B20198B9F800B000EB5400401E31
:1025800082B251460198FFF7B9FF002D4FF00005C8
:1025900048D12E4808EB480100EB810A2C4800EB9B
:1025A000081817E00C2C03D018F8057000260CE072
:1025B0001AF80570FAE7F80701D0039800E00498CC
:1025C00000F0A0F87F08761CF6B2B6EB540FF2D3F9
:1025D0006D1CEDB2A542E5D326E00C2C08D01C49B9
:1025E00001EB08100026475D0AEB0500009014E09F
:1025F000164808EB480100EB8100F3E70398A9F8BF
:102600000000F80706D0009881B20198304480B2EB
:10261000FFF7B6FD7F08761CF6B2B6EB540FEDD38C
:102620006D1CEDB2A542D8D30A48A9F800B0418884
:10263000008805B0491EBDE8F04F401E8BB282B243
:1026400000210846FFF75ABF100000208034000820
:10265000F43800083802002030B506494FF48054A1
:102660000C60044D20212D1F296000F093F92C608F
:1026700030BD0000140C014010B506494FF48054E1
:102680000C6020220A6000F085F90248001F0460F7
:1026900010BD0000140C01400148007AFFF7ECBFA8
:1026A0003802002010B50C46FFF7E6FFE0B2BDE8A7
:1026B0001040FFF7D1BF000011492A224A812B2286
:1026C0008A812C220A818222A02358B101280DD0B0
:1026D00002280FD0032811D10B804A8060213620B8
:1026E000FFF7E0BF0A804B80C021F8E70B804A80EB
:1026F000A021F4E70A804B800021F0E7704700003A
:102700003802002070B5044607484FF48055056034
:10271000054E2020361F3060200A00F03BF9E0B261
:1027200000F038F9356070BD140C0140FEB500248E
:10273000164800940194144902940160891581603F
:1027400004730475022505614FF4C0214460C16122
:10275000FEF7B4F808B1FDF775FE0126CDE9004695
:1027600069460A480294FDF7B9FF08B1FDF76AFE11
:10277000CDE9006569460548FDF7B0FF002801D0A6
:10278000FDF760FEFEBD000000240140EC000020CB
:10279000094808B5416941F00101416140690022E1
:1027A00000F00100009011460B20FEF75FFDBDE830
:1027B00008400B20FEF74CBD001002400D4808B544
:1027C000816941F010018161816901F0100100917E
:1027D000816941F020018161816901F0200100914E
:1027E000816941F004018161806900F0040000907A
:1027F00008BD00000010024010B58EB00024079400
:10280000089409940A940B941C2168460C94FDF7D3
:1028100090FC1F484FF08041016041F61F41C0E924
:10282000011442F20F71C0E9031480218161FFF7A6
:10283000E1F808B1FDF706FE4FF48050079007A9B4
:102840001348FFF735F908B1FDF7FCFD1048FFF715
:10285000B8FA08B1FDF7F6FD5020CDE90B040BA93D
:102860000B48FFF789F808B1FDF7ECFD60200090F8
:1028700041F28830CDE901040422694604480494F9
:10288000FFF739FA002801D0FDF7DCFD0EB010BDCE
:102890006001002010B586B000241848009401940F
:1028A00002940394049414490594016041F61F4175
:1028B000C0E9011442F20F71C0E903148021816163
:1028C000FFF798F808B1FDF7BDFD4FF48050009078
:1028D00069460A48FFF7ECF808B1FDF7B3FD202080
:1028E000CDE9040404A90548FFF746F8002801D003
:1028F000FDF7A8FD06B010BD00040040A8010020AF
:102900000C4810B50A4901604FF4E13141600021E3
:1029100081600C22C160C0E904128161C161FFF7CE
:10292000F1FA002803D0BDE81040FDF78BBD10BDC3
:1029300000380140F0010020FEE7FEE7704700008C
:102940000EB54FF6FF7000900F4841880288143989
:102950008BB214210020FFF73BFC0C4A1E211420EF
:10296000FDF724FE0122102109A08DE807004FF693
:10297000E0731F224B21202000F024F8BDE80E4018
:102980004FF49660FEF7FABA38020020E43E0008E1
:102990005151000070B5094B08210C031D1D8A021E
:1029A000060601D51C6000E02C602A601A60400613
:1029B000000E491E11F0FF01F2D170BD100C014054
:1029C000704700002DE9FF4F83B00446DDE9106534
:1029D00081469B46884600201F4FDDF848A00DE049
:1029E00060B93888A0EB5500A0420ADB7888401B0C
:1029F000404506DB3078802806D90120317800294F
:102A0000EED107B0BDE8F08F0D280DD0102D12D9F2
:102A100010228DE805045B4641462046059AFFF7E3
:102A200099FD0834A4B211E008EB05001FFA80F804
:102A30004C46761C0AE08DE821045B464146204660
:102A4000059AFFF787FD04EB550084B216F8011FC5
:102A50000029C6D1D5E7000038020020FEF7A8BB48
:102A600030B595B028216846FDF763FB14210AA80C
:102A7000FDF75FFB18210FA8FDF75BFB01210804A0
:102A8000CDE900100025029502240491CDE907400C
:102A90004FF4E01009906846FEF7C8FD08B172B621
:102AA000FEE70AA90F2081E831004FF48060CDE9EC
:102AB0000D0502210AA8FEF7DDFC08B172B6FEE79B
:102AC0004FF4004011900F940FA8FEF75DFC002812
:102AD00001D072B6FEE715B030BD70470148FFF770
:102AE00056B80000600100200148FFF750B8000010
:102AF000A8010020F0B502681C4B1D4D1D4E1E4F55
:102B00001E4C4FF0804C984209D0A04207D060453F
:102B100005D0A84203D0B04201D0B84204D122F07F
:102B2000700E4A6842EA0E02984209D0A04207D0CD
:102B3000604505D0A84203D0B04201D0B84203D1CD
:102B400022F44075CA682A434D6922F080022A4364
:102B500002608A68C2620A688262984201D0A0421A
:102B600001D10969016301214161F0BD002C0140DF
:102B70000004004000080040000C00400034014008
:102B800010B501F01F030121046A99408C430462CF
:102B9000016A9A401143016210BD10B5846842EA8F
:102BA000032224F47F440A432243826010BD8268DA
:102BB00022F070020A4342F0070181607047000072
:102BC000F0B5036A026A22F0010202624268846977
:102BD000124E24F073050C682C4323F002058B6819
:102BE0002B430D4DA84201D0B04205D123F0080778
:102BF000CB683B4323F00403A84201D0B04205D187
:102C00004D6922F4407215438A692A434260846107
:102C1000496841630362F0BD002C0140003401406B
:102C2000F0B5026A036A23F0100303624368846903
:102C30000D6824F4E64444EA05248D6822F020025D
:102C400042EA05120F4D104EA84201D0B04206D103
:102C5000CF6822F0800242EA071222F04002A84226
:102C600001D0B04207D14D6923F4406343EA8503A4
:102C70008D6943EA85034360846149688163026228
:102C8000F0BD0000002C014000340140F0B5026AA4
:102C9000036A23F4807303624368C46922F40072F8
:102CA00024F073050C68124E2C438D6842EA05220D
:102CB0000E4DA84201D0B04206D1CF6822F4006286
:102CC00042EA072222F48062A84201D0B04207D132
:102CD0004D6923F4405343EA05138D6943EA051314
:102CE0004360C4614968C1630262F0BD002C0140C9
:102CF0000034014030B5046A026A22F48052026254
:102D00004268C3690D6823F4E64343EA05238D68EE
:102D100024F4005444EA0534084DA84202D0084D7A
:102D2000A84204D14D6922F4804242EA85124260F1
:102D3000C36149680164046230BD0000002C014099
:102D40000034014010B5036A046A24F001040462EF
:102D5000846924F0F00444EA021423F00A020A43CE
:102D60008461026210BD10B5036A046A24F0100485
:102D70000462846923F0A00324F4704444EA02321C
:102D800043EA01118261016210BD00002DE9F843A0
:102D90002B4D4FF6FF77009768880024143883B2D4
:102DA0002A8814212046FFF713FA264EA04600BFBA
:102DB000CDF8008004EB8400698800EBC40000EBD0
:102DC00051012A88C4EB041000EB520036F814209D
:102DD0000F232838193900F0B7FA641CE4B2052C27
:102DE000E6D340F2DC584046FEF7C8F80097688802
:102DF0002A88143883B214210020FFF7E9F900244F
:102E00005FF00107009704EB8400698800EBC400C1
:102E100000EB51012A88C4EB041000EB520036F895
:102E200014200F232838193900F08EFA641CE4B2FC
:102E3000052CE7D34046BDE8F843FEF79FB80000F5
:102E400038020020140000202DE9FE434FF6FF70E9
:102E50002E4C00900021638822880846FFF7B8F9BD
:102E600010262BA0CDE9000601254FF6E078434659
:102E70001F221E2102951420FFF7A4FD4FF448796C
:102E80004846FEF77BF84FF47847009700216388A7
:102E900022880846FFF79CF91FA0CDE900064346AB
:102EA0001F221E2102951420FFF78CFD4846FEF7D5
:102EB00065F84FF4FC600090002163882288084682
:102EC000FFF786F916A0CDE9000643461F221E2112
:102ED00002951420FFF776FD4846FEF74FF81F20B5
:102EE00000900021638822880846FFF771F90EA040
:102EF000CDE9000643463A461E2102951420FFF70D
:102F000061FD4846BDE8FE43FEF738B838020020B0
:102F1000424C205465737400524544200000000068
:102F2000475245454E200000424C554520000000C8
:102F30002DE9F843304D4FF6FF78CDF800806888D2
:102F40000024143883B22A8814212046FFF740F960
:102F50002A4E2B4F36F81400388004EB8400698821
:102F600000EBC40000EB5101A1F10A0083B22888F4
:102F70002839400800EB0410A0F10A02283892B268
:102F800089B280B2FFF708F9641CE4B2052CE1D3E2
:102F900040F2DC594846FDF7F1FFCDF80080688823
:102FA0002A88143883B214210020FFF711F9002475
:102FB00036F81400388004EB8400698800EBC40004
:102FC00000EB5101A1F10A0083B22888283940089A
:102FD00000EB0410A0F10A02283892B289B280B244
:102FE000FFF776F8641CE4B2052CE1D34846BDE84F
:102FF000F843FDF7C3BF0000380200201400002092
:10300000100000202DE9FC47374D4FF6FF78CDF832
:10301000008068880024143883B22A88142120464E
:10302000FFF7D6F8314E324F36F81400388004EBF3
:103030004400698800EBC40000EB5102A2F10C00CF
:1030400081B22B88C4EB041000EB5300A0F10B0CF1
:103050001FFA8CF3CDE90031273A93B2A0F11A029E
:10306000283892B280B2FDF74FF9641CE4B2052C07
:10307000DAD340F2DC594846FDF780FFCDF80080F6
:1030800068882A88143883B214210020FFF7A0F83A
:103090005FF0000436F81400388004EB44006988BF
:1030A00000EBC40000EB5102A2F10C0081B22B88AE
:1030B000C4EB041000EB5300A0F10B039BB2CDE96D
:1030C0000031273A93B2A0F11A02283892B280B2A6
:1030D000FDF7BAF9641CE4B2052CDBD34846BDE821
:1030E000FC47FDF74BBF0000380200201400002011
:1030F0001000002070B5044600680169E26821F400
:103100004051114301612169A06808436169084386
:103110002168CA6841F20C639A430243CA6020687E
:103120004169A26921F44071114341611E4920683F
:10313000884202D1FEF744FA01E0FEF731FA00EBD3
:10314000C00101EB0012606864218000B2FBF0F363
:10315000B3FBF1F36FF018067343B2FBF0F5B2FB6B
:10316000F0F605EB8305322303EB0515B5FBF1F50E
:10317000B6FBF1F605F0F00505EB0615B2FBF0F62F
:10318000B2FBF0F0B0FBF1F06FF01802504306EB29
:10319000800003EB0010B0FBF1F0216800F00F009D
:1031A0002844886070BD0000003801402DE9F041DE
:1031B000984617460E460446069D27E0681C25D013
:1031C0002DB1FDF7EFFFA0EB0800A8421ED9206843
:1031D0000C3050E8001F21F4D07140E80012002AA2
:1031E000F5D12068143050E8001F21F0010140E8BB
:1031F0000012002AF5D1202084F8410084F8420012
:10320000002084F840000320BDE8F08120680068B9
:1032100036EA000004D00020B842CFD00020F3E707
:103220000120F9E7FEE70000014A024900F06FB80B
:1032300031330008200000200907090E002804DBB4
:1032400000F1E02080F80014704700F00F0000F15A
:10325000E02080F8141D704702E008C8121F08C162
:10326000002AFAD170477047002001E001C1121F07
:10327000002AFBD170472DE9F04F15461C46DDF8BA
:1032800024B00E46074601EB040800EB050A1FFABE
:1032900088F11FFA8AF05A46FDF77EF9A7EB050977
:1032A0001FFA88F11FFA89F05A46FDF775F9A6EB67
:1032B00004081FFA88F11FFA8AF05A46FDF76CF9E4
:1032C0001FFA88F11FFA89F05A46FDF765F906EBF7
:1032D000050807EB04091FFA88F11FFA89F05A461E
:1032E000FDF75AF93C1B1FFA88F1A0B25A46FDF7C8
:1032F00053F9751BA9B21FFA89F05A46FDF74CF92C
:10330000A9B2A0B25A46BDE8F04FFDF745B92DE984
:10331000F04116460F460446002503E03946B04703
:10332000641C6D1C20780028F8D12846BDE8F08187
:1033300013B54FF6FF73012269460248FEF74CFEB3
:1033400000981CBDF00100202DE9F84790461E466C
:1033500089468246002472420320099900EB420507
:10336000C9B930E0274608E03B4622464946504668
:10337000CDF80080FFF77FFF7F1CB742F4DD002D02
:1033800003DA05EB8405AD1D04E0A01B05EB800509
:103390000A35761E641CB442E4DDBDE8F887334686
:1033A000224649465046CDF80080FFF764FF002DC5
:1033B00003DA05EB8405AD1D04E0A01B05EB8005D9
:1033C0000A35761E641CB442E9DDE6E7FDF7F8FE37
:1033D000FFF746FBFFF7F2F9FFF7DAF9FFF7A6F977
:1033E000FFF78EFAFFF756FAFFF706FA04211048A6
:1033F000FEF716FD0F48FDF703F90E48FDF73EFBFB
:1034000064220D490B48FDF799FB0D490B48886272
:10341000FEF73EFFFFF718FDFFF78AFDFFF7B6FC4A
:10342000FFF7F0FDFCF788FFFFF78AFAF2E70000EC
:1034300060010020EC00002024000020CD020008E4
:103440001C010020010202030405060708090A0BFB
:103450000C0D0E0F101001020203040506070809E7
:103460000A0B0C0D0E0F10100000000000000000F1
:10347000010203040607080900000000010203041A
:103480000000000000000000000000000000040434
:10349000040404040004000000140A0A00000000F0
:1034A00000000000000014143F140A3F0A0A000044
:1034B00000041E1505060C14150F0400000012155B
:1034C0000D0A142C2A1200000000040A0A1E151509
:1034D00009360000000202010000000000000000A8
:1034E000002010080808080808102000000204083E
:1034F000080808080804020000000004150E0E1554
:103500000400000000000404041F04040400000080
:1035100000000000000000000002020100000000A6
:10352000001F00000000000000000000000000007C
:103530000002000000100808080404020202010052
:1035400000000E1111111111110E000000000406EF
:1035500004040404040E000000000E11110804020B
:10356000011F000000000E11100C1010110E0000C1
:103570000000080C0A0A091E0818000000001F01BC
:10358000010F1010110E000000000E09010F1111A3
:10359000110E000000001F090804040404040000C8
:1035A00000000E11110E1111110E000000000E117D
:1035B00011111E10120E0000000000000400000097
:1035C00000040000000000000004000000040400EB
:1035D0000020100804020408102000000000000071
:1035E0001F00001F00000000000204081020100847
:1035F0000402000000000E11110804040004000081
:1036000000000E111915151D011E00000000040414
:103610000C0A0A1E1233000000000F12120E1212C2
:10362000120F000000001E1101010101110E000027
:1036300000000F1212121212120F000000001F12CF
:103640000A0E0A02121F000000001F120A0E0A02D0
:103650000207000000001C1201013911120C0000C9
:1036600000003312121E12121233000000001F0459
:1036700004040404041F000000003E0808080808B1
:1036800008090700000037120A060A0A123700006C
:103690000000070202020202223F000000001B1B82
:1036A0001B1B15151515000000003B1216161A1AE3
:1036B0001217000000000E1111111111110E00005F
:1036C00000000F12120E02020207000000000E118D
:1036D00011111117190E180000000F12120E0A1204
:1036E0001237000000001E1101060810110F000023
:1036F00000001F1504040404040E0000000033122F
:1037000012121212120C000000003312120A0A0CDC
:103710000404000000001515150E0A0A0A0A00002C
:1037200000001B0A0A04040A0A1B000000001B0A0E
:103730000A040404040E000000001F090804040227
:10374000121F0000001C04040404040404041C00F0
:10375000000202020404080808100000000E080815
:103760000808080808080E0000040A00000000000D
:103770000000000000000000000000000000003F0A
:103780000004000000000000000000000000000035
:10379000000C121C123C000000000302020E121268
:1037A000120E000000000000001C1202021C0000AB
:1037B00000001810101C1212123C00000000000043
:1037C000000C121E021C000000003804041E040439
:1037D000041E000000000000003C120C021E221C0F
:1037E00000000302020E1212123700000000040053
:1037F00000060404040E000000000800000C080885
:103800000808080700000302023A0A0E12370000F7
:103810000000070404040404041F0000000000006A
:10382000000F15151515000000000000000F121202
:103830001237000000000000000C1212120C0000F1
:1038400000000000000F1212120E0207000000001C
:10385000001C1212121C103800000000001B06028F
:103860000207000000000000001E020C101E0000F5
:1038700000000004040E040404180000000000000E
:10388000001B1212123C0000000000000037120A58
:103890000C040000000000000015150E0A0A0000CC
:1038A00000000000001B0A040A1B000000000000CA
:1038B0000037120A0C04040300000000001E080474
:1038C000041E00000018080808040808080818006A
:1038D000080808080808080808080808000604047A
:1038E0000408040404040600022518000000000077
:1038F00000000000000000000000000000000000C8
:10390000000000000000000808080808080800007F
:103910001818000000486C2412000000000000008D
:10392000000000000000002424247F1212127F12E5
:10393000121200000000081C2A2A0A0C1828282A43
:103940002A1C080800000022251515152A58545471
:10395000542200000000000C1212120A76252911D0
:10396000916E000000060604030000000000000045
:103970000000000000402010100808080808081087
:103980001020400000020408081010101010100849
:10399000080402000000000008086B1C1C6B0808EB
:1039A0000000000000000000080808087F08080860
:1039B00008000000000000000000000000000000FF
:1039C000060604030000000000000000FE000000E6
:1039D00000000000000000000000000000000000E7
:1039E0000606000000008040402020101008080457
:1039F00004020200000000182442424242424242B5
:103A000024180000000000080E080808080808082C
:103A1000083E00000000003C424242202010080402
:103A2000427E00000000003C4242201820404042FC
:103A3000221C0000000000203028242422227E20A6
:103A4000207800000000007E0202021A2640404258
:103A5000221C0000000000382402021A26424242C2
:103A6000241800000000007E222210100808080818
:103A7000080800000000003C424242241824424250
:103A8000423C00000000001824424242645840407A
:103A9000241C0000000000000000181800000000B6
:103AA00018180000000000000000000800000000DE
:103AB0000008080400000040201008040204081058
:103AC000204000000000000000007F0000007F0098
:103AD0000000000000000002040810204020100830
:103AE000040200000000003C42424640201010004A
:103AF000181800000000001C225A555555552D423B
:103B0000221C00000000000808181414243C224263
:103B100042E700000000001F2222221E22424242F1
:103B2000221F00000000007C42420101010101420D
:103B3000221C00000000001F224242424242424238
:103B4000221F00000000003F4212121E1212024209
:103B5000423F00000000003F4212121E12120202F9
:103B6000020700000000003C222201010171212215
:103B7000221C0000000000E7424242427E424242D4
:103B800042E700000000003E08080808080808088E
:103B9000083E00000000007C1010101010101010E3
:103BA0001010110F0000007722120A0E0A121222C2
:103BB0002277000000000007020202020202020255
:103BC000427F000000000077363636362A2A2A2A3D
:103BD0002A6B0000000000E346464A4A52525262F5
:103BE000624700000000001C224141414141414127
:103BF000221C00000000003F424242423E020202FC
:103C0000020700000000001C2241414141414D5388
:103C1000321C60000000003F4242423E121222224B
:103C200042C700000000007C4242020418204042CB
:103C3000423E00000000007F490808080808080804
:103C4000081C0000000000E7424242424242424259
:103C5000423C0000000000E74242222424141418D1
:103C6000080800000000006B4949494955553622B3
:103C700022220000000000E74224241818182424FF
:103C800042E7000000000077222214140808080808
:103C9000081C00000000007E2120101008040442CF
:103CA000423F0000007808080808080808080808CB
:103CB0000808780000000202040408080810102018
:103CC00020204040001E1010101010101010101076
:103CD00010101E000038440000000000000000002A
:103CE00000000000000000000000000000000000D4
:103CF000000000FF000608000000000000000000B7
:103D000000000000000000000000003C4278444237
:103D100042FC0000000000030202021A2642424256
:103D2000261A0000000000000000003844020202D1
:103D30004438000000000060404040784442424265
:103D400064D80000000000000000003C427E020237
:103D5000423C0000000000F08808087E08080808BF
:103D6000083E0000000000000000007C22221C022F
:103D70003C42423C000000030202023A46424242F8
:103D800042E700000000000C0C00000E08080808C4
:103D9000083E0000000000303000003820202020C5
:103DA0002020221E0000000302020272120A1612D4
:103DB000227700000000000E08080808080808081C
:103DC000083E0000000000000000007F92929292E6
:103DD00092B70000000000000000003B4642424253
:103DE00042E70000000000000000003C4242424266
:103DF000423C0000000000000000001B264242423E
:103E0000221E0207000000000000007844424242E7
:103E1000447840E000000000000000774C040404F7
:103E2000041F0000000000000000007C42023C4033
:103E3000423E0000000000000008083E0808080894
:103E400008300000000000000000006342424242CF
:103E500062DC000000000000000000E7422424149F
:103E60000808000000000000000000EB494955551B
:103E7000222200000000000000000076241818181C
:103E8000246E000000000000000000E7422424141B
:103E900018080807000000000000007E2210080833
:103EA000447E000000C02020202020102020202060
:103EB0002020C00010101010101010101010101042
:103EC0001010101000060808080808100808080854
:103ED000080806000C32C2000000000000000000CC
:103EE00000000000FFFFFFFFFFFFFFFFFFFFFFFFDE
:103EF000FFFFFFFFFFFFFFFFFFFFFFFFFFFFFFFFD2
:103F0000FFFFBEF7FFFFDEFF38C6928C8E6B6E6B35
:103F1000107C96AD3CE7FFFFFFFFFFFFFFFFFFFFB9
:103F2000FFFFFFFFFFFFFFFFFFFFFFFFFFFFFFFFA1
:103F3000FFFFFFFFFFFFFFFFFFFFFFFFFFFFFFFF91
:103F4000FFFFFFFFFFFFFFFFFFFFFFFFFFFFFFFF81
:103F5000FFFF5DEF159D4F636C420A3288294619B9
:103F600025194521E8318E6B38C6FFFFFFFFFFFFA3
:103F7000FFFFFFFFFFFFFFFFFFFFFFFFFFFFFFFF51
:103F8000FFFFFFFFFFFFFFFFFFFFFFFFFFFFFFFF41
:103F9000FFFFFFFFFFFFFFFFFFFFFFFFFFFFFFFF31
:103FA00036A51053104B51530F4B6C3AE931672132
:103FB0002519E410A30862008308CB529AD6FFFFAC
:103FC000FFFFFFFFFFFFFFFFFFFFFFFFFFFFFFFF01
:103FD000FFFFFFFFFFFFFFFFFFFFFFFFFFFFFFFFF1
:103FE000FFFFFFFFFFFFFFFFFFFFFFFF3CE77063E7
:103FF000B363B87CF56311434D32EA298821261951
:104000000519051904110411E4108300A308728C2A
:10401000FFFFFFFFFFFFFFFFFFFFFFFFFFFFFFFFB0
:10402000FFFFFFFFFFFFFFFFFFFFFFFFFFFFFFFFA0
:10403000FFFFFFFFFFFFFFFFFFFFDBDE4B3AF0421A
:10404000356C544BB1322E2AEB21A9216719051981
:10405000041104110411041104110519E4104200A3
:10406000AF73FFFFFFFFFFFFFFFFFFFFFFFFFFFF3C
:10407000FFFFFFFFFFFFFFFFFFFFFFFFFFFFFFFF50
:10408000FFFFFFFFFFFFFFFF5DEF09324C32104BD8
:104090008F324F2A2E2ACC198919892147190519DF
:1040A00004110411C410C410041104110411E4100B
:1040B00042003184FFFFFFFFFFFFFFFFFFFFFFFF15
:1040C000FFFFFFFFFFFFFFFFFFFFFFFFFFFFFFFF00
:1040D000FFFFFFFFFFFFFFFFEC5247194C320B2A97
:1040E000EC21EC210C22915BEE4A061126190419F1
:1040F000E410E410A7296621A3080519041104118E
:10410000E4108200F7BDFFFFFFFFFFFFFFFFFFFF8F
:10411000FFFFFFFFFFFFFFFFFFFFFFFFFFFFFFFFAF
:10412000FFFFFFFFFFFF35A5830888218821892134
:10413000AA218A216B42718CFFFF728C83080411C3
:10414000C4082942FBDE5DEFEC5A83080411041118
:1041500004118308E831DFFFFFFFFFFFFFFFFFFFD0
:10416000FFFFFFFFFFFFFFFFFFFFFFFFFFFFFFFF5F
:10417000FFFFFFFFBEF7C731C410251926194719E5
:104180004719A8298A52284A55ADFFFFE831A308EC
:1041900005194D6B4D6BFFFF7DEF4521C4100411D8
:1041A00004110411620076ADFFFFFFFFFFFFFFFF68
:1041B000FFFFFFFFFFFFFFFFFFFFFFFFFFFFFFFF0F
:1041C000FFFFFFFF96B562000411041905110519E0
:1041D000C4088B4AB6B55DEFF7BDFFFF8E6B62007A
:1041E0002942AA5A0842FFFFFFFFCC52830804115C
:1041F00004110411A308AD52FFFFFFFFFFFFFFFFF3
:10420000FFFFFFFFFFFFFFFFFFFF1CE7FFFFFFFFB9
:10421000FFFFFFFF4E636200041104110411E4105C
:1042200062008E63FFFFFFFFFFFFFFFFCF73010000
:10423000F39C2C6396B5FFFFFFFF2D5B83000411F9
:1042400004110411E41067213DEFFFFFFFFFFFFFA2
:10425000FFFFFFFFF8BDB7B59EEFCB52B394FFFF52
:10426000FFFFDFFFE831A30804110411041104115A
:10427000A3084942FFF7FFF7FFFFFFFF6A4A01006B
:104280007284FFFFFFFFFFF7DFEF093AA308041175
:10429000041104110411051118BEFFFFFFFFFFFFF9
:1042A000FFFFFFFFF07B6200E831C731410035A519
:1042B000FFFF5DEF4621C410041104110411041125
:1042C000E410A308769DFFF7FFFFB7ADA308A3088E
:1042D000C7319EE7FFF7FFF776A5A308E4100411A6
:1042E000041104110511051135A5FFFFFFFFFFFFA4
:1042F000FFFFFFFFDBDEA7298300C410C410C4103A
:104300001CE79EEF0511E4100411041104110411BF
:104310000419C408E510D16BD16BC5086400A50869
:1043200043002B32779DB3842519C4100411041166
:104330000411041125192609359DFFFFFFFFFFFF1A
:10434000FFFFFFFFFFFFAF73620004190519820032
:104350000D5B8E9B62100511041104110419E41009
:1043600085000511C439815A407B229C43AC03A4CB
:10437000839B82728249C218A400C500E41004190C
:104380000411051947196711EC5ABEFFFFFFFFFF23
:10439000FFFFFFFFDFFFDBDEC410E4100411051197
:1043A000A41801C08388E40005190419C508442134
:1043B000438323D542FEE4FE27FF07FFA4FE64FEED
:1043C00003FEA3FDE2FC42EC83B32462E510C408C3
:1043D00004192619A81987210090D3BCFFFFFFFFFD
:1043E000FFFFFFFFDFFFFFFF107C420005190511F3
:1043F000832801D044F8A348E400C508445A02EDDC
:10440000E2FD02FE66FE74FFB8FF73FFE7F6A6F654
:1044100045F6A4F5C3FC62FCC2FCC2FCE3CBC44974
:10442000061188198701A49001F8EC9AFFFFFFFF9D
:10443000FFFFFFFFFFFFFFFFBEF7E8318300050925
:10444000824001C023F885F0A348A400445A02FD2D
:1044500023CCC2DC04FE28FE48F646F624F6E4F53A
:1044600064FDE3FC62FCC2FC02E402DCE2FCA47A30
:1044700048016701C47824F802F884B07DE7FFFFA3
:10448000FFFFFFFFFFFFFFFFFFFFDBDE2519A3009C
:10449000C43802E022D844F8A6F8A4786300432187
:1044A00083728339829B21F561FD22FDE2FCA2FC2F
:1044B00042FC42FC42FC22AB8341C39204522601DF
:1044C0002519A49844F823F802F8A4D09EEFFFFF22
:1044D000FFFFFFFFFFFFFFFFFFFFFFFF9AD68729C8
:1044E000A50043B822F823E065F8E8F807C9834837
:1044F0004200A30084006329A27A62B3A2CB62D3F4
:1045000002BB828A8339A400E500E500E508C460A7
:1045100064D844F824F823F802F88388DBC6FFFF48
:10452000FFFFFFFFFFFFFFFFFFFFFFFFFFFF3DE775
:10453000505B083123E843F844F065F809F9ABF91A
:1045400089D10689A3484218020042006100820016
:10455000620062008300A320C450A58885D865F856
:1045600044F844F823F823F803D08210C7295DEFFC
:10457000FFFFFFFFFFFFFFFFFFFFFFFFFFFFFFFF4B
:10458000FFFF6C32A53802D823F865F866F8A7F863
:104590004AF90CFA4DFA4CEA0BD2A9B968B147A90D
:1045A00027B107B907D1E7E8C7F8A7F865F865F8B4
:1045B00044F823F803F802D0A3280509C408EC5AEC
:1045C000FFFFFFFFFFFFFFFFFFFFFFFFFFFFFFFFFB
:1045D000FBDE0519C400A741E6C003F886F8A7F87A
:1045E00087F886F8C7F829F98AF9ABF9ABF98BF99E
:1045F0006AF929F908F9C7F8A6F886F865F864F8A1
:1046000023F802F006B12529E400E4102519251944
:10461000149DFFFFFFFFFFFFFFFFFFFFFFFFFFFFF7
:1046200096AD620082083595BACE8BA244D025F8AB
:1046300087F8A7F8C7F8A7F887F886F886F886F805
:1046400087F8A7F8A7F8A6F885F865F864F824F0C5
:1046500064B80D93BBB6CF6383080411E4106621E0
:10466000493A5DEFFFFFFFFFFFFFFFFFFFFFFFFF87
:10467000D3944200E410BBCEFFFFBEE776B5CCAAD0
:1046800007C145E045F846F866F886F886F886F8EA
:1046900086F865F845F865F865E844D043A80188D0
:1046A00082903CD7FFEF559583080411041105193A
:1046B0004619B394FFFFFFFFFFFFFFFFFFFFFFFF60
:1046C000B394410086215DDFFFFFFFFFFFFFDFE7BF
:1046D0007AC6D3B44EB32AC268D1E6E0A6E8A5E80C
:1046E000A5E8E6D888C906A922A802A800A000C8A3
:1046F00000D8F7E5FFE7F8ADC410E4100411E410AA
:1047000005118B4AFFFFFFFFFFFFFFFFFFFFFFFFCA
:1047100055A54100A7295DDFFFF7FFFFFFFFFFFF62
:10472000FFFFFFFFFFEF7DDFDBCE59CEF8CDD7CD0A
:10473000F7C579CEFBBEABA203F045F842D043E803
:1047400000F072D4FFDF39AEE410E4100411E4107D
:1047500005118729FFFFFFFFFFFFFFFFFFFFFFFF9F
:1047600059CE830846211CD7FFF7FFFFFFFFFFFF4D
:10477000FFFFFFFFFFFFFFFFFFFFFFFFFFFFFFFF49
:10478000FFFFFFFFFFEF8BBA04F845F862E044F04B
:1047900000F88EDBFFDFF8A5C410E410E41004116C
:1047A000E4102519FFFFFFFFFFFFFFFFFFFFFFFFE3
:1047B000BEF78729830839B6FFF7DFF7FFFFFFFF52
:1047C000FFFFFFFFFFFFFFFFFFFFFFFFFFFFFFFFF9
:1047D000FFFFFFFFBEE74ABA03F845F864F844F864
:1047E00000F86EE3FFD7F48C83080411E410E410A2
:1047F000E4100519FFFFFFFFFFFFFFFFFFFFFFFFB3
:10480000FFFFEF7300007284FFEFBEEFDFFFFFFFDB
:10481000FFFFFFFFFFFFFFFFFFFFFFFFFFFFFFFFA8
:10482000FFFFFFFFDFE78BBA03F845F845F823F8F1
:1048300000F8D3D4FFD74E5B2100293A55A5830851
:10484000C4102519FFFFFFFFFFFFFFFFFFFFFFFF62
:10485000FFFFFBDEA308E8319EDF9EE7BFEFFFFF0F
:10486000FFFFFFFFFFFFFFFFFFFFFFFFFFFFFFFF58
:10487000FFFFFFFFFFF751BC02E003F803F043E046
:10488000ECC27ECFFCBE46212100D394FFFF5184B1
:1048900000008729FFFFFFFFFFFFFFFFFFFFFFFF74
:1048A000FFFFFFFF51840000F48CFFEF9EE7BFEF96
:1048B000DFFFFFFFFFFFFFFFFFFFFFFFFFFFFFFF28
:1048C000FFFFFFFFFFFF3DDF55BD52BC72BCB7B518
:1048D0005DC7FFDFF06B0000093ABFF7FFFFFFFF86
:1048E000149D55A5FFFFFFFFFFFFFFFFFFFFFFFF29
:1048F000FFFFFFFFFFFFAC4AA408BBBEDFE77EE778
:10490000BEEFDFF7DFFFFFFFFFFFFFFFFFFFFFFF50
:10491000FFFFFFFFDFFFDFF7FFEFDFDFBFD79ED730
:10492000DFDFD8A583082611DBD6FFFFFFFFFFFFDF
:10493000FFFFFFFFFFFFFFFFFFFFFFFFFFFFFFFF87
:10494000FFFFFFFF79EE8BDC2131A9213DCFBFDFD7
:104950007EDF9EE7BEEFBFEFDFF7DFF7DFF7DFF7C2
:10496000DFF7BFEFBEEF9EE77EDF5ED75ED7DFDF0C
:104970009AB626194208EDA3BFFFFFFFFFFFFFFF16
:10498000FFFFFFFFFFFFFFFFFFFFFFFFFFFFFFFF37
:10499000FFFF74DDC0DB00FE42EE024289217BB6E0
:1049A000DFDF7ED77EDF7EDF9EE79EE79EE79EE726
:1049B0009EE77EDF7EDF5DD75DD79EDFFFE7F8A550
:1049C0000711E31802C560FDE6D3DBEEFFFFFFFF32
:1049D000FFFFFFFFFFFFFFFFFFFFFFFFFFFFFFFFE7
:1049E0009EF784BAC1FC42FE82FEA2FE818345216D
:1049F00074745EC7DFDF7ED75ED75DD75ED75ED7C4
:104A00005DD75DD75ED79EDFFFE73DC7F1638408C2
:104A1000425226E629FF86FEE0F36AC3FFFFFFFF4E
:104A2000FFFFFFFFFFFFFFFFFFFFFFFFFFFFFFFF96
:104A300018DEC1D2A2FD22FE42FE42FE62FEE2D498
:104A4000416A494253743BA63EC7BFD7BFD7BFD7C1
:104A5000BFDFBFD73EC71AA6F263A729824122B49F
:104A600062FE83FEAAFE0FFF67FD63BA3CEFFFFF05
:104A7000FFFFFFFFFFFFFFFFFFFFFFFFFFFFFFFF46
:104A80009AE680D221FDC2FDE2F5C2F582F582FDF3
:104A900062FD61DC219B846AE96A2C63AF63117457
:104AA0006E632C63895A0452817AC2CBE2FC62FDA8
:104AB00082FDC2FDC2FDE4FD24FD62CA1CE7FFFFCA
:104AC000FFFFFFFFFFFFFFFFFFFFFFFFFFFFFFFFF6
:104AD000FFFFB1CC81D2C0F3C1FC02FD02FDE2FCBC
:104AE000C2FCC2FC81FC80FBC0C9A48135AD59CE9B
:104AF000719C218100DAA1FB82FCA2FC82FCA2FC59
:104B000002FD22FDE2FC00FC60DA90CCFFFFFFFF1B
:104B1000FFFFFFFFFFFFFFFFFFFFFFFFFFFFFFFFA5
:104B2000FFFFFFFF59DE0DC406CBE4D203DB03DB3E
:104B3000E3DAC3D2A4C209B3D2BC9EF7FFFFFFFFE2
:104B4000FFFFFBE60EB4A6BA83D2E3E202EB22EB50
:104B500022E303DBE4D26AC3B6D5FFFFFFFFFFFF0A
:104B6000FFFFFFFF844B000800000020240000002E
:104B700058320008A84B000824000020240600003A
:104B80006832000801000000100000000000000072
:104B90000024F4000000FFFF00F8E0071F00E0FF22
:084BA0001FF8000000000000F6
:04000005080000ED02
:00000001FF
