:020000040800F2
:10000000980600204501000849260008392000080C
:100010000922000831080008052800080000000037
:100020000000000000000000000000005126000851
:1000300035080008000000004D260008552600087D
:100040005F0100085F0100085F0100085F01000810
:100050005F0100085F0100085F0100085F01000800
:100060005F0100085F0100085F0100085F010008F0
:100070005F0100085F0100085F0100085F010008E0
:100080005F0100085F0100085F0100085F010008D0
:100090005F0100085F0100085F0100085F010008C0
:1000A0005F0100085F0100085F0100085F010008B0
:1000B0005D2600085F0100085F0100085F0100087D
:1000C0005F0100085F0100085F0100085F01000890
:1000D0005F010008E1270008ED270008F927000864
:1000E0005F0100085F0100085F0100085F01000870
:1000F0005F0100085F0100085F0100085F01000860
:100100005F0100085F0100085F0100085F0100084F
:100110005F0100085F0100085F0100085F0100083F
:100120005F0100085F0100085F0100085F0100082F
:10013000DFF80CD000F038FB004800479528000895
:10014000980600200648804706480047FEE7FEE77D
:10015000FEE7FEE7FEE7FEE7FEE7FEE7FEE7FEE777
:100160005926000831010008D2B201E000F8012B45
:10017000491EFBD270470022F6E710B513460A4627
:1001800004461946FFF7F0FF204610BD30B480EA60
:10019000010202F0004530F0004221F0004013D08F
:1001A00090B1C30DD40DC2F31601C0F31600E41ACA
:1001B00041F4000140F400027D34914201D3641CFB
:1001C00000E04900002C02DA30BC002070474FF4F8
:1001D00000000023914201D3891A034340084FEAEB
:1001E0004101F7D151B1914202D14FF0004105E0F8
:1001F00002D24FF0010101E06FF0010103EBC450A6
:10020000284430BC00F0F2B82DE9F04D81EA030437
:1002100004F0004B21F0004514464FF0000A23F093
:10022000004150EA050220D054EA01021DD0C5F376
:100230000A570246C5F31303C1F31300C1F30A566C
:1002400040F4801543F48013A7EB0608101BD64634
:1002500008F2FD3873EB050002D308F1010801E054
:1002600092185B41B8F1000F03DA00200146BDE8A7
:10027000F08D00204FF48011064684460EE0171BD7
:1002800073EB050705D3121B63EB050306434CEA2A
:10029000010C49084FEA300092185B4150EA01070F
:1002A000EDD152EA030012D082EA040083EA05018C
:1002B000084305D0101BAB4106D20122002306E003
:1002C00000224FF0004302E06FF0010253101AEBDE
:1002D00006004CEB085110EB0A0041EB0B01BDE8A6
:1002E000F04D00F0BAB80EB540F233410291002152
:1002F000CDE900110A460B4600F0BEF803B000BD80
:1003000000F0004230F000400AD0C10D01F56071EC
:10031000C0F3160042EA0151C2084007114370477A
:1003200000200146704701F0004330B421F0004145
:1003300050EA010206D00A0DA2F56072C1F3130162
:10034000002A02DC30BC00207047440F44EAC1049C
:10035000C100E01830BC00EBC25000F047B830B527
:100360000B46014600202022012409E021FA02F573
:100370009D4205D303FA02F5491B04FA02F528440D
:10038000151EA2F10102F1DC30BD2DE9F05F05463A
:10039000002092469B4688460646814640241BE044
:1003A000284641464746224600F01FFA53465A4621
:1003B000C01A914110D311461846224600F006FAA1
:1003C0002D1A67EB01084F4622460120002100F05C
:1003D000FDF917EB00094E41201EA4F10104DFDCFA
:1003E000484631462A464346BDE8F09F0029A8BF4B
:1003F0007047401C490008BF20F00100704710B44E
:10040000B0FA80FC00FA0CF050EA010404BF10BC02
:10041000704749B1CCF1200421FA04F411FA0CF12F
:1004200018BF012121430843A3EB0C01CB1D4FEA68
:1004300000614FEA102042BF002010BC704700EB63
:10044000C35010440029A4BF10BC7047401C490091
:1004500008BF20F0010010BC704710B5141E73F1E6
:10046000000408DA401C41F1000192185B411A4374
:1004700001D120F0010010BD2DE9F04D92469B46C0
:1004800011B1B1FA81F202E0B0FA80F22032904666
:1004900000F09CF904460F4640EA0A0041EA0B01CD
:1004A00053465A46084313D0114653EA010019D067
:1004B000C8F14002504600F098F905460E465046F5
:1004C0005946424600F082F9084305D0012004E075
:1004D00020463946BDE8F08D0020054346EAE07627
:1004E0002C4337430A986305E40AA0EB0800002276
:1004F000FD0A44EA47540A3002D500200146E9E7E4
:10050000010510196941DDE9084500196941BDE897
:10051000F04DA2E72DE9FE4F804681EA0300C00FAF
:100520000C46009021F0004123F00045B8EB02009A
:10053000A94105D24046214690461C460B4602463C
:1005400023F00040104347D0270DC7F30A00C3F340
:100550000A510290401A019040286BDAC3F313004D
:1005600040F4801B0098924620B10023D2EB030A8E
:1005700063EB0B0B01985946C0F14002504600F066
:1005800025F906460D4650465946019A00F03DF9B8
:1005900010EB08006141002487EA115284EAE773F6
:1005A0001A4340D0009A62B3019A012A4FEA0752D7
:1005B00015DC001B61EB02014FF0004202EA07521A
:1005C000CDE90042001C41F5801132462B46FFF771
:1005D00053FF03B0BDE8F08F40462146F9E7001B0A
:1005E00061EB0201001C41F5801300185B412018EB
:1005F000A2F5001747EB030140EAD570B6196D412B
:1006000011E06D084FEA360645EAC0754FEA075219
:10061000001B61EB0201001C41F5801149084FEA03
:1006200030000019514132462B4603B0BDE8F04F6F
:10063000FFF713BF0098012240000023D0EB020215
:1006400063EBE073009821464FEAE074B8EB0000DA
:1006500061EB0401E9E783F000435BE781F00041CF
:1006600058E72DE9FE4F81EA030404F0004421F02D
:10067000004100944FF0000B23F0004350EA0104C6
:100680005ED052EA03045BD0C3F30A54C1F30A55A7
:100690002C44A4F2F3340194A0FB0254C1F31301DF
:1006A00041F48011C3F3130343F4801301FB0244AC
:1006B00000FB034E840A970A44EA815447EA8357B1
:1006C000A4FB076802958D0A05FB07854FEA932C6A
:1006D00004FB0C542705029D4FEA065847EA1637DB
:1006E000B5EB08056EEB070C870E920E47EA8117F3
:1006F00042EA8312A7FB0201B6EB0B0164EB000494
:100700002B0D43EA0C335E1844EB1C50DA4651467D
:10071000E7FB0201C5F313044FEA0B3343EA14531A
:100720004FEA0432019C43EA0603A4F10C0402944C
:10073000009CCDE900B4FFF79FFE03B0BDE8F08F49
:1007400000200146F9E7C1F30A52C1F3130140F258
:10075000FF3341F480119A4202DA002001467047CB
:1007600040F233439A42A2F2334202DC524200F09A
:100770003CB800F02BB8000030B5041E71F1000445
:1007800004DB4FF00044404264EB0101141E73F19E
:10079000000405DB1C464FF00043524263EB0403A8
:1007A000994208BF904230BD064C074D06E0E06814
:1007B00040F0010394E8070098471034AC42F6D3A8
:1007C000FFF7BAFC3C3300085C330008202A04DB46
:1007D000203A00FA02F1002070479140C2F1200354
:1007E00020FA03F3194390407047202A04DB203A93
:1007F00021FA02F00021704721FA02F3D040C2F141
:1008000020029140084319467047202A06DBCB1787
:10081000203A41FA02F043EAE07306E041FA02F3BB
:10082000D040C2F1200291400843194670470000B1
:10083000FEE7000070470000EFF3108072B600BFC3
:10084000FEE70000014690F82100022816D1086852
:10085000D1E90FC3026822F00E020260026822F0A2
:1008600001020260012000FA03F2CCF8042081F8B2
:1008700021000020002281F8202070470420886396
:100880000120002281F820207047000080B590F8F8
:100890002110022928D1026840F2040C1368C4F226
:1008A000020C23F00E03136013680CF17C018A42E2
:1008B00023F0010111601BD940F20841C4F202018A
:1008C0008A4249D040F21C41C4F202018A4247D018
:1008D00040F23041C4F202018A4245D14FF48073A4
:1008E000CCF800345DE000BF04218163012080BDAD
:1008F0004321C4F202018A420EDD6B21C4F20201DF
:100900008A421BDC4421C4F202018A423CD05821B5
:10091000C4F202018A4233E00821C4F202018A4291
:1009200036D01C21C4F202018A4237D03021C4F2F1
:1009300002018A4224D14FF4807230E06C21C4F26B
:1009400002018A4226D08021C4F202018A4217D1D4
:100950004FF0807223E000BF0123CCF8003420E088
:100960001023CCF800341CE00CF588614FF4803380
:100970008A4208BF4FF48053CCF8003411E000BF26
:100980004FF480320BE000BF4FF4805207E000BF0D
:10099000012204E04FF4801201E000BF1022CCF8E5
:1009A0000020416B4FF48072028401B1884700201F
:1009B00080BD00002DE9F04F83B041F60043C4F242
:1009C00001030E6806229842019008BF0522002EFE
:1009D000009200F0ED80019840F20C45A0F18043B8
:1009E000A3F584334FEAB32740F200404FF6FF737C
:1009F000C4F20105C4F20100009A4FF0000E4FF05E
:100A0000010CC1F210034FF0000A4FF0000B4FF041
:100A10000F08052F38BF3A46009208E00E680AF129
:100A2000010A36FA0AF20EF1040E00F0C1800CFA47
:100A30000AF916EA090FF1D04E689E4212DC122E16
:100A400056D8DFE806F0350B4549555555555555EF
:100A5000555555555555554D510000BFD1F80CB061
:100A600046E000BF4FF6FF72C1F2210296420FDC52
:100A70000022C1F2110296421AD00022C1F21202E3
:100A8000964215D00022C1F22102964210D02FE0EA
:100A90000022C1F2220296420AD00022C1F23102A3
:100AA000964205D00022C1F23202964220D100BF08
:100AB0008E684EB1012E019A14BFC2F81490C2F88C
:100AC00010904FF0080B13E04FF0040B10E000BF44
:100AD000CF6807F1080B0BE04FF0000B08E000BFF8
:100AE000CF6807F1040B03E0CF6807F10C0B00BFE0
:100AF0007446BAF1080F28BF203C019F28BF043775
:100B00003E6808FA04F226EA02020BFA04F63243BF
:100B10003A60CA79D2067FF581AF41F21807C4F274
:100B200002073A684FF6084C42F001023A603A6810
:100B3000CFF6FF7C02F001020292029A2AF0030231
:100B4000024452F80C700EF00C0608FA06F4A743A3
:100B5000009C04FA06F6374342F80C70D1F804C042
:100B60005FEACC32026854BF22EA090642EA09066B
:100B70005FEA8C320660426854BF22EA090642EA04
:100B800009065FEACC224660826854BF22EA090661
:100B900042EA09065FEA8C2286604FF0010C2A685F
:100BA00054BF22EA090642EA09062E6036E700BF72
:100BB00003B0BDE8F08F0000002A08BF09040161FE
:100BC0007047000040F29420C2F2000000687047B5
:100BD00040F2040040F29421C2F20000C2F200018F
:100BE00000780A68104408607047000080B542F23F
:100BF0000000C4F20200016841F01001016003200E
:100C000000F082F80F2000F005F800F027F800202F
:100C100080BD000070B540F20406C2F2000640F24A
:100C20000C013278C2F200014FF47A730968B3FB09
:100C3000F2F20446B1FBF2F1084600F057FB0F2C2C
:100C40004FF0010508D838B94FF0FF302146002297
:100C5000002500F02DF87460284670BD82B041F286
:100C60001800C4F20200016841F00101016001684E
:100C700001F0010101910199416841F08051416009
:100C8000406800F080500090009802B0704700006B
:100C9000002848BF704700F01F01012202FA01F14D
:100CA0004EF200124009CEF2000242F820107047C6
:100CB00010B54EF60C5CCEF2000CDCF80030C3F33D
:100CC000022E8EF00704042C28BF0424BEF1030377
:100CD0004FF0FF3E0EFA04F438BF0023A1439940C1
:100CE0000EFA03F39A43114300F00F02043A6244F0
:100CF00009010C3200F16043B0F1FF3FC8BF03F5BA
:100D00006442117010BD00004EF60C51CEF200018D
:100D10000A684FF6FF031A4060F30A2242F080602F
:100D200040F0FD70086070472DE9F04381B0002865
:100D300000F0858042F20008C4F202080446D8F8A8
:100D400000000D4600F0070088420CD2D8F80000E1
:100D500020F007002843C8F80000D8F8000000F091
:100D60000700A8426BD1206841F204098107C4F250
:100D7000020917D5410705D5D9F8001041F4E06103
:100D8000C9F80010010705D5D9F8001041F46051E9
:100D9000C9F80010D9F80010A26821F0F001114341
:100DA000C9F80010C00741D1D8F8000000F00700D2
:100DB000A8420CD9D8F8000020F007002843C8F852
:100DC0000000D8F8000000F00700A84237D12068E2
:100DD000410707D5D9F80010E26821F4E06111431A
:100DE000C9F80010000708D5D9F80000216920F4DF
:100DF000605040EAC100C9F80000D9F8002002F0B4
:100E00000C00082841F20020C0F27A0050D143F2D1
:100E10001633C2F38341C0F60003595CD2033BD4BE
:100E200040F60010C0F23D00484341E060680228EF
:100E30000AD001282AD159F8041C890308D40120BA
:100E400001B0BDE8F08300BF59F8041C8901F6D554
:100E5000D9F8001021F003010843C9F80000FFF79A
:100E6000B1FE064641F28837D9F80000616800F00B
:100E70000C00B0EB810F97D0FFF7A4FE801BB842A7
:100E8000F2D9032001B0BDE8F08300BF59F8041C7B
:100E90008907D4D5DCE700BFD9F8002043F2FC2352
:100EA000C2F34042C0F600039A5C4843B0FBF2F044
:100EB000D9F8001043F2FE22C1F30311C0F600027C
:100EC000515C40F20C0220FA01F140F20800C2F23B
:100ED00000000068C2F200021160FFF79BFE0020D4
:100EE00001B0BDE8F083000040F20C0041F20401C3
:100EF000C2F20000C4F202010068096843F20E3237
:100F0000C1F30221C0F60002515CC84070470000E6
:100F100040F20C0041F20401C2F20000C4F20201EE
:100F20000068096843F20E32C1F3C221C0F6000224
:100F3000515CC840704700002DE9F04182B00028A4
:100F400068D00446007841F20006C007C4F20206E9
:100F500025D0706800F00C0004281BD0706800F0E9
:100F60000C00082802D17068C00313D46068002800
:100F700000F06881B0F5A02F00F07C81B0F5803FD3
:100F800000F07C81306820F480303060306820F4DC
:100F9000802076E13068800301D56068D0B3207886
:100FA000800718D5706810F00C0F07D0706800F03B
:100FB0000C0008286ED17068C0036BD430688007BD
:100FC00002D52069012825D13068616920F0F80038
:100FD00040EAC1003060207800071FD42078400725
:100FE00032D4E56995B1706800F00C00082840F033
:100FF0008F80012D0ED07068216A00F480328A4201
:1010000008D1616A00F47010884203D1002002B058
:10101000BDE8F081012002B0BDE8F081A0690028A0
:1010200062D00020C4F242200121C0F88014FFF7F2
:10103000C9FD0546706A800700F18C80FFF7C2FD8C
:10104000401B0228F6D92AE1F06910F0805808D137
:10105000F06940F08050F061F06900F0805000903D
:10106000009847F20007C4F200073868C00529D489
:10107000386840F480703860FFF7A4FD054600BF73
:101080003868C0051ED4FFF79DFD401B6428F7D9C2
:1010900005E100BF2069002840F20000C4F24220B0
:1010A00000F0828001210160FFF78CFD054600BF42
:1010B000306880073FF588AFFFF784FD401B0228AA
:1010C000F6D9ECE0E068002800F08080052800F008
:1010D0009780012800F09880306A20F0010030628B
:1010E000306A20F0040092E00020C4F24220002187
:1010F000C0F88014FFF766FD054600BF706A8007E0
:101100007FF56CAFFFF75EFD401B0228F6D9C6E005
:101110000027C4F2422700203866FFF753FD022D56
:1011200005460BD13068800140F1BE80FFF74AFDD3
:10113000401B02284FF00300F4D968E730688001B3
:101140007FF564AFFFF73EFD401B02284FF0030020
:10115000F4D95CE740F20C00C2F20000006844F6EB
:10116000D351C1F26201A0FB0101480A019000BF06
:1011700000BF0198411E002801913FF42FAF00BF2E
:101180000198411E002801913FF428AF00BF01984B
:10119000411E002801913FF421AF00BF0198411E7C
:1011A00000280191E4D119E700210160FFF70AFD51
:1011B000054600BF306880077FF50DAFFFF702FDE1
:1011C000401B02284FF00300F4D920E7306A20F0DA
:1011D00001003062306A20F004003062FFF7F2FC58
:1011E000054641F2883700BF306A800720D5FFF7F7
:1011F000E9FC401BB8424FF00300F5D907E700BFF8
:10120000306A40F004003062306A40F00100306221
:10121000FFF7D8FC054641F2883700BF306A8007E7
:1012200006D4FFF7CFFC401BB842F7D937E000BF28
:10123000B8F1000F7FF4D5AEF06920F08050F06176
:10124000CFE600BF306820F480303060306820F492
:1012500080203060FFF7B6FC054600BF3068800391
:101260007FF59DAEFFF7AEFC401B64284FF00300F6
:10127000F4D9CCE6306840F480203060306840F427
:1012800080303060FFF79EFC054600BF3068800369
:101290003FF585AEFFF796FC401B6428F6D9032086
:1012A00002B0BDE8F08100BF206AB0F5803F05D1F3
:1012B0007168A26821F40031114371607168626A3B
:1012C00021F4741110430843706001203866FFF761
:1012D00079FC0446306880013FF598AEFFF772FC58
:1012E000001B02284FF00300F4D990E6411E0020B5
:1012F000B0EB116F1CBF012070474EF21002CEF20E
:10130000000251604EF62351CEF20001F0230B7023
:10131000072190601160704770470000704700001F
:1013200010B590F83C20012A4FF002023FD080F81F
:101330003D200268D2F804E0D2F808C00C682EF014
:101340007003234340F6FF34C4F20004A24253600A
:1013500010DCB2F1804F1FD040F20043C4F2000312
:101360009A4219D040F60003C4F200039A4213D007
:1013700017E000BF40F60043C4F200039A420BD0CE
:1013800043F20043C4F201039A4205D042F60043FF
:10139000C4F201039A4204D149682CF08003194336
:1013A00091600121002280F83D1080F83C20104619
:1013B00010BD0000002804BF0120704710B504468E
:1013C00090F83D0028B9002084F83C00204600F049
:1013D00085F8022084F83D00206840F6FF3302685B
:1013E000C4F2000343F2004C9842C4F2010C21DC29
:1013F000B0F1804F2CD040F20041C4F2000188428D
:1014000026D040F60001C4F20001884220D0984264
:1014100024DCB0F1804F2FD040F20041C4F2000133
:10142000884229D040F60001C4F20001884223D04E
:1014300026E000BF40F60041C4F20001884207D018
:10144000604505D042F60041C4F201018842DED178
:10145000A16822F070020A439842DADD40F60041AA
:10146000C4F20001884207D0604505D042F6004131
:10147000C4F20101884203D1216922F440720A4377
:10148000A36922F08001D4F804E0E26819436045C2
:101490000160C262C0F828E005D042F60041C4F203
:1014A0000101884201D1616901630121416100208C
:1014B00084F8461084F83E1084F83F1084F84010F9
:1014C00084F8411084F8421084F8431084F84410E2
:1014D00084F8451084F83D1010BD000080B582B03E
:1014E0000068B0F1804F1CBF02B080BD41F21C000B
:1014F000C4F202000168002241F0010101600068AD
:10150000002100F00100019001981C20FFF7D0FBA2
:101510001C2002B0BDE88040FFF7BABB90F83D1038
:1015200001291CBF01207047022180F83D1000688E
:1015300040F6FF32C168C4F20002904241F001015E
:10154000C1600FDCB0F1804F1ED040F20041C4F208
:101550000001884218D040F60001C4F20001884220
:1015600012D018E040F60041C4F2000188420BD0CE
:1015700043F20041C4F20101884205D042F6004125
:10158000C4F20101884206D1816801F007010629F1
:1015900004BF00207047016841F001010160002094
:1015A0007047000080B590F83C20012A4FF00202FD
:1015B00000F0BF8080F83D20D0F800C04FF6777271
:1015C000DCF8083023EA0202CCF808200B683F2B35
:1015D0001CDD5F2B20DD602B50D0B3F5005F6DD09C
:1015E000702B40F0A080D1E901E3C968DCF8082045
:1015F00043EA0E0322F47F4243EA01211143CCF86F
:101600000810DCF8081041F077018AE01F2B29DC74
:1016100063B3102B2AD086E0402B63D0502B40F0D0
:101620008280D1F804E0C968DCF82030DCF82020A2
:1016300022F00102CCF82020DCF8182022F0F00281
:1016400042EA011123F00A0242EA0E02CCF8181015
:10165000CCF82020DCF8081041F0570121F02001DF
:101660005FE000BF202B01D0302B5CD1DCF80810EC
:1016700021F07001194341F0070152E0D1F804E074
:10168000C968DCF8203023F01003CCF82030DCF8F7
:101690001830DCF8202023F4704322F0A00243EA43
:1016A000013142EA0E12CCF81810CCF82020DCF8F8
:1016B000081041F0670121F0100132E0D1E901E3A7
:1016C000C968DCF8082043EA0E0322F47F4243EAAB
:1016D00001211143CCF80810DCF8081041F48041D6
:1016E0001FE000BFD1F804E0C968DCF82030DCF866
:1016F000202022F00102CCF82020DCF8182022F073
:10170000F00242EA011123F00A0242EA0E02CCF88A
:101710001810CCF82020DCF8081041F0470121F027
:101720003001CCF808100121002280F83D1080F82B
:101730003C20104680BD00007047000010B50168D5
:1017400004460869800744BFC8685FEA807039D4DE
:101750000869400744BFC8685FEA40703ED4086922
:10176000000744BFC8685FEA007045D40869C00636
:1017700044BFC8685FEAC0604AD40869C0071CBF9C
:10178000C8685FEAC07051D10869000644BFC868E4
:101790005FEA006052D40869400644BFC8685FEA47
:1017A000406053D40869800646BFC8685FEA80601D
:1017B00010BD6FF0200220460A61BDE81040FFF71F
:1017C000ADBD00BF6FF0020008610120207788697D
:1017D000800743D02046FFF7AFFF45E06FF00400DD
:1017E000086102202077886910F4407F40D02046AD
:1017F000FFF7A2FF42E000BF6FF00800086104207D
:101800002077C86980073DD02046FFF795FF3FE06D
:101810006FF01000086108202077C86910F4407F3D
:101820003AD02046FFF788FF3CE000BF6FF0010090
:101830000861204600F03EF82168A5E76FF08000BF
:1018400008612046FFF768FD2168A4E76FF04000BB
:101850000861204600F036F82168A3E7204600F032
:1018600025F8204600F024F82168002020776FE753
:10187000204600F01BF8204600F01AF821680020EE
:1018800020776CE7204600F011F8204600F010F8B1
:1018900021680020207769E7204600F007F82046FD
:1018A00000F006F821680020207766E77047000006
:1018B000704700000068B0F1804F08BF00F0B6BF6D
:1018C00070470000704700007047000081B00021A1
:1018D000009100680168009140680090009801B094
:1018E00070470000B0B582B0026805461068D36842
:1018F000546900F02F01202903F0200106D129B1FD
:10190000284602B0BDE8B04000F00EBF5FEA007CA0
:101910001EBF04F0010E03F4907414EB0E0455D1B5
:10192000296B012905D110F0100118BF13F0100127
:1019300036D1010622D513F080011FD095F83D0065
:10194000212841D1A868B0F5805F03D1286900281B
:1019500000F0F680286A411C296200785060E88C0B
:1019600001380104E8842FD1D06820F08000D060D5
:10197000D06840F04000D06002B0B0BD400623D532
:1019800013F0400020D0D068202120F04000D0602B
:10199000284685F83D1002B0BDE8B04000F04ABBD3
:1019A00000200190106801905068019001985069E2
:1019B000400613D4A88DE98DEB8D002B1CBF401A77
:1019C0005FEA004140F0A48002B0B0BDC40718BF78
:1019D00013F480732CD1430730D436E0A86B016830
:1019E0004B689CB2002CEFD0A98D8C42ECD2EB85D9
:1019F0008369202B17D0D16821F48071D16051699F
:101A000021F001015161516921F040015161202112
:101A100085F83E1000212963D16821F01001D160C2
:101A2000FEF710FFA98DE88D081A81B2284682E0E2
:101A30002B6C43F001032B64430706D5BEF1000F66
:101A400003D02B6C43F002032B64830706D5BEF151
:101A5000000F03D02B6C43F004032B64BCF1000F88
:101A600006D551EA0E0303D02B6C43F008032B6418
:101A70002B6C002BA8D010F0200018BF002903D039
:101A8000284600F051FE2A685069296C00F0400099
:101A900001F0080140182DD0D06820F49070D0607B
:101AA000506920F001005061286B012803D1D068F3
:101AB00020F01000D060202085F83E000020286330
:101AC000506940061ED5506920F040005061A86B57
:101AD000C0B142F26961C0F600014163FEF7D6FE73
:101AE00000283FF471AFA86B416B02B0BDE8B04075
:101AF000084700BF2846FFF7E9FE0020286402B02F
:101B0000B0BD00BF284602B0BDE8B040FFF7DEBE62
:101B1000D16821F49071D160516921F001015161C6
:101B2000202185F83E1000212963D16821F010039F
:101B300081B22846D36002B0BDE8B040FFF7C4BE12
:101B4000286A30F8021B6FF35F215160286206E7B4
:101B5000002804BF0120704710B5044690F83D00EE
:101B600028B9002084F83C00204600F05FF82420CB
:101B700084F83D002068D4E90212C36823F40053BE
:101B8000C360036923F440531A430261D4E9042378
:101B90001143C268194341F20C639A431143C16077
:101BA0004169A26921F44071114343F60002C4F275
:101BB00001029042416103D0FFF796F902E000BFB5
:101BC000FFF7A6F96268192148439100B0FBF1F0D4
:101BD00048F21F51C5F2EB11A0FB01235A096FF027
:101BE000630302FB0300322303EB0010A0FB01019F
:101BF000F02303EA5113206803EB0212C1F34311EF
:101C000011448160016921F490410161416921F031
:101C10002A014161C16841F40051C16000202021C6
:101C2000206484F83D1084F83E1010BDB0B586B035
:101C3000006844F20041C4F2000188424FF0000104
:101C4000CDE90411CDE9021136D044F60001C4F209
:101C50000001884258D043F60001C4F201018842D5
:101C600040F08C8041F21800C4F20200016840F696
:101C7000000441F4804101600168C4F2010401F4F0
:101C8000804101910199016841F0040101600068FF
:101C900002A900F00400019001984FF40070029036
:101CA00002200390032005902046FEF783FE4FF4A8
:101CB00080600290252552E041F21800C4F2020033
:101CC000416840F6000441F4003141604168C4F2CB
:101CD000010401F4003101910199016841F004010E
:101CE0000160006802A900F004000190019804203E
:101CF000029002200390032005902046FEF75AFE32
:101D00000820029026252AE041F21800C4F20200C1
:101D1000416841F480214160416801F480210191D2
:101D20000199016841F008010160006802A900F012
:101D30000800019001984FF4806002900220039007
:101D40000320059040F60000C4F2010000F5806415
:101D50002046FEF72FFE4FF400602725029000205A
:101D6000CDE9030002A92046FEF724FE2846002103
:101D70000022FEF79DFF2846FEF78AFF06B0B0BDA1
:101D8000034690F83E0020280AD100294FF00100B8
:101D900018BF002A00D1704793F83C00012801D1F8
:101DA0000220704700201863996222219A85DA8503
:101DB000186483F83E10196883F83C00CA6842F43E
:101DC0008072CA604A6942F001024A61CA6842F000
:101DD0002002CA607047000040F21001C2F2000108
:101DE00001F1080290422DD040F2A812C2F2000286
:101DF000904218BF704740F25E00C2F20000052218
:101E0000028008784A8840F23023C2F200039854D6
:101E100040F26803C2F20003134483F82000501C10
:101E200082B2920841F27B435A43520C642302FB74
:101E3000130340F2A810C2F2000001224B80FFF70A
:101E40009FBF00BF40F2600011F8013FC2F20000E6
:101E500005220280B1F8030040F2FC02C2F2000247
:101E60001354013082B2920841F27B435A43520C20
:101E7000642302FB1303C81D0122A1F80330FFF7FE
:101E80007FBF00002DE9F04381B0044690F83D008B
:101E900020280DD10F4600294FF0010000F092805C
:101EA0001646002A00F08E8094F83C00012803D1E9
:101EB000022001B0BDE8F083012084F83C004FF01F
:101EC000000921201D46C4F8409084F83D00FEF72B
:101ED00079FEA684E684A1688046B1F5805F25D1AD
:101EE000206900281CBF38464F463E46074684F806
:101EF0003C90E08C00B3681C20D0002D66D1206897
:101F00000BE000BF36F8021B00276FF35F21416032
:101F1000E18C0139E184E18C81B30168090675D552
:101F2000002FEFD017F8011BF1E700BF002684F85F
:101F30003C90E08C0028DED120681FE0206802E0A1
:101F40000168090609D40168090606D40168090672
:101F50005CBF01685FEA0161F2D51FB117F8011B90
:101F600005E000BF36F8021B00276FF35F214160D8
:101F7000E18C0139E184E18C0029E4D10168490652
:101F80001CD4002D42D0691C0ED10168490615D41D
:101F9000016849065CBF01685FEA41610ED40168CF
:101FA0004906F2D50AE000BFFEF70CFEA0EB0801DF
:101FB0002068A9422AD800684006F5D5202084F878
:101FC0003D00002001B0BDE8F08300BF206800BFE5
:101FD0000168090608D4FEF7F5FDA0EB08012068AA
:101FE000A942F5D912E000BF17B117F8011B04E0B0
:101FF00036F8021B00276FF35F214160E18C013945
:10200000E184E18C0029E3D1B8E700BFC16821F485
:10201000D071C160416921F001014161202084F843
:102020003D0084F83E00002084F83C00032001B00D
:10203000BDE8F08370470000FEE7000070B584B093
:1020400041F21800C4F20200016841F2000441F0BC
:10205000100101600168C4F2010401F01001009157
:1020600000990168002241F0200101600168042507
:1020700001F02001009100990168002641F004015F
:102080000160016801F0040100910099016841F0CC
:10209000080101600068042100F008000090009829
:1020A0002046FEF789FD0120CDE9010602200390BC
:1020B000694620460095FEF77DFC04B070BD000027
:1020C00080B586B040F260100021C2F200004FF0EF
:1020D00080421F234FF47A7C0591CDE90311CDE9AD
:1020E0000011C0E90023C0E9021C01618161FFF712
:1020F00061F9002818BFFEF79FFB4FF48050029053
:1021000040F26010C2F2000002A9FFF74BFA00286B
:1021100018BFFEF791FB40F26010C2F20000694662
:10212000FFF7FEF8002818BFFEF786FB06B080BD5B
:1021300080B540F2A81043F60001C2F20000C4F2DC
:10214000010100234FF00C0C4FF4165280E80E00F2
:10215000C0E90333C0E905C3C361FFF7F9FC0028F8
:1021600018BFFEF769FB40F2A81040F21001C2F25E
:102170000000C2F200010122BDE88040FFF700BE6E
:1021800010B540F21004C2F2000444F20041C4F25F
:102190000001204640F8081F4FF4E13100220C23D3
:1021A000C0E90112C0E90322C0E90532C261FFF7AC
:1021B000CFFC002818BFFEF73FFB04F10800611CAC
:1021C0000122BDE81040FFF7DBBD000080B540F202
:1021D000EC1044F60001C2F20000C4F2000100233A
:1021E0004FF00C0C4FF4165280E80E00C0E9033398
:1021F000C0E905C3C361FFF7ABFC002808BF80BD81
:10220000BDE88040FEF718BBFEE700002DE9F04F67
:1022100081B040F26807C2F20007787840F21201FC
:10222000C2F2000100F0FE000978787007F120008A
:1022300000F020FA002800F0AD8097F82100032874
:1022400040F0AE80D7F82500D7F82950D7F82D6098
:10225000D7F8419000BAFEF746F848F6000AC4F2F3
:10226000C30A002253460024FDF7CEFFFEF75BF8B9
:102270008346786728BAFEF736F800225346FDF702
:10228000C3FFFEF750F8B86730BAFEF72CF840F2FB
:102290000008C4F2590800224346FDF7B5FFFEF7D7
:1022A00042F8B7F83110F86708BA000CFEF71BF8CF
:1022B00044F20003C4F28F030022FDF7A5FFFEF7EE
:1022C00032F8B7F83310C7F8800008BA000CFEF7F0
:1022D0000AF800224346FDF797FFFEF724F8C7F8F7
:1022E000840099FA89F0FDF7FEFF00225346FDF7BE
:1022F0008BFFFEF718F8D7F84510C7F8880008BA22
:102300007860FDF7F0FF00225346FDF77DFFFEF7F2
:102310000AF8B7F84910C7F88C0008BA000C7880A2
:10232000FDF7E1FF00224346FDF76EFFFDF7FBFFDF
:10233000C7F890005846FDF7E3FF02461BA00B4686
:1023400000F050FBD7E91D10FDF720FFFDF7D8FF87
:10235000024619A00B4600F045FBB86FFDF7D0FF11
:10236000024618A00B4600F03DFBF86FFDF7C8FFD2
:10237000024617A00B4600F035FBD7F88000FDF7AA
:10238000BFFF024615A00B4600F02CFB204601B013
:10239000BDE8F08F0324204601B0BDE8F08F00BFF8
:1023A0000424204601B0BDE8F08F00BF493A252E35
:1023B00035660D0A00000000553A252E35660D0AD7
:1023C00000000000503A252E35660D0A000000007E
:1023D000453A252E35660D0A0000000050663A2564
:1023E0002E35660D0A00000070B540F26806C2F294
:1023F000000673789C0758BF70BD03F0FD0306F814
:102400000C0F06F80B3C0023C6E90133C6E9033381
:1024100003234FF6FF7473700B0A44404AF2010025
:10242000B37080EA5403E507F170727108BF630866
:1024300080EA5305DC0708BF5D0880EA5503EC0716
:1024400008BF6B0880EA5305DC0708BF5D0880EA17
:102450005503EC0708BF6B0880EA5305DC0708BF8B
:102460005D0880EA5503EC0708BF6B0880EA530556
:10247000DC0708BF5D0885F0030380EA5305DC072D
:1024800008BF5D0880EA5503EC0708BF6B0880EAC7
:102490005305DC0708BF5D0880EA5503EC0708BF59
:1024A0006B0880EA5305DC0708BF5D0880EA550326
:1024B000EC0708BF6B0880EA5305DC0708BF5D081E
:1024C00080EA55035FFA81FCEC0708BF6B0883EADA
:1024D000112180EA5103CD0708BF4B0880EA530160
:1024E000DD0708BF590880EA5103CD0708BF4B0834
:1024F00080EA5301DD0708BF590880EA5103CD0780
:1025000008BF4B0880EA5301DD0708BF590880EA7D
:102510005103CD0708BF4B0880EA5301DD0708BF10
:10252000590881EA0C0180EA5103CD0708BF4B0826
:1025300080EA5301DD0708BF590880EA5103CD073F
:1025400008BF4B0880EA5301DD0708BF590880EA3D
:102550005103CD0708BF4B0880EA5301DD0708BFD0
:10256000590880EA5103CD0708BF4B0880EA5301A0
:10257000DD0708BF590880EA5103CD0708BF4B08A3
:1025800080EA5301DD0708BF590880EA5103CD07EF
:1025900008BF4B0880EA5301DD0708BF590880EAED
:1025A0005103CD0708BF4B0880EA5301DD0708BF80
:1025B000590880EA5103CD0708BF4B0880EA530150
:1025C000DD0708BF5908514080EA5102CB0708BF18
:1025D0004A0880EA5201D30708BF510880EA510235
:1025E000CB0708BF4A0880EA5201D30708BF510849
:1025F00080EA5102CB0708BF4A0880EA5201D3079C
:1026000008BF510880EA5102CB0708BF4A0880EA98
:102610005200D10708BF5008B071000AF07140F2B3
:10262000A810C2F2000031460822FF23FFF72AFC5F
:10263000FEF7C8FA16F80B1C46F8040C01F0FE0071
:1026400006F80B0C70BD0000FEE7000070470000AC
:1026500070470000FEF7BCBA7047000040F26010FF
:10266000C2F20000FFF76AB8406A0021C185C18448
:10267000FFF72CB9B0B5022908D3037843B140F273
:102680006802C2F200021278934201D00020B0BD6D
:102690008C1E22063ED0E4B24AF2010200F1010C87
:1026A000A4F1010E4FF6FF74DBB263409CB282EAE4
:1026B0005405DB0708BF650882EA5503EC0708BF2D
:1026C0006B0882EA5304DD0708BF5C0882EA540302
:1026D000E50708BF630882EA5304DD0708BF5C080A
:1026E00082EA5403E50708BF630882EA5305DC0762
:1026F00008BF5D0882EA5504EB0708BF6C08BEF10D
:10270000000F05D01CF8013BAEF1010ECCE700BF75
:10271000A2B201E04FF6FF72084430F8020C801AB2
:10272000B0FA80F04009B0BD81B090F83E10222987
:1027300020D18368B3F5805F08D10169002941D0B9
:1027400000F128010A6803685B680AE0014651F855
:10275000282F13B90369002BF5D003685B6803F0D9
:102760007F0313700A6801320A60C18D01390A04BF
:10277000C18501D001B070470168CA6822F020020B
:10278000CA60CA6822F48072CA604A6922F00102F3
:102790004A61202280F83E20026B012A1CD10022CF
:1027A0000263CB6823F01003CB600B68DB0605D512
:1027B00000920A680092496800910099818D01B0E9
:1027C000FFF782B80168826A49686FF35F2122F8D7
:1027D000021B8262C9E700BF01B0FFF7FDBA00002B
:1027E00040F2A810C2F20000FFF77CB840F21800D7
:1027F000C2F20000FFF776B840F2EC10C2F200001F
:10280000FFF770B8FEE7000080B582B0019040F29B
:102810001000C2F20000083001A901224FF6FF7338
:10282000FFF730FB019802B080BD000040F25C0071
:10283000C2F20000018841F6372301318AB2D20882
:102840005A43930D41F2883C428803FB1C110180DE
:1028500042B1013A93B2012B428003D1002242805F
:102860000122C280828842B1013A93B2012B828058
:1028700003D1002282800122028147F6D502514312
:102880008AB2920842EA813189B283299CBF012130
:102890004181704790B0FEF7A9F900240120CDE9ED
:1028A0000B44CDE9094406900A904FF400204FF400
:1028B000803102250F9006A8CDE90714CDE90D510E
:1028C000FEF73AFB20B1EFF3108072B6FEE700BFCF
:1028D0000F20CDE9010501A80121CDE903440594AC
:1028E0000124FEF721FA28B1EFF3108072B600BF81
:1028F000FEE700BFFFF7A2FBFFF71AFCFFF740FC63
:10290000FFF7DEFBFFF762FC40F26010C2F200004E
:10291000FEF704FE40F26800C2F20000047000BF3F
:1029200000F002F8FCE7000040F26805C2F2000582
:10293000687840F25C0440F2120840F2302940F21C
:10294000140B40F2180A40F2FC0740F00200C2F2F9
:1029500000040026C2F20008C2F20009C2F2000B15
:10296000C2F2000AC2F20007687000BF6089012845
:1029700007D1012028700120482115226681FFF728
:1029800033FDE088C8B16088B8B9FFF73FFC48B1B3
:10299000687840F00200687043F22630C0F600000C
:1029A00000F09AFC6878642140F0020068704846A4
:1029B000A8F80060FDF7DFFBE68020890028D5D06D
:1029C000A0880028D2D1BBF8002050463946FF230A
:1029D000FFF758FA38466421ABF80060FDF7CBFBEF
:1029E0002681C3E70FB4054B10B503A9044A02982A
:1029F00000F0DAF810BC5DF814FB000009280008AC
:102A00000000002002E008C8121F08C1002AFAD105
:102A100070477047002001E001C1121F002AFBD15E
:102A2000704700002DE9FF5F82B00021DDE904302E
:102A3000020DDDF840B0034318D044F61050A2F266
:102A4000FF3242431514119801281FD0A5EB0B004B
:102A5000401C5FEA000A4FF000064E4FDFF8389145
:102A6000B046504615D5CAF1000413E01198012470
:102A70004AA3012801D16FEA0B010298119AC0E91B
:102A80000031C0E9024206B0BDE8F09FCBF1000082
:102A9000DFE704460021404A491842EB0450CDE9E3
:102AA000001012E0E00707D032463B464046494658
:102AB000FDF7D7FD8046894632463B46104619460B
:102AC000FDF7CFFD06460F466410002CEAD1DDE984
:102AD0000401DDE90023BAF1000F06DAFDF7C1FDBC
:102AE00042464B46FDF7BDFD05E0FDF78DFB424636
:102AF0004B46FDF789FB04460E460022284BFDF7A6
:102B00003BFE03D84FF0FF30014607E00022254B83
:102B100020463146FDF7FEFCFDF715FE102409E0C6
:102B2000002C0ADB0A220023FDF72FFC039B303226
:102B30001A55641E50EA0102F2D1641C039AC4F1D2
:102B400011031444119A012A03D0012208430DD124
:102B50000AE0084304D000204FF0110B119072E7F7
:102B6000A3EB0B056D1E0DE05B4504DD4FF000028D
:102B700005F1010504E003DA4FF00002A5F10105BB
:102B8000002AECD002981199C0E90231C0E9004551
:102B900079E70000000014400000F03F3000000022
:102BA0000000F0430000E03F2DE9FF4F95B09B4649
:102BB0008946064600250FE2252877D100242746BE
:102BC000F84A0121059400E0044316F8013F203B38
:102BD00001FA03F01042F7D130782A2811D06FF0B3
:102BE0002F033078A0F13002092A16D8059A44F054
:102BF000020402EB820203EB42021044761C0590B1
:102C0000EFE759F8042B0592002A03DA504244F406
:102C10000054059044F00204761C30782E2816D11A
:102C200016F8010F44F004042A280DD06FF02F028B
:102C30003078A0F13003092B09D807EB870302EBAA
:102C40004303C718761CF3E759F8047B761C3078E9
:102C50006C280FD006DC4C2817D068280DD06A28C5
:102C600014D104E0742810D07A280FD10DE044F478
:102C700000140AE044F4801401E044F44014727833
:102C8000824202D104F58014761C761C30786628C6
:102C90000BD013DC582877D009DC002875D04528E4
:102CA000F6D04628F4D047281AD19DE118E06328D1
:102CB00035D0642879D0652812D195E1702873D079
:102CC00008DC6728F1D069286FD06E280DD06F28F6
:102CD00006D1B5E073282CD0752875D0782874D02B
:102CE0005A46179990476D1C75E1C4F302500228AB
:102CF00009D003280DD0D9F8001004280DD00D609C
:102D000009F1040967E1D9F80010EA17C1E9005296
:102D1000F6E7D9F800100D80F2E70D70F0E719F82A
:102D2000041B8DF8001000208DF80100EA460120F8
:102D300003E059F804AB4FF0FF3061074FF000019A
:102D400002D40DE008F101018846B9420FDA80454E
:102D5000F8DB1AF808100029F4D108E008F10101A5
:102D600088468142FADB1AF808100029F6D1059846
:102D70005B46A0EB080721463846179A00F094FA04
:102D8000284400EB080507E04DE029E10DE01AF8C2
:102D9000010B5A4617999047B8F10108F7D25B46E4
:102DA00021463846179A13E142E00A220092C4F302
:102DB00002524FF0000A022A08D059F804CB032A25
:102DC0004FEAEC710AD00DE029E02AE009F1070191
:102DD00021F00702F2E802C1914609E00FFA8CFCEB
:102DE0004FEAEC71042A03D14FFA8CFC4FEAEC71E4
:102DF000002907DA0A460021DCF1000C61EB020130
:102E00002D2202E0220504D52B228DF80420012278
:102E100003E0E20701D02022F7E7904659E00A21BB
:102E200002E010220DE010214FF0000A00910BE0AB
:102E300010224FF0000A44F004040827009203E037
:102E400008224FF0000A0092C4F30252022A05D071
:102E500059F804CB0021032A08D009E009F1070141
:102E600021F00702F2E802C1914605E01FFA8CFC4E
:102E7000042A01D10CF0FF0C4FF00008220728D5DE
:102E8000702806D0009B83F0100353EA0A0305D094
:102E90000EE040228DF80420012208E05CEA0102E5
:102EA00006D030228DF804208DF8050002229046CD
:102EB000009B83F0080353EA0A030AD15CEA01028B
:102EC00001D1620705D530228DF804204FF00108AA
:102ED0007F1E582804D034A003900EA802900DE065
:102EE00036A0F9E753466046009AFDF74EFA84464D
:102EF0000398825C0298401E029002705CEA010016
:102F0000F0D1029806A9081A00F1200A600702D53C
:102F100024F4803400E00127574502DDA7EB0A00C6
:102F200000E0002000EB0A01009005984144401A9F
:102F30000590E00306D45B462146179A059800F0F9
:102F4000B3F90544002706E001A85A46C05D179969
:102F500090476D1C7F1C4745F6DBE0030CD55B46B4
:102F60002146179A059800F09FF9054404E03020A7
:102F70005A46179990476D1C0099481E00900029E9
:102F8000F5DC08E0029802995A460078491C029143
:102F9000179990476D1CBAF10001AAF1010AF1DC02
:102FA00065E100000928010030313233343536370D
:102FB0003839616263646566000000003031323385
:102FC0003435363738394142434445460000000025
:102FD00000F058F90544761C307800287FF4ECADF9
:102FE00019B02846BDE8F08F620700D4062709F122
:102FF000070222F0070CFCE80223E14603F0004838
:103000005FEA080C02D00FF2702C0DE05FEA045C5E
:1030100002D50FF2682C07E05FEAC47C02D00FF201
:10302000602C01E0AFF2700C4FF0FF3823F000434A
:10303000CDF850C065280CD006DC452809D04628BC
:103040001DD047283DD13DE0662818D067287ED1A5
:1030500038E00021112F01DB112000E0781CCDE9C0
:10306000000106A90EA8FFF7DDFCDDE90F010E9AAD
:1030700003910021009207F1010A04914DE04FF005
:1030800000400097CDE9011006A90EA8FFF7CAFC81
:10309000DDE90F0203920E9B11990022DDF80CA0CE
:1030A0000093049211B9791C00EB010AB7EB0A00F6
:1030B00004D4C0F1FF3007F1010A0490AAEB070025
:1030C000019044E0012F00DA01270021112F01DDDA
:1030D000112000E03846CDE9000106A90EA8FFF74F
:1030E000A1FCDDE90F010E9A0391002104910092E9
:1030F000BA4621070CD40399514500DA8A46BAF141
:10310000010F05DD009AAAF10101515C302908D0B8
:10311000B84202DA10F1040F06DA0121CDE90110FC
:1031200015E0AAF10101E9E7002805DC0499014452
:103130000491AAEB000102E0411C514500DD8A46E2
:103140000499401A401C01904FF000400290200763
:1031500004D40198504501DBCDF8048000208DF89F
:103160004F0002980DF14F07B0F1004F25D02B20F2
:103170000E9002984FF0020800280CDA40420290AC
:103180002D200E9007E00A210298FDF7E8F8303173
:10319000029007F8011DB8F10001A8F10108F2DC66
:1031A00002980028EFD1791E0E980870307800F050
:1031B000200040F0450007F8020D12A8C01B00F1E6
:1031C00007081498007800B1012000EB0A0101986B
:1031D00001EBE07105984144401A401E0590E00360
:1031E00006D45B462146179A059800F05DF8054421
:1031F0001498007818B15A46179990476D1CE0034F
:1032000024D55B462146179A059800F04DF80544F1
:103210001CE00498002807DBDDE90301884203DD98
:103220000098405C179901E0179930205A46904762
:10323000049805F10105401C04900198401E01907E
:1032400004D12E205A46179990476D1CBAF10001FF
:10325000AAF1010ADDDC05E017F8010B5A461799BF
:1032600090476D1CB8F10001A8F10108F4DC5B4641
:103270002146179A0598ABE62D0000002B000000B0
:10328000200000002DE9F041044600251E461746A7
:10329000880404D405E039462020B0476D1C641E24
:1032A000F9D52846BDE8F0812DE9F0410446002516
:1032B0001E469046C80301D5302700E02027880429
:1032C00004D505E041463846B0476D1C641EF9D56B
:1032D0002846BDE8F081000010B5044601E0FFF784
:1032E00093FA14F8010B04490028F8D1BDE8104006
:1032F0000A20FFF789BA0000000000200102000048
:103300000000000000000102030406070809000095
:1033100000000102030402030405060708090A0B62
:103320000C0D0E0F1010726561642073656E736F63
:1033300072206572726F720D000000006033000829
:103340000000002010000000042A0008703300086C
:103350001000002088060000142A00080000000069
:103360000000000001000000100000000024F40034
:0400000508000131BD
:00000001FF
