:020000040800F2
:10000000501D002045010008554700082D3C000800
:10001000314700087D0E0008E1560008000000008E
:10002000000000000000000000000000D94D0008A2
:10003000A31500080000000095470008295100089A
:100040005F0100085F0100085F0100085F01000810
:100050005F0100085F010008A51700085F010008A4
:10006000C9170008011800083918000851150008C0
:100070005F0100085F0100085F0100085F010008E0
:100080005F0100085F010008E90A00085F0100083D
:100090005F0100085F0100085F0100085F010008C0
:1000A0005F0100085F0100085F0100085F010008B0
:1000B0005F010008A9510008B55100085F01000860
:1000C0005F0100085F0100085F0100085F01000890
:1000D0005F0100085F0100085F0100085F01000880
:1000E0005F0100085F0100085F0100085F01000870
:1000F0005F0100085F0100085F0100085F01000860
:100100005F0100085F0100085F0100085F0100084F
:10011000B95200085F0100085F0100085F01000894
:100120005F0100085F0100085D1500085F0100081D
:10013000DFF80CD000F0C6FC00480047356C000822
:10014000501D00200648804706480047FEE7FEE7AE
:10015000FEE7FEE7FEE7FEE7FEE7FEE7FEE7FEE777
:10016000A7510008310100082DE9F05F0546002085
:1001700092469B4688460646814640241BE0284618
:1001800041464746224600F02FF853465A46C01AC9
:10019000914110D311461846224600F016F82D1A48
:1001A00067EB01084F4622460120002100F00DF8C0
:1001B00017EB00094E41201EA4F10104DFDC484684
:1001C00031462A464346BDE8F09F202A04DB203A08
:1001D00000FA02F1002070479140C2F1200320FA9A
:1001E00003F3194390407047202A04DB203A21FA98
:1001F00002F00021704721FA02F3D040C2F1200240
:100200009140084319467047202A06DBCB17203A55
:1002100041FA02F043EAE07306E041FA02F3D0400B
:10022000C2F120029140084319467047D2B201E062
:1002300000F8012B491EFBD270470022F6E710B5EB
:1002400013460A4604461946FFF7F0FF204610BD44
:10025000F0B480EA0102D40F4200B2EB410F02D2A7
:100260000246084611464A0042D0C30DDDB2C1F332
:10027000C752AD1A202D35DAC1F3160141F4000240
:1002800004B15242C5F1200602FA06F12A41104497
:10029000B3EBD05F23D0C4B1012DA0EBC35009DC78
:1002A000F0BC4FF0004202EAC352DBB200F500009E
:1002B00000F013BB400000F1807000EBC350A0F1D0
:1002C000807040EAD170490009E0490841EAC071F4
:1002D000A0EBC35000F50000400800EBC350F0BC99
:1002E00000F0F2BA6142012202EB4101001BF6E785
:1002F000F0BC704781F00041AAE780F00040A7E71A
:1003000080EA010210B502F00043400022D04A000A
:100310001FD0010E01EB1261C0F35600C2F356026A
:1003200040F4000042F40002A0FB022000047F39E8
:10033000140400D0401C50EA124001D44000491E71
:10034000C2B20C0604EBD010401C4008802A02D038
:1003500003E0002010BD20F00100002900DA002099
:10036000184310BD30B480EA010202F0004530F0BD
:10037000004221F0004013D090B1C30DD40DC2F360
:100380001601C0F31600E41A41F4000140F4000223
:100390007D34914201D3641C00E04900002C02DA54
:1003A00030BC002070474FF400000023914201D37D
:1003B000891A034340084FEA4101F7D151B19142F4
:1003C00002D14FF0004105E002D24FF0010101E0FF
:1003D0006FF0010103EBC450284430BC00F074BA44
:1003E0002DE9FE4F804681EA0300C00F0C460090C5
:1003F00021F0004123F00045B8EB0200A94105D2ED
:100400004046214690461C460B46024623F00040DB
:10041000104347D0270DC7F30A00C3F30A510290D7
:10042000401A019040286BDAC3F3130040F4801B9C
:100430000098924620B10023D2EB030A63EB0B0B2A
:1004400001985946C0F140025046FFF7BEFE0646ED
:100450000D4650465946019AFFF7D6FE10EB0800AC
:100460006141002487EA115284EAE7731A4340D0BD
:10047000009A62B3019A012A4FEA075215DC001B69
:1004800061EB02014FF0004202EA0752CDE900425F
:10049000001C41F5801132462B4600F05BFA03B098
:1004A000BDE8F08F40462146F9E7001B61EB0201F1
:1004B000001C41F5801300185B412018A2F50017BD
:1004C00047EB030140EAD570B6196D4111E06D08A4
:1004D0004FEA360645EAC0754FEA0752001B61EB4A
:1004E0000201001C41F5801149084FEA3000001953
:1004F000514132462B4603B0BDE8F04F00F01BBA25
:100500000098012240000023D0EB020263EBE0736D
:10051000009821464FEAE074B8EB000061EB04015B
:10052000E9E783F000435BE781F0004158E72DE9FC
:10053000FE4F81EA030404F0004421F000410094DE
:100540004FF0000B23F0004350EA01045ED052EA62
:1005500003045BD0C3F30A54C1F30A552C44A4F23C
:10056000F3340194A0FB0254C1F3130141F4801150
:10057000C3F3130343F4801301FB024400FB034E57
:10058000840A970A44EA815447EA8357A4FB076820
:1005900002958D0A05FB07854FEA932C04FB0C544A
:1005A0002705029D4FEA065847EA1637B5EB0805BE
:1005B0006EEB070C870E920E47EA811742EA831210
:1005C000A7FB0201B6EB0B0164EB00042B0D43EA21
:1005D0000C335E1844EB1C50DA465146E7FB02012F
:1005E000C5F313044FEA0B3343EA14534FEA0432C2
:1005F000019C43EA0603A4F10C040294009CCDE99B
:1006000000B400F0A7F903B0BDE8F08F0020014668
:10061000F9E72DE9F04D81EA030404F0004B21F0E5
:10062000004514464FF0000A23F0004150EA05024D
:1006300020D054EA01021DD0C5F30A570246C5F383
:100640001303C1F31300C1F30A5640F4801543F4B9
:100650008013A7EB0608101BD64608F2FD3873EB93
:10066000050002D308F1010801E092185B41B8F1DE
:10067000000F03DA00200146BDE8F08D00204FF4A2
:100680008011064684460EE0171B73EB050705D361
:10069000121B63EB050306434CEA010C49084FEAC1
:1006A000300092185B4150EA0107EDD152EA030095
:1006B00012D082EA040083EA0501084305D0101B2A
:1006C000AB4106D20122002306E000224FF0004396
:1006D00002E06FF0010253101AEB06004CEB0851D8
:1006E00010EB0A0041EB0B01BDE8F04D00F023B91F
:1006F00070B521F0004303430CD0C1F30A55002428
:10070000D5EB040564EB0403D617AD1AB34102DB45
:100710000020014670BD201841EB025170BDC10F91
:1007200080EAE0700844CA079623002100F0D5B89B
:1007300096230022114600F0D0B80EB5C10F80EA12
:10074000E0700844CA07002140F233438DE80E00F0
:100750000A460B4600F0FEF803B000BD0EB540F2AD
:10076000334102910021CDE900110A460B4600F009
:10077000F1F803B000BD20F00040C10DC0F3160039
:1007800040F400007F2901DA00207047962903DC3D
:10079000C1F19601C840704796398840704770B5DE
:1007A000C1F30A5201F000450024C1F3130140F2E5
:1007B000FF3341F480119A4201DA002070BD40F20B
:1007C00033439A42A2F2334203DC5242FFF70CFD5C
:1007D00000E090402C43F1D0404270BDC1F30A527A
:1007E00010B5C1F3130140F2FF3341F480119A4276
:1007F00001DA002010BD40F233439A42A2F23342A4
:1008000003DC5242FFF7F0FC10BD904010BD00F039
:10081000004230F000400AD0C10D01F56071C0F314
:10082000160042EA0151C2084007114370470020F8
:100830000146704730B5041E71F1000404DB4FF02F
:100840000044404264EB0101141E73F1000405DB17
:100850001C464FF00043524263EB0403994208BF29
:10086000904230BD01F0004330B421F0004150EA25
:10087000010206D00A0DA2F56072C1F31301002A2D
:1008800002DC30BC00207047440F44EAC104C100C0
:10089000E01830BC00EBC25000F016B830B50B4683
:1008A000014600202022012409E021FA02F59D42A0
:1008B00005D303FA02F5491B04FA02F52844151E74
:1008C000A2F10102F1DC30BD0029A8BF7047401C35
:1008D000490008BF20F00100704710B4B0FA80FC56
:1008E00000FA0CF050EA010404BF10BC704749B193
:1008F000CCF1200421FA04F411FA0CF118BF012103
:1009000021430843A3EB0C01CB1D4FEA00614FEAE2
:10091000102042BF002010BC704700EBC3501044B1
:100920000029A4BF10BC7047401C490008BF20F03C
:10093000010010BC704710B5141E73F1000408DAF2
:10094000401C41F1000192185B411A4301D120F093
:10095000010010BD2DE9F04D92469B4611B1B1FA50
:1009600081F202E0B0FA80F220329046FFF72DFCCF
:1009700004460F4640EA0A0041EA0B0153465A4634
:10098000084313D0114653EA010019D0C8F14002C0
:100990005046FFF729FC05460E465046594642464A
:1009A000FFF713FC084305D0012004E02046394638
:1009B000BDE8F08D0020054346EAE0762C4337433E
:1009C0000A986305E40AA0EB08000022FD0A44EA45
:1009D00047540A3002D500200146E9E70105101905
:1009E0006941DDE9084500196941BDE8F04DA2E71C
:1009F0002DE9F04D00231A461B1A8A4103DB002023
:100A00000146BDE8F08DC1F30A52C1F3130141F470
:100A100080154FF0000BD10702D100186D41521E16
:100A20000027044640F2FF11384601EB620A3E46B9
:100A30008046024600204FF48011FFF7D5FBC21913
:100A40007141BB1846EB0100B4EB030C75EB000CD5
:100A500004D3E41A65EB000517460E46241908F185
:100A600001006D4180463428E3DDF91946EB0600AC
:100A7000091BA84103D24FF0FF32134601E00022C8
:100A800013461BEB070046EB0A51BDE8F04DFFF79C
:100A900052BFC1F30A52C1F3130140F2FF3341F4D4
:100AA00080119A4202DA00200146704740F2334337
:100AB0009A42A2F2334202DC5242FFF795BBFFF7A3
:100AC00084BB0000064C074D06E0E06840F00103DF
:100AD00094E8070098471034AC42F6D3FFF72CFB9C
:100AE0002879000848790008014801F0C5B90000DC
:100AF000BC00002070B5044600688168C943C9077E
:100B000017D1816821F00101816002F099F8054652
:100B10000AE000BF02F094F8401B022804D92068C4
:100B20008068C043C00706D020688068C043C00703
:100B3000F0D0002070BDA06A40F01000A062E06A12
:100B400040F00100E062012070BD10B50146406A2E
:100B5000826A12F0500F05D0006A026BBDE81040A7
:100B600008461047816A41F4007181620168896812
:100B7000C1F3424107290CD1017B51B9816A21F4AB
:100B800080718162816AC90403D4816A41F00101E4
:100B9000816201F069F910BD10B5406A816A41F0C7
:100BA00040018162C16A41F00401C16201F063F950
:100BB00010BD10B5406A01F05DF910BD0248012179
:100BC00080F81C1600F02AB97C120020F8B5002627
:100BD0000446009600688168C943C9072DD0816822
:100BE00041F001018160164816490068B0FBF1F040
:100BF00000E0401E00900028FBD102F021F80546DD
:100C000016E000BF02F01CF8401B022810D9206833
:100C10008068C043C0070BD0A06A40F01000A062FB
:100C2000E06A40F00100E06284F824600120F8BD31
:100C300020688068C043C007E4D10020F8BD0000F0
:100C40001000002040420F002DE9F0412B4F0221FF
:100C5000384601F0EBFF2A4C41F288354FF6FF761B
:100C6000012805D00221384601F0E0FFA8B133E0A9
:100C7000D4F81006A0F10B01632901D80A3029E04D
:100C80000B2801D8401C25E0A84201D2643021E0A5
:100C9000B0421FD200F57A701CE0D4F81006A0F123
:100CA0000B01632903D80B2814D90A3812E00B284A
:100CB00003D802280ED9401E0CE0A84203D26428B3
:100CC00008D9643806E0B04206D2B0F57A7F01D97F
:100CD000A0F57A70C4F810060AA0D4F8101604F033
:100CE00073FF94F81C06002806D1B4F81006BDE87E
:100CF000F04180B200F052B8BDE8F0810010014030
:100D00007C120020616463203A2564200A00000000
:100D100070B500F015FC00F0D1FD18481649184CCC
:100D20000160002525771749816065714FF4FA76D7
:100D30002661A57746F2A81144F8081C12494160C3
:100D40001249C160124820621248606200F092FCB1
:100D500002F07CFF1048A06284F83C5001206077CC
:100D6000A57703F067FC25714FF07C50C4E905605E
:100D7000C4E9026070BD0000880100207C020020F0
:100D800094180020E8180020EC0000204401002006
:100D9000BD0B000895150008600000201B4970B5C8
:100DA000B1FBF0F01A49884202D941F61F4400E035
:100DB0004724B0FBF4F0401E86B2164801F090FACA
:100DC000144801F0A7FA144D286802F0F7FB2868D0
:100DD0000068846228680068C6622868C6600D489A
:100DE00000F056FF0B4801F095F94FF4007205F141
:100DF0001001084801F0EEF9286802F0A9FB05F59A
:100E00008050002180F81C1670BD000000A24A042A
:100E100040190100BC0000207C02002010B50648EB
:100E200001F05EFA044801F075FA04480068BDE874
:100E3000104002F0C3BB0000BC0000207C02002078
:100E400001A004F0C1BE000063616E63656C2062A6
:100E50007574746F6E20707265737365640A000038
:100E600001A004F0B1BE00006F6B20627574746F56
:100E70006E20707265737365640A000001A004F04F
:100E8000A3FEFEE7206D656D6F7279206163636577
:100E90007373206661756C740A00000030B50F48EA
:100EA0000021022390F836460122062C07D2DFE803
:100EB00004F003060B0D0F1080F8362601E080F8D1
:100EC000363680F8541630BD0322F5E7042100E0E1
:100ED000052180F8361680F8542630BD7C1200209B
:100EE000064890F81D261AB1012A03D0002102E01D
:100EF000012100E0022180F81D1670477C120020BD
:100F000006480178491CC9B20322B1FBF2F302FB87
:100F10001311017001B90121017070471800002000
:100F2000074890F81D0628B1012805D0022805D1F0
:100F300000F0F0B800F00CB800F078B8704700008E
:100F40007C12002000F004B800F070B800F0E2B8A5
:100F50002DE9FE43284D27482A4CE8606968274858
:100F60004FF6FF780860696825484860CDF8008032
:100F7000002163882288084602F028FF1F2004F021
:100F8000C9FA60881A210F3883B22088401F82B2C4
:100F9000052002F0FFFE10271BA0CDE90007002668
:100FA000029620886FF01D0101EB50004BF6404483
:100FB00080B243462246022104F06AF815A0CDE92A
:100FC000000743462246242102961E2004F060F8C2
:100FD00012A0CDE9000743462246382102961E2082
:100FE00004F056F80F490120087029680E4848603F
:100FF000BDE8FE8365480008BC1800203550000895
:10100000215500086002002053696E20436F6E6610
:1010100069670000467265713A200000416D706C8E
:101020003A20000018000020010F00082DE9FE43BF
:10103000284D27482A4CE860696827484FF6FF7812
:101040000860696825484860CDF800800021638801
:101050002288084602F0BAFE1F2004F05BFA60887E
:101060001A210F3883B22088401F82B2052002F077
:1010700091FE10271BA0CDE90007002602962088CC
:101080006FF0310101EB50004BF6404480B2434613
:101090002246022103F0FCFF16A0CDE900074346DB
:1010A0002246242102961E2003F0F2FF13A0CDE970
:1010B000000743462246382102961E2003F0E8FF2F
:1010C000124901200870296811484860BDE8FE8374
:1010D00041490008BC18002051500008E95500089B
:1010E00060020020537175726520436F6E666967F8
:1010F00000000000467265713A2000004475747962
:101100003A20202020202020250000001800002068
:10111000010F00082DE9FE43284D27482A4CE860BE
:10112000696827484FF6FF78086069682548486075
:10113000CDF80080002163882288084602F046FE30
:101140001F2004F0E7F960881A210F3883B2208845
:10115000401F82B2052002F01DFE10271BA0CDE922
:1011600000070026029620886FF0400101EB500036
:101170004BF6404480B243462246022103F088FFEA
:1011800017A0CDE9000743462246242102961E20DF
:1011900003F07EFF14A0CDE9000743462246382124
:1011A00002961E2003F074FF13490120087029687D
:1011B00012484860BDE8FE83AD4A0008BC18002014
:1011C00071500008AD560008600200205472696139
:1011D0006E67756C617220436F6E66696700000010
:1011E000467265713A200000447574793A202020D7
:1011F000202020202500000018000020010F0008FA
:1012000010B5446A204601F0DAF80120207110BDC3
:1012100010B5446A204601F0A8F80120207110BDE5
:1012200010B5446A206940F004002061204601F0B6
:10123000C8F80120207110BD10B5446A206940F043
:1012400004002061204601F092F80120207110BDB9
:1012500010B5406A01F0B4F810BD10B5406A01F055
:1012600085F810BD2DE9F84F304D8046A868406ED6
:1012700002F0A4F9322108FB01F02D49B1FBF0F096
:101280002C49884207D94FF4E151B0FBF1F0401EE0
:1012900086B24F1E05E04821B0FBF1F0401E86B239
:1012A0004727264C24484FF00009C4E90390DFF893
:1012B00090A04FF0FF3BE068FFF73AFA2169FFF793
:1012C0001FF8FFF7A4FA05F0D7FC00225346FFF7FA
:1012D00087F85A46FFF70CFA0C22FFF709FAFFF7D6
:1012E0007DFAAA68E16822F81100491CE160322900
:1012F000E1D3A868406E00688762A868406E006805
:10130000C662A8680F493223406EC660C1F82886BD
:10131000CDF8009000210C48AA6801F0AFF8A86849
:10132000406EBDE8F84F02F013B900007C020020C7
:1013300000A24A0440190100FDAD003E1800002043
:101340000000F03F7C12002030010020F8B50F466D
:10135000054628493846FEF7D3FFFFF70CFA80B25E
:101360000021254C40F6FF7204E0A36823F8112009
:10137000491C89B28142F8D3002604E0A16821F813
:101380001060401C80B23228F8D3A068406E02F092
:1013900015F9322019496843B1FBF0F01849884229
:1013A00007D94FF4E151B0FBF1F0401E80B2491E65
:1013B00005E04821B0FBF1F0401E80B24721A26851
:1013C000526E12689162A168496E0968C862A1688C
:1013D0003223496EC8600B48002180E8A0000096C7
:1013E0000948A26801F04AF8A068406EBDE8F840DC
:1013F00002F0AEB8000048427C02002000A24A047D
:10140000401901009C180020300100202DE9F84F00
:101410008A46074640495046FEF772FF0446214679
:101420004FF08B40FEF79EFF81465046FFF7EFF9E5
:1014300000223A4BFFF778F80022394BFFF777F894
:1014400002460B4600203749FFF7E3F8FFF70AFA98
:1014500080462046FFF78FF986B20025324C0CE01B
:101460002846FFF765F94946FEF74AFFFFF783F97B
:10147000A16821F815006D1CADB2B542F0D3354618
:10148000DFF8A8900FE0A81BFFF749F94146FEF7E7
:1014900037FF4946FEF731FFFFF76DF9A16821F8E4
:1014A00015006D1CADB2322DEDD3A068406E02F078
:1014B00085F832201E497843B1FBF0F01D4988427F
:1014C00007D94FF4E151B0FBF1F0401E80B2491E44
:1014D00005E04821B0FBF1F0401E80B24721A26830
:1014E000526E12689162A168496E0968C862A1686B
:1014F0003223496EC860104880E8800400200090C4
:1015000001460E48A26800F0B9FFA068406EBDE831
:10151000F84F02F01DB80000000048420000F03F04
:10152000000049400000B0407C02002000F07F45F0
:1015300000A24A0440190100A81800203001002030
:101540000249014848667047D0010020E818002091
:10155000014801F0B5B80000EC000020014801F09E
:10156000AFB800004401002030B590F8405001248D
:10157000AC40C56B6C60046863604368102B036803
:1015800003D099600068C26030BD9A600068C16095
:1015900030BD000001A004F017BB000064650A0024
:1015A0007047704770B5194C207AC0F10600C1B27F
:1015B0000A2003F0F0F8164D0146A86015A004F0CB
:1015C00003FB184E0221304601F030FB012805D004
:1015D0000221304601F02AFB50B110E02268A968D0
:1015E000114B10680144994200D20846106006E091
:1015F0002168AA680868904200D9801A08602068AB
:101600000168BDE8704009A004F0DEBAD4180020DB
:10161000540000206164642074656D702025640AA4
:10162000000000000010014040420F00616464208F
:1016300076616C75652025640A00000010B50B4CBE
:101640000421204601F0F2FA0028F9D008480722C8
:10165000017A491CC9B2B1FBF2F302FB131101720A
:10166000002901D10121017210BD000000100140CC
:10167000D41800200348024901604160704700000F
:10168000A1150008600000202DE9FE4F284D4FF6FF
:10169000FF768946009698461746824600216B8859
:1016A0002A88084602F092FB23482249244C016014
:1016B000224941602348C4E9038048F2304003F0E6
:1016C00029FF0620607203202072688814213C38AC
:1016D00083B22888143882B2084602F05BFB794254
:1016E0006FF01F02288802EBC1010844002210237A
:1016F000CDF80090CDE9013200EBD070142101EB60
:10170000600080B233461F22192103F0C1FC012082
:10171000C4F800A0A0720C48E168D0F8442611601B
:101720002169C0F84C16BDE8FE4F02F0A1BA0000D6
:1017300060020020A5150008600000203D1600088A
:10174000D4180020194C00087C1200202DE9F04725
:101750000D46089F82461C46164639461046FEF73F
:10176000CFFD804621462846FEF7CAFD4146FEF7DA
:10177000C1FDDFF82C9080462146C9F800003046B4
:10178000FEF7BEFD044639462846FEF7B9FD214660
:10179000FEF75EFDC9F80400CAE90080BDE8F087E5
:1017A000AC00002010B5012001F038F90448D0F851
:1017B00040060068804703494FF0C060086010BDD4
:1017C0007C1200201404014010B5042001F026F919
:1017D000074C0421204601F029FA0028F9D00548D9
:1017E0000121D0F84806817004490348086010BD03
:1017F000001001407C120020020000061404014089
:1018000010B5082001F00AF9074C0821204601F024
:101810000DFA0028F9D005480121D0F848060170DA
:1018200004490348086010BD001001407C120020EC
:10183000030000061404014010B5102001F0EEF87A
:10184000074C1021204601F0F1F90028F9D0054895
:101850000121D0F84806417004490348086010BDD2
:10186000001001407C120020040000061404014016
:1018700070B5114C0025D4F848068178012904D1AF
:101880008570D4F8400640688047D4F8480601784F
:10189000012904D10570D4F8440600688047D4F8C3
:1018A00048064178012906D14570D4F844064068BD
:1018B000BDE87040004770BD7C1200200448002144
:1018C0004170017081700349C1F8480670470000FB
:1018D000000000207C12002072B6FEE72DE9FF5FB9
:1018E000764D00238022EB81AB816B816B802B8056
:1018F000AA80FF21E98004462B8127E0B5F90E601C
:10190000B0420FDA04EBC606D6E9007CC5E90D7CCF
:1019100004EBC007D7E9008CC6E9008CD5E90D6C53
:10192000C7E9006C6A8105E0BF1B06EBD676EF8144
:1019300076106E81B5F90A60B5F90E70BE42F3DD1E
:10194000EE896F89401C3E44EE812881B5F908007C
:101950008842D3DB002028826882A8824FF48070FE
:1019600028800120A88102E0A989491CA981B5F934
:10197000001001EBD171491029800129F4D1688050
:10198000B5F90C1000B288427DDC0221401E814076
:1019900008B22882494900EBD07040102431688297
:1019A0004FF07E520026C1E90026FEF7C6FEDFF8A2
:1019B0001081DFF8109102460B4640464946FEF77B
:1019C00028FE05F0DDF8FEF74DFF3C4F2C37386060
:1019D000B5F91200FEF7B1FE02460B4640464946F5
:1019E000FEF717FE05F048F9FEF73CFF80F00040D7
:1019F0007860EE81B5F912A0B5F91000AAF10109DD
:101A0000019051E0288100B2FF283DDC504400B233
:101A1000A882A96A04EBC0000091D0E9001202A8D4
:101A20006B6AFFF793FEDDE90201DFF89080C5E9FC
:101A30000D01B5F9086008F1340854F83600D8F8FB
:101A40000010FEF757FCB5F914B004EBC60744F8D4
:101A50003B00D8F804107868FEF74CFC014604EB14
:101A6000CB00416054F83600D8F80010FEF7F0FBC8
:101A700044F83600D8F804107868FEF7E9FB78607F
:101A800001983044BEE716E0286B0090243502A888
:101A900095E80E00243DFFF759FEDDE90201C5E996
:101AA0000901E889401CE881B5F90E004845A9DD27
:101AB0006888401C63E7BDE8FF9F000070000020BD
:101AC000F1D4C853FB2109402DE9F05F6E4800278F
:101AD000A0F5805590F836166C4C05F5C26B0329BD
:101AE00065D0A0F5F87A04297DD005295DD1E7807D
:101AF000B846A946E6884D4609EB8607788AFEF780
:101B000017FE05EBC605C5F8148EC5F8100E388A09
:101B1000FEF70EFEC5F81486761CC5F81006B0B2A6
:101B2000E080FF28E6D95046FFF7D8FE5846FFF779
:101B3000D5FE4046A4F806804D4680B205EBC006AF
:101B4000D6F8100E0146FEF7DBFBD6F8146E3146D0
:101B5000FEF77EFB3146FEF77BFBFEF758FE05F0F5
:101B6000DBF8FEF73BFEE18805EB810205EBC106E1
:101B70005082D6F810060146FEF7C2FBD6F814666E
:101B80003146FEF765FB3146FEF762FBFEF73FFE8E
:101B900005F0C2F8FEF722FEE18805EB8102491C40
:101BA000108288B2E080FF28C7D9BDE8F09FE780A7
:101BB000E68805EB8600008AFEF7BAFD05EBC60154
:101BC00001F5C261761C81C1B0B2E080FF28EFD977
:101BD0005846FFF783FEE780E08805EBC006D6F89D
:101BE0001006014600E019E0FEF78AFBD6F81466FD
:101BF0003146FEF72DFB3146FEF72AFBFEF707FEC6
:101C000005F08AF8FEF7EAFDE18805EB8102491C40
:101C1000108288B2E080FF28DED9C6E7E780E68838
:101C200005EB8600408AFEF783FD05EBC60101F552
:101C30006161761C81C1B0B2E080FF28EFD95046C7
:101C4000FFF74CFEE780E08805EBC006D6F8100EE3
:101C50000146FEF755FBD6F8146E3146FEF7F8FA4A
:101C60003146FEF7F5FAFEF7D2FD05F055F8FEF71E
:101C7000B5FDE18805EB8102491C508288B2E08005
:101C8000FF28E0D991E700007C1200201800002016
:101C9000F8B500250446009590F8240001280BD0E3
:101CA000012084F824002046FEF724FF2046FEF79A
:101CB0008DFF060002D050E00220F8BDA06A20F49B
:101CC000885040F00200A062022001F04FF8254940
:101CD0000968B1FBF0F0400000E0401E00900028D1
:101CE000FBD12068816841F00801816000F0A8FF05
:101CF000074608E000F0A4FFC01B0A2803D92068AB
:101D00008068000715D4206880680007F2D4206836
:101D1000816841F00401816000F092FF074612E003
:101D200000F08EFFC01B0A280DD92068806840078C
:101D300009D5A06A20F0020040F01000A06284F8EB
:101D400024500120F8BD206880684007E8D4A06ACC
:101D500020F0020040F00100A06284F824503046D8
:101D6000F8BD00001000002070470000F8B5002406
:101D7000009490F824202546012A12D0012280F8F0
:101D800024204A681F23072A0DD20668776B521E4B
:101D900002EB820293409F430B6893401F4377639B
:101DA00019E00220F8BD06680D2A0AD2376BD21F4F
:101DB00002EB820293409F430B6893401F433763BB
:101DC00009E0F76A0D3A02EB820293409F430B68E9
:101DD00093401F43F7620A68072306680A2A0AD35A
:101DE000F7680A3A02EB420293409F438B689340A4
:101DF0001F43F76008E0376902EB420293409F43BC
:101E00008B6893401F4337610A68102A01D0112A5A
:101E100020D1124B02689A4217D193681B0219D441
:101E2000936843F4000393600968102912D10C49A8
:101E30000C4A0968B1FBF2F101EB8101490000E0B5
:101E4000491E00910029FBD104E0816A41F0200184
:101E50008162012480F824502046F8BD002401400E
:101E60001000002040420F000149D1F83816084701
:101E70007C1200207047704770B504460068066801
:101E80004568A90625D5B10723D5A16AC90603D49B
:101E9000A16A41F40071A1628168C1F3424107293E
:101EA00010D1217B71B9416821F020014160A06A05
:101EB00020F48070A062A06AC00403D4A06A40F03D
:101EC0000100A0622046FFF7CFFF21686FF01200EB
:101ED000086028062ED570072CD5A06AC00603D44A
:101EE000A06A40F40050A06220688168C1F302310A
:101EF000072909D04168490515D48168C1F34241D9
:101F0000072910D1217B71B9416821F0800141601E
:101F1000A06A20F48050A062A06AC00503D4A06A21
:101F200040F00100A0622046FFF71EFF21686FF01D
:101F30000C00086068060CD5F0070AD0A06A40F4CF
:101F40008030A062204600F095F821686FF0010013
:101F5000086070BD2DE9F04104004FF000057FD00E
:101F6000A06A002628B9E66284F82460204600F0C2
:101F700083F82046FEF7BEFDA16AC90600D420B151
:101F8000A06A40F01000A0626AE0A16A21F48851C2
:101F900041F00201A162334923688B42E16904D117
:101FA000B1F5402F01D14FF40021277B4FF4807C05
:101FB00041EA470261680A43A168614508D00129E6
:101FC00006D0002194F814E0BEF1010F02D00AE01F
:101FD0006146F7E7C7B1A76A47F02007A762E76A3B
:101FE00047F00107E7625F6827F469470F435F60C6
:101FF000236899681C4F394011439960A168614575
:102000000BD0012909D00CE0DFF860E0A7690EEBE6
:1020100047370F4347F40061E5E7218A0D05A5F531
:1020200080152168CB6A23F470032B43CB622168AF
:1020300089680F4B1940914208D1E662A16A21F0EC
:10204000020141F00101A162BDE8F081A06A20F027
:10205000020040F01000A062E06A40F00100E0627F
:102060000120F1E7003C0140FDF7E1FF00E0FFFF48
:10207000FE0E1FFF7047000070B586B000250646B3
:10208000009501950295039500681D49884235D158
:102090001C49886940F400708861886900F4007008
:1020A0000490886940F0040088618869694600F0FE
:1020B00004000490032000900190134800F0BAFC43
:1020C000134C1248C4E900058020C4E902504000C6
:1020D0002061800060612020C4E90605204600F0F0
:1020E00013FC08B1FFF7F8FB3462002211461220FE
:1020F000666200F009FE122000F0F8FD06B070BD27
:102100000024014000100240000801400800024085
:10211000EC00002070B5044690F8240001280DD092
:10212000012084F824002046FEF750FD02004FF005
:10213000000005D084F82400104670BD022070BD58
:10214000A16A40F20123994341F48071A1621F4DBD
:1021500023681F49AB4218D10E6816F4702F14D0B3
:10216000A66A46F48016A6620E68760505D5A66AAC
:1021700026F4005646F48056A662A66AF6040AD5EE
:10218000E66A26F00606E66206E0A66A26F48016EF
:10219000A6625E68E9E7E06284F824006FF002005E
:1021A000186020688368C3F34243072B05D1A84217
:1021B00008D1096811F4702F04D0816841F48011AE
:1021C0008160B9E7816841F4A001F9E70028014086
:1021D000042401402DE9F047894604463B49006844
:1021E0003B4F0E1D9046884201D0B84207D130685F
:1021F00010F4702F03D001252846BDE8F08794F82D
:10220000240001280CD0012084F824002046FEF789
:10221000DDFC05004FF0000004D084F82400EBE75B
:102220000220EAE7A16A40F60162914341F480711D
:10223000A1622168B94218D1326812F4702F14D00B
:10224000A16A41F48011A1623168490505D5A16AEE
:1022500021F4005141F48051A162A16AC9040AD558
:10226000E16A21F00601E16206E0A26A22F480122E
:10227000A2624968E9E7E06284F82400216A15480F
:102280008862216A1448C862216A14480863216878
:102290006FF0020008602068816841F480718160FD
:1022A000216843464A464C31206A00F06BFB2068A7
:1022B0008168C1F342410729816803D041F480114C
:1022C000816099E741F4A001FAE700000024014091
:1022D000002801404B0B0008B30B0008990B0008C5
:1022E00010B5044690F82400012807D0012084F896
:1022F00024002046FEF7FEFB10B107E0022010BDCF
:10230000A16A21F4885141F00101A162002184F801
:10231000241010BD10B5044690F82400012807D001
:10232000012084F824002046FEF7E4FB10B113E0FE
:10233000022010BD21688A6822F480728A60216AB6
:1023400091F82120022A07D1084600F0FDF8A16A81
:1023500030B141F04001A162002184F8241010BD89
:1023600021F4885141F00101F5E77047704770474B
:1023700070B500B3F9B14379012B1ED00126467127
:102380000223037105682C6802F0100340F6FE7208
:102390009A409443D1E900210A439A4022432A609B
:1023A00001680A68C0249C40A2430A6006710021AB
:1023B0004171084670BD012070BD022070BD70479C
:1023C0007047704770B5040003D02079002510B124
:1023D00005E0012070BD6571204600F007F802207D
:1023E0002071256101202071002070BDF0B585B0FD
:1023F00000260546009601960296039600681A4943
:1024000088422ED11949C86940F00050C861C86996
:1024100000F000500490886940F0040088618869E9
:10242000102700F0040004900320CDE900706946F5
:102430000F4800F0FFFA104C0E48C4E90007802056
:10244000C4E9026040002061800060612020C4E98E
:102450000606204600F058FA08B1FFF73DFAAC60D6
:10246000656205B0F0BD000000740040001002403D
:102470000008014030040240440100202DE9F041F1
:102480000400069817460D461BD0617901291BD020
:102490000126667102212171C5B1E2682449916269
:1024A000E2682449D162E2682349116321680A681D
:1024B00042F080520A6018B32268042823D01C32EC
:1024C00022E00120BDE8F0810220FBE7A2681B4961
:1024D0009162A2681A49D162A2681A4911632168FF
:1024E0000A6842F480520A6020B12268042804D0AD
:1024F000103203E02268083200E00C32A06804E0E9
:102500002268143200E01832E068394600F03AFAE6
:102510000021617120B1216941F004012161D1E7FD
:1025200021680A6805F010039E4032430A60C9E73B
:10253000111200085B12000839120008011200088D
:10254000511200082112000810B590F82110002245
:10255000022905D00421816380F82020012010BDCC
:1025600001680B6823F00E030B6001680B6823F011
:1025700001030B6090F84030C46B012101FA03F3B2
:10258000636080F8211080F82020104610BD000004
:102590002DE9F05F90F821100024022903D00421D6
:1025A0008163012485E001680A6822F00E020A6056
:1025B00001680A6822F001020A603F4E3E4FB215E0
:1025C000DFF8F4C0DFF8F090DFF8ECA0DFF8E8B057
:1025D000DFF8E4E00168783F13011502ACF1640C08
:1025E000A9F15009AAF13C0AABF1280BAEF1140E87
:1025F0004FF48018B14227D9B9420ED0614512D0AC
:1026000049451DD0514518D0594518D0714501D1C3
:10261000424615E0294EB14201D1012210E0274E79
:102620001436B14201D110220AE0244E2836B142BC
:1026300006D0224A3C32914201D11A4600E02A4695
:102640001E49091F0A602BE0B94213D0614517D01B
:10265000494522D051451DD059451DD0714501D164
:1026600042461AE0B14202D14FF0807215E0134E9B
:10267000B14201D1012210E0104E1436B14201D115
:1026800010220AE00D4E2836B14206D00B4A3C32E9
:10269000914201D11A4600E02A46074980394A6032
:1026A000012180F82110002180F82010416B01B138
:1026B00088472046BDE8F09F8000024008040240A1
:1026C0002DE9F05FC16B0A6801680B68046C4FF07C
:1026D000040808FA04F8844D844E854FDFF814C2CC
:1026E000DFF81492DFF814A2DFF814B2DFF814E276
:1026F00018EA020F65D05FEA437862D50A6892064D
:1027000003D40A6822F004020A60DFF8F0814FF473
:102710008062016808F1140813011402414524D9AC
:10272000A9420DD0B1420FD0B9421AD0614515D09F
:10273000494515D0514501D1120312E0594501D147
:1027400004220EE0714501D140220AE06D4D14359E
:10275000A94206D06B4A2832914201D11A4600E0C4
:1027600022466749091F0A6029E0A94213D0B142F5
:1027700015D0B94220D061451BD049451BD05145E9
:1027800002D14FF4800217E0414502D14FF0806240
:1027900012E0594501D104220EE0714501D14022D9
:1027A0000AE0584D1435A94206D0564A28329142C3
:1027B00001D11A4600E022464B4908394A60C16AF5
:1027C00071E04FF0020808FA04F818EA020F70D01E
:1027D0005FEA83786DD50A68920606D40A6822F00B
:1027E0000A020A60012180F82110DFF810814FF4FD
:1027F0000072016808F1140813011402414524D93C
:10280000A9420DD0B1420FD0B9421AD0614515D0BE
:10281000494515D0514501D1120312E0594501D166
:1028200002220EE0714501D120220AE0354D143517
:10283000A94206D0334A2832914201D11A4600E01B
:1028400022462F49091F0A6029E0A94213D0B1424C
:1028500015D0B94220D061451BD049451BD0514508
:1028600002D14FF4001217E0414502D14FF000723F
:1028700012E0594501D102220EE0714501D120221A
:102880000AE0204D1435A94206D01E4A2832914252
:1028900001D11A4600E02246134908394A60002156
:1028A00080F82010816A00291CD0BDE8F05F08473D
:1028B000FFE70825A540154214D01A0712D50A686B
:1028C00022F00E020A6090F84020C36B012101FA49
:1028D00002F25A60816380F82110002180F82010F4
:1028E000016BE0E7BDE8F09F080002401C000240D9
:1028F0003000024044000240580002406C00024098
:10290000080402401C04024030B560B11A4B026852
:1029100014219A4209D2194B1344B3FBF1F18900F7
:10292000016417490AE0012030BD134B5B42134498
:10293000B3FBF1F1890001640F490839C163022139
:1029400080F82110136843F6F0718B43F0E901140D
:102950002143D0E902452C432143046921434469C2
:1029600021438469214319431160002141630122FD
:1029700042770177084630BD08040240F8FFFDBFEA
:102980000000024070B5044690F8200000250128A0
:102990000CD0012084F8200094F821600020012E42
:1029A00006D084F820000225284670BD022070BDA4
:1029B000022684F82160A0632068066826F00106DC
:1029C00006602046FEF7D0FDE06A00282068016816
:1029D00002D041F00E0106E021F004010160206800
:1029E000016841F00A0101602068016841F00101BD
:1029F0000160D9E770B5044600F022F90546601C75
:102A000002D004480078044400F01AF9401BA042A8
:102A1000FAD370BD0400002070470000044910B5CF
:102A20000A68024202D00860FFF7F6FF10BD0000FE
:102A3000140401402DE9F84FDFF8C8910024A9F1F2
:102A4000040B23460F2709F1040AABF1040ED1E071
:102A50000125A54006EA0502AA4276D1DFF8A8C101
:102A60004E68A6EB0C0866452BD00DDC032E34D047
:102A700005DC36B3012E19D0022E2FD11BE0112E0A
:102A800016D0122E2AD119E0B8F5881F19D006DC0D
:102A9000B8F5803F15D0B8F5801F1FD111E0B8F50B
:102AA000001F0ED0B8F5041F18D10AE0CB6815E05E
:102AB000CB681B1D12E0CB6808330FE0CB680C33EA
:102AC0000CE08B682BB1012B4FF0080303D045615C
:102AD00004E0042302E0056100E00023FF2A01D89E
:102AE000064601E000F104064FEA840501D9A5F18C
:102AF0002005D6F8008007FA05FC28EA0C0803FA3E
:102B000005F548EA0508C6F800804D68ED0070D567
:102B10003E4DAE6946F00106AE61AD6924F0030694
:102B200005F0010500953A4D06EB050CDCF8085060
:102B3000A607360F07FA06F825EA0805DFF8D4805D
:102B4000404503D14FF0000825E052E0DFF8C8808F
:102B5000404502D14FF001081DE0DFF8C08040453C
:102B600002D14FF0020816E0DFF8B480404502D1F0
:102B70004FF003080FE0DFF8AC80404502D14FF082
:102B8000040808E0DFF8A080404502D14FF00508B6
:102B900001E04FF0060808FA06F848EA0508CCF804
:102BA00008804D68D9F80060ED024D4601D5164306
:102BB00000E096432E604D68DAF80060AD0255469D
:102BC00001D5164300E096432E604D68DBF80060A7
:102BD000AD035D4601D5164300E096432E604D6877
:102BE000DEF80060ED03754601D5164300E096431C
:102BF0002E60641C0A681646E2407FF429AFBDE8E7
:102C0000F88F00000804014000001110001002407D
:102C10000000014000080140000C0140001001408C
:102C20000014014000180140001C01408068084069
:102C300000D0012070470AB1016170470904FBE729
:102C40000148806870470000040000200248816845
:102C5000027811448160704704000020074810B5D5
:102C6000016841F010010160032000F06DF80F20B1
:102C700000F006F800F024F8002010BD002002400B
:102C800070B50D4D04464FF47A712878B1FBF0F021
:102C90000A490968B1FBF0F000F0A6FB48B9102C16
:102CA00007D200222146501E00F02EF800206C6052
:102CB00070BD012070BD0000040000201000002045
:102CC000094808B5816941F001018161816901F01C
:102CD00001010091C16941F08051C161C06900F0FA
:102CE0008050009008BD000000100240002809DB61
:102CF00000F01F02012191404009800000F1E02016
:102D0000C0F8001170470000F0B40E4B1B680C4671
:102D1000C3F30223C3F10705042D00D90425191DAF
:102D2000072901D2002300E0DB1E012606FA05F187
:102D3000491E214099409E40761E16403143F0BC0A
:102D400002F07ABF0CED00E0064900F007020868C7
:102D50004FF6FF03184040EA0220034A1043086080
:102D6000704700000CED00E00000FA0510B50146C8
:102D70000020284C04292FD00BDC012930D0022957
:102D800029D100F06BF96168C1F38131491C490018
:102D90001FE0082920D010291DD161682268D201C6
:102DA00019D51D48C1F38342C903805C0AD5616807
:102DB000194AC1F34041921E515C184AB2FBF1F12D
:102DC000484301E0164948436168490203D4400082
:102DD0000321B0FBF1F010BDBDE8104000F04EB98A
:102DE000226AC2F30121012903D1920701D5C80348
:102DF00010BD022905D1626A920702D549F640400A
:102E000010BD0329FCD121688903F9D54FF2244074
:102E100010BD000000100240786D000800127A001A
:102E200000093D002DE9F84305460078354CC00700
:102E300054D0E0690026C00008D4E06940F080501A
:102E4000E061E069012600F0805000902E480168A2
:102E5000C90512D40168804641F480710160FFF712
:102E6000EFFE074605E000BFFFF7EAFEC01B64283F
:102E700023D8D8F80000C005F6D5206A10F44070B9
:102E800021D0A98801F4407181421CD0206A1F49D9
:102E9000012220F440700A6000220A602062C0070C
:102EA00011D0FFF7CDFE074641F2883808E000BF99
:102EB000FFF7C6FEC11B414502D90320BDE8F883D8
:102EC000206A8007F4D5206A696820F440700843BE
:102ED00020621EB1E06920F08050E0612878800710
:102EE00005D56068A96820F44040084360602878F0
:102EF000C00605D56068696920F4800008436060F9
:102F00000020DBE700100240007000404004424215
:102F10002DE9F0470F46050061D0434E306800F0C0
:102F20000700B84209D2306820F00700384330600B
:102F3000306800F00700B84251D128683B4C810747
:102F400012D5400703D5606840F4E06060602878DF
:102F5000000703D5606840F4605060606068A9684D
:102F600020F0F000084360602878C00728D0686827
:102F7000012810D02168022810D0890700292EDAF4
:102F8000616821F0030101436160FFF759FE80464B
:102F900041F288390DE021688903EFE78901EDE707
:102FA000FFF74EFEA0EB0801494502D90320BDE81A
:102FB000F0876068696800F00C00B0EB810FEFD11A
:102FC000306800F00700B8420BD9306820F00700E5
:102FD00038433060306800F00700B84201D001206B
:102FE000E5E72878400705D56068E96820F4E060E7
:102FF000084360602878000706D56068296920F4D6
:10300000605040EAC100606000F038F86168084A2A
:10301000C1F30311515CC8400649086006480068C6
:10302000FFF72EFE0020C2E7002002400010024001
:10303000886D0008100000200800002004480549A1
:1030400000684968044AC1F30221515CC8407047D6
:103050001000002000100240986D00080448054947
:1030600000684968044AC1F3C221515CC8407047F6
:103070001000002000100240986D00080E4A5168B0
:103080000E4801F00C03042B11D0082B0FD10C4873
:10309000C1F38343C903C05C0AD55168084AC1F330
:1030A0004041921E515C054A5043B0FBF1F070471D
:1030B00004494843704700000010024000127A00A3
:1030C000666D000800093D002DE9F84F040070D03E
:1030D0002078C04DC00749D06868C0F3810001283E
:1030E00007D06868C0F38100022809D16868C0036E
:1030F00006D52868800339D560680028E7D035E018
:103100006068B0F5803F0BD010B1B0F5A02F11D0A2
:10311000286820F480302860286820F4802002E0AD
:10312000286840F480302860606890B1FFF788FD1F
:1031300006460AE0286840F480202860F0E700BFD7
:10314000FFF77EFD801B642873D828688003F7D5BD
:103150000CE0FFF775FD064605E000BFFFF770FDC8
:10316000801B6428F0D828688003F7D420789A4E12
:1031700080074FF001094FF0000839D5686810F05A
:103180000C0F07D06868C0F38100022809D1686875
:10319000C00306D42868800714D52069012808D107
:1031A00010E02069B0B1C6F80090FFF749FD07466E
:1031B00005E00AE1FFF744FDC01B0228C4D82868D7
:1031C0008007F7D52868616920F0F80040EAC1005F
:1031D00028600DE0C6F80080FFF732FD074604E0E6
:1031E000FFF72EFDC01B022823D828688007F7D4DC
:1031F000207800072CD57948A169D9B1C0F8009092
:10320000FFF71EFD074604E0FFF71AFDC01B02286A
:103210000FD8686A8007F7D571484FF4FA510068F3
:10322000B0FBF1F0009000BF0098411E0091FAD26F
:103230000EE080E0C0F80080FFF702FD074604E0E2
:10324000FFF7FEFCC01B022875D8686A8007F7D418
:103250002078400760D5E8690027C00008D4E869F5
:1032600040F08050E861E869012700F0805000904C
:103270005C480168C90513D40168834641F4807134
:103280000160FFF7DDFC824606E000BFFFF7D8FCD7
:10329000A0EB0A0064284ED8DBF80000C005F5D585
:1032A000E06801280AD008B1052813D0286A20F068
:1032B00001002862286A20F0040002E0286A40F039
:1032C00001002862E06841F2883B98B1FFF7B8FC42
:1032D00082460BE0286A40F004002862EEE700BF57
:1032E000FFF7AEFCA0EB0A0159455AD8286A8007BF
:1032F000F6D50CE0FFF7A4FC824605E0FFF7A0FC42
:10330000A0EB0A0159454CD8286A8007F6D41FB1B2
:10331000E86920F08050E861E06988B36968C1F32A
:103320008101022944D00228C6F8608004D0FFF74A
:1033300087FC044638E034E0FFF782FC074604E0EF
:10334000FFF77EFCC01B02282BD828688001F7D429
:10335000206AB0F5803F05D16868A16820F400308C
:1033600008436860D4E908010843696821F47411CE
:1033700008436860C6F86090FFF762FC044606E008
:1033800025E000BFFFF75CFC001B022809D8286875
:103390008001F7D51BE000BFFFF752FC001B02289D
:1033A00002D90320BDE8F88F28688001F4D40EE02C
:1033B0000128F7D06868226A00F48031914204D174
:1033C000616A00F47010884201D00120EAE7002011
:1033D000E8E7000000100240000042428004424240
:1033E000100000200070004010B5401EB0F1807F3A
:1033F00001D3012010BD4FF0E02460610F21601760
:1034000002F01AFC0020A06107202061002010BDFE
:103410007047704770B590F83C20012A2CD00124E9
:1034200080F83C40022280F83D2003685A689D687D
:1034300022F070060A6832435A60104B02689A42C2
:103440000ED00F4B9A420BD0B2F1804F08D00D4BEB
:103450009A4205D00C4B9A4202D00C4B9A4204D1AE
:10346000496825F080031943916080F83D400021B0
:1034700080F83C10084670BD022070BD002C014051
:10348000003401400004004000080040000C0040EF
:1034900010B5040003D094F83D0010B107E00120FE
:1034A00010BD002084F83C00204600F01FF80220E8
:1034B00084F83D00211D206801F082FE012084F87F
:1034C000460084F83E0084F83F0084F8400084F809
:1034D000410084F8420084F8430084F8440084F8F2
:1034E000450084F83D00002010BD000008B5154AD5
:1034F0000168154891420ED1C16941F00201C161D4
:10350000C069002200F00200009011461D20FFF764
:10351000FBFB1D2010E00D4A914211D1C16941F021
:103520000401C161C069002200F00400009011464E
:103530001E20FFF7E9FB1E20BDE80840FFF7D6BBC1
:1035400008BD0000000400400010024000080040D8
:1035500090F83D10012901D001207047022180F828
:103560003D100168CA6842F00102CA6000680E4955
:1035700088420ED00D4988420BD0B0F1804F08D060
:103580000B49884205D00B49884202D00A4988423B
:1035900004D1816801F00701062903D0016841F0D8
:1035A0000101016000207047002C014000340140FF
:1035B0000004004000080040000C00400168CA6898
:1035C00022F00102CA6001680A6A41F211131A422C
:1035D00007D10A6A9B101A4203D10A6822F001023D
:1035E0000A60012180F83D100020704770B5044644
:1035F00090F83C000025012817D0012684F83C6093
:10360000022084F83D002068826822F0770222F4CC
:103610007F4282600868502838D00DDC20284FD0C7
:1036200005DC90B3102811D14AE0022070BD30288B
:1036300046D040280AD13BE060282FD070280DD01A
:10364000B0F5805F03D0B0F5005F12D0012584F89B
:103650003D60002084F83C00284670BDCB68D1E96D
:103660000121206801F0F2FD2068816841F07701B6
:1036700009E0CB68D1E90121206801F0E7FD20686D
:10368000816841F480418160E1E719E0CA684968D6
:10369000206801F0EDFD5021206806E0CA68496805
:1036A000206801F0F6FD6021206801F0D9FDCEE729
:1036B000CA684968206801F0DBFD40212068F4E712
:1036C000226801461046F0E7704770B5044600686E
:1036D00001694FF00005C943890715D4C168C94382
:1036E000890711D4E91E01610120207720688069D3
:1036F0008007204602D0FFF7E7FF04E000F098F8CB
:10370000204600F096F8257720680169C9434907EB
:1037100017D4C168C943490713D46FF0040101618C
:10372000022020772068806910F4407F204602D074
:10373000FFF7CAFF04E000F07BF8204600F079F8BC
:10374000257720680169C943090716D4C168C943B0
:10375000090712D46FF00801016104202077206866
:10376000C0698007204602D0FFF7AEFF04E000F0FA
:103770005FF8204600F05DF8257720680169C943AD
:10378000C90617D4C168C943C90613D46FF0100124
:103790000161082020772068C06910F4407F20462E
:1037A00002D0FFF791FF04E000F042F8204600F05D
:1037B00040F8257720680169C943C90708D1C16865
:1037C000C943C90704D1891E0161204600F032F8BF
:1037D00020680169C943090609D4C168C9430906BB
:1037E00005D46FF0800101612046FFF711FE2068CB
:1037F0000169C943490609D4C168C943490605D4CA
:103800006FF040010161204600F015F82068016961
:10381000C94389060BD4C168C943890607D46FF030
:10382000200101612046BDE87040FFF7F2BD70BD88
:10383000704770477047704770477047F8B5016828
:1038400004460868CA684B6910F00F0F4FF0000576
:1038500059D003F0010602F49077374365D0C107D1
:1038600005D0D10503D5616C41F0010161644107C8
:1038700005D5D90703D0616C41F00201616481076D
:1038800005D5D90703D0616C41F0040161640107DB
:1038900007D502F02001314303D0616C41F00801EB
:1038A0006164616C00293AD0800604D5900602D587
:1038B000204601F036FD20684069616CC0F380103D
:1038C000090700D460B3204601F004FD2068406978
:1038D000400621D52068143050E8001F21F0400137
:1038E00040E80012002AF5D1E06BA8B16D494163B0
:1038F000E06BFEF74DFE002811D0E06B416B01B08C
:10390000BDE8F040084783060FD593060DD5204645
:10391000BDE8F84001F005BD2046FFF78EFFF8BD79
:103920002046FFF78AFF6564F8BD266B2023012E31
:103930007CD1C6067AD5D60678D508684868009046
:1039400048694FF00206400640D5E16B08684068C0
:103950000004000CE8D0A28D8242E5D9E085886998
:1039600020282DD020680C3050E8001F21F48071F1
:1039700040E80012002AF5D12068143050E8001FFA
:1039800021F0010140E80012002AF5D1206814302E
:1039900050E8001F21F0400140E80012002AF5D154
:1039A00084F84230256320680C3050E8001F21F075
:1039B000100140E80012002AF5D1E06BFEF7C4FDCB
:1039C0006663A08DE18D401A81B22AE0A08DE18D61
:1039D000401A81B2E08D0028A6D00029A4D0226828
:1039E0000C3252E8000F20F4907042E80007002FDC
:1039F000F5D12068143050E8002F22F0010240E891
:103A00000027002FF5D184F84230256320680C3060
:103A100050E8002F22F0100240E80023002BF5D1DF
:103A200066632046FFF708FFF8BDFFE705062BD5C4
:103A3000150629D594F841002128F5D1A068B0F5E4
:103A4000805F01D12069B0B1206A411C21622168E8
:103A500000784860E08C401E0004000CE084E3D154
:103A60002068C16821F08001C1602068C16841F010
:103A70004001C160D8E7206A0088C0F308004860B0
:103A8000206A801C2062E5E74006CDD55006CBD5E4
:103A9000CA68204622F04002CA6084F8413000F033
:103AA000C3F8C1E7C552000870B5040004D094F80B
:103AB0004100002510B106E0012070BD84F840509F
:103AC000204600F023F8242084F841002068C168D3
:103AD00021F40051C160204601F084FC2068016996
:103AE00021F4904101612068416921F02A0141617E
:103AF0002068C16841F40051C1606564202084F8E9
:103B0000410084F842006563002070BD30B585B087
:103B10000024009401940294039400681849884298
:103B20002CD11848C16941F40021C161C16901F477
:103B300000210491816941F0100181618069124D79
:103B400000F0100004904FF480600090022001907B
:103B50000320039069462846FEF76CFFE814CDE980
:103B60000004694628460294FEF764FF00221146CD
:103B70003420FFF7C9F83420FFF7B8F805B030BD9E
:103B8000004C0040001002400010014070472DE939
:103B9000F843044690F841001F4616460D4620287B
:103BA00002D00220BDE8F8837DB176B100206064C8
:103BB000212084F84100FFF743F8A6848046E6847C
:103BC000A068B0F5805F02D003E00120EAE7206939
:103BD00010B12E4600250EE000260CE08021204684
:103BE00001F05CFCA0B9AEB116F8010B2168486089
:103BF000E08C401EE084E08C43464FF000020097CA
:103C00000028EBD14FF04001204601F047FC30B1D5
:103C10000320C7E735F8020BC0F30800E6E72020D1
:103C200084F841000020BDE77047000001A001F0CA
:103C3000CBFFFEE748617264206661756C74206991
:103C40006E746572727570740A000000054904484C
:103C5000C1F844060449416004490160704700000E
:103C6000680000207C120020410E0008610E000850
:103C70000249014848607047410E00086800002072
:103C80002DE9F041134C804600216088401E83B22C
:103C90002088401E82B2084600F042FA0E484FF4D7
:103CA000805707600D4940200861002609E0002583
:103CB00003E0404600F03CFB6D1C2088A842F8D889
:103CC000761C6088B042F2D80348001F0760BDE848
:103CD000F081000060020020140C0140001001403F
:103CE0002DE9FE4F161ACDE900104FF000085D1ABD
:103CF00047464FF0FF30002E02DD4FF0010102E099
:103D000003D14FF000018B4602E08346C6F1000666
:103D1000002D02DD4FF0010002E003D14FF0000062
:103D2000824602E08246C5F10005AE4201DD34461E
:103D300000E02C46601C4FF00009029018E000984B
:103D400081B2019880B200F019F8B0442F44A04528
:103D500004DD0198A8EB040858440190A74203DD54
:103D600000983F1B5044009009F101001FFA80F9B0
:103D700002998945E3DDBDE8FE8F000000B500F043
:103D8000CBF9034800885DF804EB00F0D1BA0000DD
:103D900014000020F0B51C4615460E4607460B469B
:103DA000FFF79EFF3A46234631461046FFF798FF3D
:103DB00023462A4619463846FFF792FF2A462346ED
:103DC0003146BDE8F0401046FFF78ABF2DE9F041CB
:103DD000141A641CA6B25C1A641CA7B2DDF8188021
:103DE00000F09EF900250AE0002404E0404600F0BF
:103DF0009FFA641CA4B2B442F8D36D1CADB2BD42AC
:103E0000F2D3064841880088491EBDE8F041401EB3
:103E10008BB282B20021084600F082B96002002015
:103E20001E4810B5816986B041F008018161816941
:103E300001F008010491816941F0100181618169FB
:103E400001F010010491816941F0040181618069F0
:103E5000134C00F0040004904FF4704000900320D5
:103E600003900120019069462046FEF7E3FDA0156E
:103E7000009069460B48FEF7DDFD40200090694642
:103E80000948FEF7D7FD002001904FF480400090D4
:103E900069462046FEF7CEFD06B010BD0010024078
:103EA000000C0140000801400010014010B57820CE
:103EB000FEF7A0FDFFF7B4FF00F01CF9112000F0A1
:103EC000EFF97820FEF796FDB12000F0E9F9012026
:103ED00000F0D4F92C2000F0D1F92D2000F0CEF91B
:103EE000B22000F0DDF9012000F0C8F92C2000F02C
:103EF000C5F92D2000F0C2F9B32000F0D1F901205E
:103F000000F0BCF92C2000F0B9F92D2000F0B6F932
:103F1000012000F0B3F92C2000F0B0F92D2000F0C2
:103F2000ADF9B42000F0BCF9072000F0A7F9C020DB
:103F300000F0B6F9A22000F0A1F9022000F09EF9ED
:103F4000842000F09BF9C12000F0AAF9C52000F000
:103F500095F9C22000F0A4F90A2000F08FF90020A2
:103F600000F08CF9C32000F09BF98A2000F086F95C
:103F70002A2000F083F9C42000F092F98A2000F092
:103F80007DF9EE2000F07AF9C52000F089F90E20C5
:103F900000F074F9362000F083F9C02000F06EF9CB
:103FA000E02000F07DF90F2000F068F91A2000F001
:103FB00065F90F2000F062F9182000F05FF92F205A
:103FC00000F05CF9282000F059F9202000F056F9A3
:103FD000222000F053F91F2000F050F91B2000F0C0
:103FE0004DF9232000F04AF9372000F047F900206E
:103FF00000F044F9072000F041F9022000F03EF9FA
:10400000102000F03BF9E12000F04AF90F2000F009
:1040100035F91B2000F032F90F2000F02FF917209E
:1040200000F02CF9332000F029F92C2000F026F9BB
:10403000292000F023F92E2000F020F9302000F094
:104040001DF9302000F01AF9392000F017F93F204F
:1040500000F014F9002000F011F9072000F00EF92B
:10406000032000F00BF9102000F008F92A2000F0DE
:1040700017F9002000F002F9002000F0FFF80020FE
:1040800000F0FCF87F2000F0F9F82B2000F008F990
:10409000002000F0F3F8002000F0F0F8002000F01D
:1040A000EDF89F2000F0EAF8F02000F0F9F8012088
:1040B00000F0E4F8F62000F0F3F8002000F0DEF85D
:1040C0003A2000F0EDF8052000F0D8F8292000F0A3
:1040D000E7F8012000F006F9012211020448FEF77A
:1040E000AAFDBDE810404FF6FF70FFF7C9BD000004
:1040F0000008014010B507484FF480440460642074
:10410000FEF778FC0348001F0460BDE81040322031
:10411000FEF770BC140C01400B460246AFF3008062
:104120002DE9F041134C0746984615460E46A07AF5
:1041300000F0B6F8002000F0A1F8F8B200F09EF808
:10414000002000F09BF8E8B200F098F8207B00F027
:10415000A7F8002000F092F8F0B200F08FF80020ED
:1041600000F08CF808F0FF0000F088F8BDE8F0419E
:1041700000F0A8B8600200202DE9FF4F81B08A4608
:104180000EA9DFF8E89091E83100203800F0FF0830
:104190000AEB0400401E83B20198B9F800B000EBAE
:1041A0005400401E82B251460198FFF7B9FF002D1E
:1041B0004FF0000548D12E4808EB480100EB810A7A
:1041C0002C4800EB081817E00C2C03D018F80570E9
:1041D00000260CE01AF80570FAE7F80701D00398FA
:1041E00000E0049800F0A4F87F08761CF6B2B6EB65
:1041F000540FF2D36D1CEDB2A542E5D326E00C2C92
:1042000008D01C4901EB08100026475D0AEB0500A9
:10421000009014E0164808EB480100EB8100F3E73A
:104220000398A9F80000F80706D0009881B2019819
:10423000304480B2FFF7A2FD7F08761CF6B2B6EBE1
:10424000540FEDD36D1CEDB2A542D8D30A48A9F89E
:1042500000B04188008805B0491EBDE8F04F401EFF
:104260008BB282B200210846FFF75ABF140000202B
:10427000A06D0008147200086002002010B5064905
:104280004FF480540C60054A4021116100F08EFD0E
:104290000148001F046010BD140C014000100140D3
:1042A00010B506494FF480540C60054A4021516115
:1042B00000F07CFD0148001F046010BD140C01409B
:1042C000001001400148007AFFF7EABF60020020B9
:1042D00010B50C46FFF7E4FFE0B2BDE81040FFF771
:1042E000CDBF000011492A224A812B228A812C222B
:1042F0000A818222A02358B101280DD002280FD0B4
:10430000032811D10B804A8060213620FFF7E0BFDF
:104310000A804B80C021F8E70B804A80A021F4E797
:104320000A804B800021F0E7704700006002002007
:1043300030B5044608484FF48055056007494020D1
:104340000861200A00F032FDE0B200F02FFD0248C3
:10435000001F056030BD0000140C0140001001403A
:10436000FEB500241548009401941349029401609D
:10437000891581600473047502250561C9024460D2
:10438000C161FDF7E7FD08B1FDF7A6FA0126CDE909
:104390000046694609480294FDF7E8FC08B1FDF7BC
:1043A0009BFACDE9006569460448FDF7DFFC00286B
:1043B00001D0FDF791FAFEBD00240140BC000020B1
:1043C0001CB500240C4900940A4801940860084672
:1043D000FDF7F8FF08B1FDF77FFA2C20CDE90004C6
:1043E000002269460448FDF7C3FF002801D0FDF70D
:1043F00073FA1CBD0074004030010020114808B55C
:10440000416941F001014161416901F001010091FF
:10441000416941F0020141614069002200F002005F
:10442000009011460B20FEF76FFC0B20FEF75EFCA0
:10443000002211463A20FEF767FCBDE808403A200A
:10444000FEF754BC001002402DE9F04186B031481F
:1044500000260396816941F010018161816901F0B4
:1044600010010491816941F020018161816901F0AD
:1044700020010491816941F0040181618069264F26
:10448000012400F00400DFF89480CDE90047022504
:104490000490694602954046FEF7CCFACDE90056F5
:1044A000694640460295FEF7C5FA0420CDE90007AB
:1044B000694602944046FEF7BDFA1820009018485D
:1044C000CDE9010469464046FEF7B4FA0022012115
:1044D0000620FEF719FC0620FEF708FC0022012149
:1044E0000820FEF711FC0820FEF700FC0022012145
:1044F0000920FEF709FC0920FEF7F8FB0022012144
:104500000A20FEF701FC0A20FEF7F0FB06B0BDE82A
:10451000F081000000100240000011100010014066
:104520000000211010B586B00024184800940194B2
:1045300002940394049414490594016041F61F41C8
:10454000C0E9011442F20F71C0E9031480218161B6
:10455000FEF79EFF08B1FDF7BFF94FF480500090C1
:1045600069460A48FFF742F808B1FDF7B5F920207F
:10457000CDE9040404A90548FEF74CFF002801D04A
:10458000FDF7AAF906B010BD000400408801002024
:1045900010B586B000241848009401940294039446
:1045A000049414490594016041F61F41C0E90114C7
:1045B00042F20F71C0E9031480218161FEF768FFA8
:1045C00008B1FDF789F94FF48050009069460A4818
:1045D000FFF70CF808B1FDF77FF92020CDE90404BE
:1045E00004A90548FEF716FF002801D0FDF774F96D
:1045F00006B010BD00080040D00100200C4810B5E6
:104600000A4901604FF4E1314160002181600C22D0
:10461000C160C0E904128161C161FFF745FA002859
:1046200003D0BDE81040FDF757B910BD004C004065
:1046300018020020FEB5364D34480026D5F8441641
:10464000374C48603348C5F84C06D5F84416324814
:104650000860D5F840163148486000966388228883
:1046600031463046FFF7B2FB608810210F3883B225
:104670002088801F82B20520FFF752FD95F835068D
:10468000002842D0012840D10C2026A1CDE90010FD
:10469000029620884FF6FF76283880B24FF61F0327
:1046A0003246032100F0F4FC304600F033FF60880E
:1046B00010210F3883B22088401F82B20520FFF7F7
:1046C00069FB304600F026FF61886FF0030000EBC5
:1046D0005100218883B2491F8AB281B20520FFF7B9
:1046E000FFFA608810210F3883B220884008024604
:1046F000FFF7F6FAD5F840160C480860B5F8100632
:10470000BDE8FE4080B2FCF749BBFEBDDD4D0008B0
:104710007C120020115700089D0E00087947000800
:1047200060020020204155544F200000490C000831
:1047300001A001F049FAFEE74D656D6F7279206DB9
:10474000616E6167656D656E74206661756C740A73
:104750000000000001A001F037FAFEE7204E6F6E66
:10476000206D61736B61626C6520696E7465727235
:10477000757074200A000000054890F8341601296D
:1047800001D0012100E0002180F8341670470000BC
:104790007C120020704703460120002202E05843AB
:1047A000521CD2B28A42FAD3704700002DE9F0477A
:1047B0002A4E2B4D4BF6404896F81D0603244FF623
:1047C000FF79E8B34FEA090000F0A4FE28886A23C5
:1047D000143890FBF4F00C3082B222210E20FFF747
:1047E000D9FA96F81D060B27012832D04FEA0900A6
:1047F00000F090FE28886A23143890FBF4F190FBB7
:10480000F4F007EB41018AB20E3080B22221FFF7AB
:10481000C1FA96F81D060D2602281CD04FEA0900A1
:1048200000F078FE2888143890FBF4F190FBF4F047
:1048300001EB4101093106EB40008AB280B200E091
:1048400005E0BDE8F0476A232221FFF7A3BA4046FE
:10485000BAE74046CCE74046E2E700007C12002081
:10486000600200202DE9FE4320220A212C48FBF79C
:10487000DDFC2C48D0F82806FBF770FF00222A4BFD
:10488000FBF7C7FE02460B4628A1254801F0ACF90C
:10489000234800241C38224F017810254FF6FF7062
:1048A0004BF6404601292BD0022927D121A1CDE981
:1048B0000015034680461A46029424210A2000F07F
:1048C000E7FB1CA043461F220294CDE900053821D6
:1048D0000A2000F0DDFB0097CDE901544346324643
:1048E0002421502000F0D4FB13A0CDE9000543465D
:1048F000324638210294502000F0CAFBBDE8FE8306
:104900000CA1CDE90015804603461F220294242104
:104910000A2000F0BDFB434606A01A460294D4E7E5
:10492000340000207C12002000408F40252E33668A
:104930004B487A003E3E0000332E333056000000D4
:104940002DE9FE4F20220A214D48FBF76FFC4D4E0A
:10495000D6F82006FBF702FF00224B4BFBF759FE6F
:1049600002460B4649A1464801F03EF9444800245E
:104970003038434F01781025DFF818A14FF6FF704B
:104980004BF64048012940D002293CD142A1CDE953
:104990000015034681461A46029424210A2000F09D
:1049A00077FB3DA0CDE900054B461F22382102943C
:1049B0000A2000F06DFB0097CDE901544B464246BA
:1049C0002421502000F064FB20220A213846FBF706
:1049D0002DFC5146D6F82406FBF792FCFBF717FF97
:1049E00002460B462DA1384601F0FEF80097CDE9AE
:1049F00001544B4642463821502000F049FB2948DB
:104A0000D6F840160860BDE8FE8F23A1CDE9001559
:104A1000814603461F22029424210A2000F038FB1D
:104A20001DA0CDE900054B461A46382102940A2004
:104A300000F02EFB0097CDE901544B46424624215D
:104A4000502000F025FB20220A210D48FBF7EEFB49
:104A50005146D6F82406FBF753FCFBF7D8FE024676
:104A60000B460EA1064801F0BFF80097CDE90154AE
:104A70004B4642463821502000F00AFB0A48BFE767
:104A8000480000207C12002000408F40252E336615
:104A90004B487A000000C8423E3E0000252E326698
:104AA0000000000055550008A11500082DE9FE4F33
:104AB00020220A214D48FBF7B9FB4D4ED6F82C06B3
:104AC000FBF74CFE00224B4BFBF7A3FD02460B46C7
:104AD00049A1464801F088F8444800242638434F4D
:104AE00001781025DFF818A14FF6FF704BF640480B
:104AF000012940D002293CD142A1CDE9001503464D
:104B000081461A46029424210A2000F0C1FA3DA0F1
:104B1000CDE900054B461F22382102940A2000F0FF
:104B2000B7FA0097CDE901544B4642462421502064
:104B300000F0AEFA20220A213846FBF777FB5146F7
:104B4000D6F83006FBF7DCFBFBF761FE02460B46AE
:104B50002DA1384601F048F80097CDE901544B46A5
:104B600042463821502000F093FA2948D6F84016E2
:104B70000860BDE8FE8F23A1CDE9001581460346FC
:104B80001F22029424210A2000F082FA1DA0CDE900
:104B900000054B461A46382102940A2000F078FAA4
:104BA0000097CDE901544B4642462421502000F0A5
:104BB0006FFA20220A210D48FBF738FB5146D6F840
:104BC0003006FBF79DFBFBF722FE02460B460EA1CB
:104BD000064801F009F80097CDE901544B464246DA
:104BE0003821502000F054FA0A48BFE73E00002068
:104BF0007C12002000408F40252E33664B487A00FF
:104C00000000C8423E3E0000252E32660000000033
:104C100019560008A11500082DE9FE435F4FB87A28
:104C200001287DD138685E495F4C00681026B0FBD2
:104C3000F1F201FB12015B4A0025B1FBF2F1B0FB7E
:104C4000F2F302FB130342F21072B3FBF2F3617052
:104C5000A370B0FBF2F302FB13034FF47A72B3FBC1
:104C6000F2F3E370B0FBF2F302FB13036422B3FB35
:104C7000F2F32371B0FBF2F302FB13030A22B3FB3E
:104C8000F2F36371B0FBF2F302FB1300A071303159
:104C9000C8B2CDE900064FF6FF7843461F222D210A
:104CA00002951E20FFF768FAA0782D213030C0B29F
:104CB000CDE9000643461F2202950846FFF75CFA3D
:104CC000E07843463030C0B2CDE900061F222D21E6
:104CD00002953C20FFF750FA2E20CDE9000643460E
:104CE0001F222D2102954B20FFF746FA20794346DB
:104CF0003030C0B2CDE900061F222D2102955A2086
:104D0000FFF73AFA607943463030C0B2CDE9000689
:104D10001F222D2102956920FFF72EFAA07900E0CD
:104D200039E03030C0B2CDE9000643461F222D21C4
:104D300002957820FFF720FA387A032800D9401C22
:104D40002070404600F0E6FB3D23802219461C20DF
:104D5000FEF7C6FF3E23802219461C20FEF7C0FF47
:104D60004FF4784000F0D6FB20783D23C0EB0010D4
:104D700000F1170219460D30FEF7B2FF207803B09C
:104D8000C0EB0010BDE8F0433E2300F117021946C6
:104D90000D30FEF7A5BFBDE8FE830000D41800204B
:104DA00040420F00A08601005400002070B5094B5E
:104DB00008210C031D1D8A02060601D51C6000E0B7
:104DC0002C602A601A604006000E491E11F0FF0197
:104DD000F2D170BD100C0140704700002DE9FE4F6C
:104DE000FEF746FF824D8148844CD5F844164FF6B5
:104DF000FF7608607F48C5F84C06D5F840167E4817
:104E0000086000960021638822880846FEF7DEFFCE
:104E100048F2304000F07EFB0022102178A08DE89F
:104E2000070020886FF03B0101EB50004BF6404A31
:104E300080B2334657465246052100F029F9608872
:104E40001E21143883B220880A3882B20A20FEF765
:104E5000A1FF20884FF0030B5E46143890FBF6F05C
:104E60000B3082B2692323210F20FEF793FF3846CF
:104E700000F050FB2088323890FBF6F0C6B20124D7
:104E800026E03046FBF76AFC02460B466148624961
:104E9000FBF7BFFB074688462046FBF75FFC3A4618
:104EA0004346FBF744FB5B4A5C4BFBF799FA01F086
:104EB000E3FE00225A4BFBF73AFBFBF770FC40B2D3
:104EC000373081B204F11300FEF758FF641CE4B2DE
:104ED000B442D6D34FF0100852A1CDE900180027F4
:104EE0004FF6FF731F2202975021162000F0D0F8D2
:104EF00048F23049484600F00DFB404E5C460A221D
:104F000030886923143890FBF4F190FBF4F002EB45
:104F100041018AB20F3080B22321FEF73BFF504699
:104F200000F0F8FA2823502219464120FEF7D8FE57
:104F300050224B2328211046FEF7D2FE4B235F223E
:104F400019465020FEF7CCFE308837A2143890FB6B
:104F5000F4F0CDE90028163080B24FF6FF730297C7
:104F60001F22502100F094F8484600F0D3FA308810
:104F70006923143890FBF4F190FBF4F001EB41014C
:104F800008318AB20E2101EB400080B22321FEF7E6
:104F900001FF308825A2143890FBF4F01521CDE9EB
:104FA000002801EB400080B24FF6FF7302971F22EA
:104FB000502100F06DF8504600F0ACFA4B237822F7
:104FC00028216E20FEF78CFE282382224B21782098
:104FD000FEF786FE4B238C2228218220FEF780FEDE
:104FE000D5F8401612484860BDE8FE8F210F000832
:104FF0007C120020AD470008A115000860020020C7
:105000005761766520547970652053656C656374CB
:1050100000000000F1D4C853FB211940FB210940D6
:105020000000324053494E0053515500545249003C
:10503000E10E000810B5FFF7FDFA0448B0F82806A5
:10504000BDE8104080B2FCF70DB900007C120020D2
:1050500010B5FFF7EFFA0548D0F82416B0F820068F
:10506000BDE8104080B2FCF771B900007C1200204E
:1050700010B5FFF7DFFA0548D0F83016B0F82C0667
:10508000BDE8104080B2FCF7C1B900007C120020DE
:105090002DE9FF4F83B00446DDE9106581469B464C
:1050A000884600201F4FDDF848A00DE060B9388821
:1050B000A0EB5500A0420ADB7888401B404506DB88
:1050C0003078802806D9012031780029EED107B048
:1050D000BDE8F08F0D280DD0102D12D910228DE8CB
:1050E00005045B4641462046059AFFF745F808341B
:1050F000A4B211E008EB05001FFA80F84C46761CBC
:105100000AE08DE821045B4641462046059AFFF7F8
:1051100033F804EB550084B216F8011F0029C6D1FC
:10512000D5E7000060020020FDF790BD30B595B0D6
:1051300028216846FBF781F814210AA8FBF77DF8BF
:1051400018210FA8FBF779F801210804CDE9001018
:105150000025029502240491CDE907404FF4E010A8
:1051600009906846FDF7B0FF08B172B6FEE70AA9DC
:105170000F2081E831004FF48060CDE90D05022158
:105180000AA8FDF7C5FE08B172B6FEE74FF400406D
:1051900011900F940FA8FDF745FE002801D072B6BC
:1051A000FEE715B030BD70470148FEF78EBA00002B
:1051B000880100200148FEF788BA0000D0010020D5
:1051C000F0B502681C4B1D4D1D4E1E4F1E4C4FF07E
:1051D000804C984209D0A04207D0604505D0A84233
:1051E00003D0B04201D0B84204D122F0700E4A6818
:1051F00042EA0E02984209D0A04207D0604505D08D
:10520000A84203D0B04201D0B84203D122F4407585
:10521000CA682A434D6922F080022A4302608A68E4
:10522000C2620A688262984201D0A04201D1096933
:10523000016301214161F0BD002C014000040040E8
:1052400000080040000C00400034014010B58468A4
:1052500042EA032224F47F440A432243826010BDC1
:10526000826822F070020A4342F0070181607047B1
:1052700010B5036A046A24F001040462846924F00E
:10528000F00444EA021423F00A020A438461026231
:1052900010BD10B5036A046A24F010040462846926
:1052A00023F0A00324F4704444EA023243EA0111DB
:1052B0008261016210BD00000148FEF7BFBA000024
:1052C0001802002010B5406A0021C185C184FEF794
:1052D000B4FA10BD01680C3151E8002F22F490722D
:1052E00041E80023002BF5D10168143151E8002F6B
:1052F00022F0010241E80023002BF5D1016B0129C6
:1053000009D101680C3151E8002F22F0100241E868
:105310000023002BF5D1202180F8421000210163E9
:10532000704708B590F84210222901D0022008BD2C
:1053300082684FF480539A4201D1016921B1816A98
:105340009A421BD04AB10AE00268816A5268C2F3ED
:1053500008020A80816A891C08E0026972B1026849
:10536000526802F07F020A70816A491C8162C18D15
:10537000491E0904090CC18503D01BE0026852686C
:10538000F1E70168CA6822F02002CA600168CA68B1
:1053900022F48072CA6001684A6922F001024A61FF
:1053A000202180F8421000214163026B012A03D0C2
:1053B000FEF7ECFB002008BD016301680C3151E8E9
:1053C000002F22F0100241E80023002BF5D10168E4
:1053D0000A68D20602D50A6849680091818DFEF7F5
:1053E0002BFAE7E770B5044600680169E26821F42A
:1053F0004051114301612169A06808436169084374
:105400002168CA6841F20C639A430243CA6020686B
:105410004169A26921F44071114341611E4920682C
:10542000884202D1FDF71AFE01E0FDF707FE00EB0E
:10543000C00101EB0012606864218000B2FBF0F350
:10544000B3FBF1F36FF018067343B2FBF0F5B2FB58
:10545000F0F605EB8305322303EB0515B5FBF1F5FB
:10546000B6FBF1F605F0F00505EB0615B2FBF0F61C
:10547000B2FBF0F0B0FBF1F06FF01802504306EB16
:10548000800003EB0010B0FBF1F0216800F00F008A
:105490002844886070BD0000003801402DE9F041CB
:1054A000984617460E460446069D27E0681C25D000
:1054B0002DB1FDF7C5FBA0EB0800A8421ED920685E
:1054C0000C3050E8001F21F4D07140E80012002A8F
:1054D000F5D12068143050E8001F21F0010140E8A8
:1054E0000012002AF5D1202084F8410084F84200FF
:1054F000002084F840000320BDE8F08120680068A7
:1055000036EA000004D00020B842CFD00020F3E7F4
:105510000120F9E7014908807047000014000020CD
:10552000064830B40078012806D130BC044B0A226A
:1055300004A10748FCF7A8B830BC70471800002049
:10554000450F00084672657175656E63790000004D
:10555000A41800202DE9F0411D4F02213846FDF727
:1055600065FB1C4D1C4E1D4C012817D002213846EE
:10557000FDF75CFB002826D1D4F82406FBF747F999
:105580002A463346FAF7CDFFFBF76CF9C4F8240638
:10559000B0F5000F19DA2846314610E0D4F8240699
:1055A000FBF735F92A463346FAF71AFFFBF75AF9A3
:1055B000C4F82406B0F17E5F07DB09480949FBF710
:1055C00051F9C4F82406BDE8F081FBF720F9F6E7AD
:1055D000001001407B14AE47E17A843F7C1200202A
:1055E000AE47E17A14AEEF3F05480078012805D1B7
:1055F000044B0A2204A10748FCF746B87047000094
:1056000018000020490F00084672657175656E63C9
:10561000790000009C1800202DE9F0411D4F022167
:105620003846FDF703FB1C4D1C4E1D4C012817D0BE
:1056300002213846FDF7FAFA002826D1D4F83006C0
:10564000FBF7E5F82A463346FAF76BFFFBF70AF952
:10565000C4F83006B0F5000F19DA2846314610E0DC
:10566000D4F83006FBF7D3F82A463346FAF7B8FEEB
:10567000FBF7F8F8C4F83006B0F17E5F07DB0948A5
:105680000949FBF7EFF8C4F83006BDE8F081FBF7F5
:10569000BEF8F6E7001001407B14AE47E17A843F84
:1056A0007C120020AE47E17A14AEEF3F064830B4DA
:1056B0000078012806D130BC044B0A2204A1074817
:1056C000FBF7E2BF30BC7047180000204D0F000808
:1056D0004672657175656E6379000000A818002038
:1056E00001A000F071FAFEE7556E646566696E65AB
:1056F0006420696E737472756374696F6E206F7263
:1057000020696C6C6567616C2073746174650A0054
:105710002DE9FE4F20220A21FE48FAF787FDFE4EB2
:1057200096F8340601287AD0FC4C20880C38FBF718
:1057300004F802460B460020F949FAF76AFFFBF726
:105740004DF8DFF8E09389F8010096F83506002857
:1057500065D0012863D1FCF7B7F9D6F81406FAF73B
:10576000FDFF0022F04BFAF754FF02460B46EFA173
:10577000E84800F039FA4FF0000ADFF898830C256A
:10578000CDF80080CDE9015A574653461F2201212A
:105790000820FFF77DFC20220A214046FAF746FD4B
:1057A000D6F81806FBF733F802460B46E1A140464F
:1057B00000F01AFACDF80080CDE901572088E943BE
:1057C00001EB50004BF6404880B2002342460121D5
:1057D000FFF75EFCD6F81006FAF7C0FFDFF85CB3FF
:1057E00002460B4600205946FAF713FFFAF7F6FF78
:1057F0000746C9F808002022082109F11400FAF729
:1058000015FDCF4887420BD33846FAF7A7FF002291
:105810005B46FAF7FEFE0B460246CAA10DE06FE1B9
:10582000B7F57A7F0ED33846FAF798FF0022BE4BC1
:10583000FAF7EFFE0B460246C4A1BA48143000F056
:10584000D3F905E0B7483A46C3A1143000F0CCF9CB
:10585000B448574614308DE8A10060886FF01302F9
:105860000D3881B22088002302EB500080B24246FE
:10587000FFF70EFC4FF6FF70FFF74CFE96F836066A
:10588000062811D2DFE800F0030513213942B4A045
:105890001CE0B3A08DE8A100608842460D3881B2BB
:1058A00000230DE0FFF7F4FB1025A0465AE0ACA062
:1058B0008DE8A100608847F67C530D3881B2002244
:1058C0000520FFF7E5FBA9A02DE0ABA08DE8A10026
:1058D000608847F67C530D3881B200220520FFF71F
:1058E000D7FBA2A08DE8A100608842460D3881B2A6
:1058F00020883C3880B20023D4E799A08DE8A1002D
:10590000608842460D3881B2002308E09DA08DE8F2
:10591000A100608847F67C530D3881B20022052033
:10592000FFF7B6FB9AA08DE8A10060884FF4FC63F6
:105930000D3881B220883C3880B20022B2E70524BD
:1059400009E029462046FEF719FA2946601CFEF7B1
:1059500015FA241DE4B2B8F80000401FA042F0DCA4
:105960000F35EDB2B8F802100F39A942E7DC052572
:1059700012E0102409E021462846FEF7FFF9611CD9
:105980002846FEF7FBF9241DE4B2B8F802000F38F0
:10599000A042F0DC0F35EDB2B8F800104046491FC8
:1059A000A942E6DC05246FF001086FF0050A054600
:1059B0000CE0688822460AEB50018BB208EB5000DD
:1059C00081B21046FEF78CF9E41CE4B22888401F2F
:1059D000A042EEDC10244FF0020A0BE02888234698
:1059E0000AEB500208EB500080B21946FEF778F936
:1059F000E41CE4B268880F38A042EFDC96F81C067D
:105A000001287DD1DFF80C8189F802704C4600270F
:105A100008F10C08C8E0052F73D32888801FB8420E
:105A20006FDDA17808EB81000190008AFAF796FEFD
:105A30006FF00B02FAF75CFE0022584BFAF777FD85
:105A40008B46824669886FF0030000EB5100FAF73D
:105A500074FE814652465B460091FAF762FDFAF702
:105A6000BDFEE0700198408AFAF778FE6FF00B02F5
:105A7000FAF73EFE0022494BFAF759FD02460B4663
:105A800048460099FAF74DFDFAF7A8FE207100206C
:105A9000FFF740FDA07808EB4001801D91F810143D
:105AA000FEF76CF9A07808EB4001801D91F8111405
:105AB000FEF764F996F8360628B1022803D00328C9
:105AC00001D0052808D147F67C50FFF723FDA078C8
:105AD000E178801DFEF752F996F83606012805D0C8
